:100AB30000A8C0003F065B4F666D7D077F6F00088F
:0F0AC3004001414876BF86DBCFE6EDFD87FFEFB0
:100960007F021209A08F22E522B40117E4FDFF12D5
:100970000B29E4F526F527F528F529F52AFBFD7F57
:10098000108019E522B40217E4FDFF120B29E4F5EB
:0F09900026F527F528F529F52AFBFDFF120A9316
:01099F002235
:100A5D00120AD2120AEF7BFF7A0979607F0412071E
:100A6D00B3E4FF120B447D07E4FF120B29E4F526D6
:100A7D00F527F528F529F52AFBFDFF120A93120B30
:060A8D004A120A1F80FB63
:1003DA00E4F580900079E0FFB40800505F9003EEE6
:1003EA00F828287302040602040C020412020418F4
:1003FA0002041E02042802043202043CC2A3C2A25E
:10040A008016C2A3C2A2801AC2A3C2A2801EC2A31D
:10041A00C2A28022C2A3D2A2C2A1C2A08020C2A329
:10042A00D2A2C2A1D2A08016C2A3D2A2D2A1C2A035
:10043A00800CC2A3D2A2D2A1D2A08002D2A3C3EFBF
:10044A00648094885029900079E0FF3395E0FE7427
:10045A00702FF58274003EF583E0FF3395E0FE7459
:10046A00B72FF582740A3EF583E493F580801E90D7
:10047A000079E0FFB408133395E0FE74702FF5821B
:10048A0074003EF583E0F5808003E4F58090006F08
:10049A00E0FF900079E004FEF0D3EF6480F8EE64A8
:1004AA0080984014E0D36480948850047408F02241
:0904BA0090006EE0900079F02240
:100AEF00E4F5937594FF5395F043960F90002A7495
:0B0AFF00FFF0A37403F0A374DAF022F0
:090B290090006EEFF0A3EDF02244
:100A9300900070EFF0A3EDF0A3EBF0A3E526F0A335
:100AA300E527F0A3E528F0A3E529F0A3E52AF02242
:060B4400900078EFF022A2
:10056B00011C0049007B94940094940094940041E6
:03057B00007A1EE5
:0201CA00151D01
:1001CC0020B20690007BE014F020B30690007EE095
:1001DC0014F0209706900081E014F090007AE0145F
:1001EC00F060030202EA741EF0A81DE4F6A81DE6F6
:1001FC00FFC36480948340030202EAEF3395E0FE70
:10020C0090007B75F003EF1200EAEE75F003A42565
:10021C0083F583E0C39480503990007C75F003EF34
:10022C001200EAEE75F003A42583F583E0D39480E5
:10023C00405AE6FF3395E0FE90007D75F003EF1217
:10024C0000EAEE75F003A42583F5837401F0F51C28
:10025C00803AA81DE6FF3395E0FE90007C75F00314
:10026C00EF1200EAEE75F003A42583F583E0C39446
:10027C0080501990007D75F003EF1200EAEE75F0D6
:10028C0003A42583F5837402F0751C01A81DE6FFF9
:10029C00FD3395E0FC90007B75F003ED1200EAEC69
:1002AC0075F003A42583F583E0FE90007C75F003C4
:1002BC00ED1200EAEC75F003A42583F583EEF0EF64
:1002CC003395E0FE90007B75F003EF1200EAEE75BB
:0E02DC00F003A42583F5837494F0060201F963
:0302EA00051D22CD
:020B1B00151DA6
:090B1D00A81DA61CE4F51CE6FF6E
:030B2600051D2288
:100AD20090003074FFF0A3740BF0A3741BF090002D
:0D0AE2002D74FFF0A37401F0A374CAF0227C
:1009A000EF600764016003BF0233EFFD3395E0FCA5
:1009B00090007D75F003ED1200EAEC75F003A425BC
:1009C00083F583E0FE90007D75F003ED1200EAEC04
:0F09D00075F003A42583F583E4F0AF06227F03BF
:0109DF0022F5
:10057E004100000A4100290A41006D0A040E0000E4
:10058E0000000114004600670000FFFF8FFFC10D41
:10059E00C105C108C101C10E60240005FF000AFF9C
:1005AE00000AFF000AFF000AFF000AFF000AFF0010
:1005BE000AFF000AFF000AFF000AFF000AFF000AF6
:1005CE006036002AFF000AFF000AFF0B50FF000AE8
:1005DE00FF0B50FF000AFF0B50FF000AFF000AFF3F
:1005EE00000AFF0B50FF0B50FF0B50FF0B50FF008C
:0A05FE000AFF000AFF000AFF000ACE
:01000A0022D3
:030B50007F002201
:1008D500438E805389F07BE07A2879017800900A6D
:1008E500B31200CE12091CEFF404F58A7BE07A28D6
:1008F50079017800900AB31200CE12091CC3E49F57
:10090500FFE49EFE74019DFDE49CFC78081200BA8C
:070915008F8CD28CD2A922C5
:03000B0002088365
:04088300C0E0C0D041
:10088700D5080A75084C300D020514D20DA2037263
:10089700045036150AE50A7030850C0AD207300A6B
:1008A70017E50D6007150D438F01801D538FFEC29D
:1008B700B5D51615C20A8011050BE50BD394064072
:0908C70008C203E5136002D20629
:0508D000D0D0D0E032A1
:10083000300E47C20E900AB31200CE78101200BAE2
:100840008E1A8F1B900003E0FEA3E0FFE4FCFD7B0B
:1008500019FAF9F812006BC006C007AE1AAF1BAB4D
:1008600007AA06E4F9F8D007D00612091C7803128B
:1008700000BA900065EEF0A3EFF0900065E0FEA3F3
:02088000E0FF97
:010882002253
:090B3200900067E0FEA3E0FF2241
:090B3B00900067EEF0A3EFF02238
:100B0A0090006BEEF0A3EFF0900069ECF0A3EDF02B
:010B1A0022B8
:030B5300C2B42207
:03003B000204C3F9
:1004C300C0E0C083C082C0D075D000C004C005C0E6
:0304D30006C00759
:1004D60030DF04C2DF807D30DA04C2DA807630D9BC
:1004E6003DC2D9AFFBEFFEADEB7C00E42DFFEC3E49
:1004F60020000E900001F0A3EFF075DB11D2008012
:1005060053FE900001E0FCA3E0FDC3EF9DFFEE9CCF
:10051600A3F0A3EFF075DB00C200D20E803630D810
:1005260033C2D8900067E07002A3E06022B2B490B4
:100536000069E0FEA3E0F5EAEEF5FAA3E0FEA3E02B
:10054600FF90006AE02FF0900069E03EF08005C25F
:04055600B453DAFEC2
:10055A00D007D006D005D004D0D0D082D083D0E046
:01056A00325E
:060B4A001208D5D2AF2213
:100728003004047F0180027F00200A047E018002D9
:100738007E00EE5F6074E515C39509506830023697
:10074800750D01E515131313541FAB17AA18A91932
:10075800F58275830012003EFFE515540704FEEF8D
:10076800A806088002C333D8FC30D7057516038065
:100778002F751601802AAB17AA18A91975F002E57A
:1007880015A4F58285F08312003EF50DE51575F088
:1007980002A429F9EA35F0FA90000112003EF51694
:0A07A8000515D20A22C204438F1087
:0107B2002224
:1002ED00900000E014F0701F740AF0D20590002900
:1002FD00E014F07012740AF0D20890006DE014F062
:10030D007005740AF0D20190002AA3E0FAA3E0F977
:10031D001200F690002DA3E0FAA3E0F91200F6907A
:10032D000039A3E0FAA3E0F91200F6900045A3E02E
:10033D00FAA3E0F91200F6900054A3E0FAA3E0F955
:10034D001200F690005DA3E0FAA3E0F91200F6901A
:10035D00004BA3E0FAA3E0F91200F6EF600C900059
:10036D001DA3E0FAA3E0F91200F690004EA3E0FA07
:10037D00A3E0F91200F6EF600E900020A3E0FAA3BF
:10038D00E0F91200F6D20BE512D394004016D51207
:10039D003030090C900023A3E0FAA3E0F91200F627
:1003AD00D20C801D900051A3E0FAA3E0F91200F6E3
:1003BD00EF600E900023A3E0FAA3E0F91200F6D24D
:0D03CD000C900005A3E0FAA3E0F90200F691
:1006090090003FA3E0FAA3E0F91200F6900042A39C
:10061900E0FAA3E0F91200F6900033A3E0FAA3E0B0
:10062900F91200F6900008A3E0FAA3E0F91200F627
:10063900900030A3E0FAA3E0F91200F6EF600C9005
:100649000011A3E0FAA3E0F91200F6900036A3E046
:10065900FAA3E0F91200F6EF600C900017A3E0FA94
:10066900A3E0F91200F6900048A3E0FAA3E0F9121A
:1006790000F6EF600C90001AA3E0FAA3E0F912006B
:10068900F630060EC206900026A3E0FAA3E0F9129E
:0306990000F62246
:1009E00090000BA3E0FAA3E0F91200F690003CA3FC
:1009F000E0FAA3E0F91200F6EF600C900014A3E017
:100A0000FAA3E0F91200F6900057A3E0FAA3E0F988
:0F0A10001200F690005AA3E0FAA3E0F90200F6F4
:10000E00AF11AE10AD0FAC0E9000601200DE90007E
:10001E0064E514F0E4F511F510F50FF50EF51490F6
:0B002E00000EA3E0FAA3E0F90200F6C8
:100A1F00300705C207120728300D05C20D1202ED6F
:100A2F00300505C205120609300805C2081209E093
:100A3F00300105C20112000EE5112401F511E43554
:0E0A4F0010F510E4350FF50FE4350EF50E220C
:1007B3008B228A238924EFB40C0050709007C6F86B
:1007C3002828730207EA0207EF0207F40207F90277
:1007D30007FE02080302080802080D0208120208B5
:1007E3001702081C0208219000058035900008803C
:1007F3003090000B802B90000E80269000118021FA
:10080300900017801C900014801790001A8012909B
:10081300001D800D9000208008900023800390002D
:0D08230026E522F0A3E523F0A3E524F02252
:070003007B017A0079602205
:0300000002069C59
:0C069C00787FE4F6D8FD75812A0206E3A1
:10003E00BB010CE58229F582E5833AF583E0225077
:10004E0006E92582F8E622BBFE06E92582F8E222C1
:0D005E00E58229F582E5833AF583E49322DB
:10006B00E88FF0A4CC8BF0A42CFCE98EF0A42CFC34
:10007B008AF0EDA42CFCEA8EF0A4CDA8F08BF0A4B2
:10008B002DCC3825F0FDE98FF0A42CCD35F0FCEB11
:10009B008EF0A4FEA9F0EB8FF0A4CFC5F02ECD39D6
:0F00AB00FEE43CFCEAA42DCE35F0FDE43CFC2243
:10091C00C2D5E830E70FB2D5E4C39BFBE49AFAE406
:10092C0099F9E498F8EC30E717B2D5120952120194
:10093C0038E4C39BFBE49AFAE499F9E498F8800351
:10094C0012013830D50DE4C39FFFE49EFEE49DFDFB
:04095C00E49CFC22F9
:1000BA00E86010ECA2E713FCED13FDEE13FEEF135C
:0400CA00FFD8F02249
:1000CE00E493FC740193FD740293FE740393FF2278
:0C00DE00ECF0A3EDF0A3EEF0A3EFF02295
:0C00EA00A42582F582E5F03583F5832221
:0600F6008A838982E47395
:1006A800020A5DE493A3F8E493A34003F68001F201
:1006B80008DFF48029E493A3F85407240CC8C33353
:1006C800C4540F4420C8834004F456800146F6DF22
:1006D800E4800B010204081020408090056BE47E42
:1006E800019360BCA3FF543F30E509541FFEE49317
:1006F800A360010ECF54C025E060A840B8E493A3DE
:10070800FAE493A3F8E493A3C8C582C8CAC583CA08
:10071800F0A3C8C582C8CAC583CADFE9DEE780BEC0
:0106080000F1
:1000FC0075F008758200EF2FFFEE33FECD33CDCCBB
:10010C0033CCC58233C5829BED9AEC99E58298403D
:10011C000CF582EE9BFEED9AFDEC99FC0FD5F0D61A
:10012C00E4CEFBE4CDFAE4CCF9A88222B800C1B944
:10013C000059BA002DEC8BF084CFCECDFCE5F0CB82
:10014C00F97818EF2FFFEE33FEED33FDEC33FCEBBB
:10015C0033FB10D703994004EB99FB0FD8E5E4F976
:10016C00FA227818EF2FFFEE33FEED33FDEC33FC63
:10017C00C933C910D7059BE99A4007EC9BFCE99A57
:10018C00F90FD8E0E4C9FAE4CCFB2275F010EF2F9C
:10019C00FFEE33FEED33FDCC33CCC833C810D7079C
:1001AC009BEC9AE899400AED9BFDEC9AFCE899F8D7
:0E01BC000FD5F0DAE4CDFBE4CCFAE4C8F9226A
:00000001FF
