:100ACE0000A8C0003F065B4F666D7D077F6F000874
:100ADE0040014148BF86DBCFE6EDFD87FFEF042ED8
:040AEE0007000101FB
:01000A0022D3
:100A4D0078227C007D007BFF7A0A79EC7E007F06A0
:100A5D0012010E120AA978287C007D007BFF7A0A0C
:100A6D0079EC7E007F0612010E1203E5120B631264
:040A7D000A0F80FBE1
:100543004100000A4100290A41006D0A040E00001F
:1005530000000114004600670000FFFF8FFFC10D7C
:10056300C105C108C101C10E60240005FF0039FFA8
:100573000039FF0039FF0039FF0039FF0039FF0060
:1005830039FF0039FF0039FF0039FF0039FF003917
:100593006036002AFF0039FF0039FF0B69FF00397D
:1005A300FF0B69FF0039FF0B69FF0039FF0039FFBB
:1005B3000039FF0B69FF0B69FF0B69FF0B69FF0034
:0A05C30039FF0039FF0039FF00394D
:0100390022A4
:030B69007F0022E8
:10090100438E805389F07BE07A2879017800900A40
:10091100CE12020812098CEFF404F58A7BE07A28E2
:1009210079017800900ACE12020812098CC3E49F63
:10093100FFE49EFE74019DFDE49CFC78081201F425
:070941008F8CD28CD2A92299
:03000B000208AF39
:0408AF00C0E0C0D015
:1008B300D5080A75084C300D020514D20DA2037237
:1008C300045036150AE50A7030850C0AD207300A3F
:1008D30017E50D6007150D438F01801D538FFEC271
:1008E300B5D51615C20A8011050BE50BD394064046
:0908F30008C203E5136002D206FD
:0508FC00D0D0D0E03275
:10085C00300E47C20E900ACE12020878101201F424
:10086C008E378F38900003E0FEA3E0FFE4FCFD7BA5
:10087C0019FAF9F81201A5C006C007AE37AF38ABAC
:10088C0007AA06E4F9F8D007D00612098C780312EF
:10089C0001F4900065EEF0A3EFF0900065E0FEA38C
:0208AC00E0FF6B
:0108AE002227
:090B5100900067E0FEA3E0FF2222
:090B5A00900067EEF0A3EFF02219
:100B340090006BEEF0A3EFF0900069ECF0A3EDF001
:010B4400228E
:030B6C00C2B422EE
:03003B0002049B21
:10049B00C0E0C083C082C0D075D000C004C005C00E
:0304AB0006C00781
:1004AE0030DF04C2DF807D30DA04C2DA807630D9E4
:1004BE003DC2D9AFFBEFFEADEB7C00E42DFFEC3E71
:1004CE0020000E900001F0A3EFF075DB11D200803A
:1004DE0053FE900001E0FCA3E0FDC3EF9DFFEE9CF8
:1004EE00A3F0A3EFF075DB00C200D20E803630D839
:1004FE0033C2D8900067E07002A3E06022B2B490DD
:10050E000069E0FEA3E0F5EAEEF5FAA3E0FEA3E053
:10051E00FF90006AE02FF0900069E03EF08005C287
:04052E00B453DAFEEA
:10053200D007D006D005D004D0D0D082D083D0E06E
:010542003286
:060B6300120901D2AF22CD
:1006F8003004047F0180027F00200A047E0180020A
:100708007E00EE5F6074E515C395095068300236C7
:10071800750D01E515131313541FAB17AA18A91962
:10072800F58275830012014DFFE515540704FEEFAD
:10073800A806088002C333D8FC30D7057516038095
:100748002F751601802AAB17AA18A91975F002E5AA
:1007580015A4F58285F08312014DF50DE51575F0A8
:1007680002A429F9EA35F0FA90000112014DF516B4
:0A0778000515D20A22C204438F10B7
:010782002254
:1002F800900000E014F0701F740AF0D205900029F5
:10030800E014F07012740AF0D20890006DE014F056
:100318007005740AF0D20190002AA3E0FAA3E0F96C
:1003280012022490002DA3E0FAA3E0F9120224900F
:100338000039A3E0FAA3E0F9120224900045A3E0F3
:10034800FAA3E0F9120224900054A3E0FAA3E0F91A
:1003580012022490005DA3E0FAA3E0F912022490AF
:10036800004BA3E0FAA3E0F9120224EF600C90001E
:100378001DA3E0FAA3E0F912022490004EA3E0FACC
:10038800A3E0F9120224EF600E900020A3E0FAA384
:10039800E0F9120224D20BE512D394004016D512CC
:1003A8003030090C900023A3E0FAA3E0F9120224EC
:1003B800D20C801D900051A3E0FAA3E0F9120224A8
:1003C800EF600E900023A3E0FAA3E0F9120224D212
:0D03D8000C900005A3E0FAA3E0F902022456
:1005D90090003FA3E0FAA3E0F9120224900042A39D
:1005E900E0FAA3E0F9120224900033A3E0FAA3E0B1
:1005F900F9120224900008A3E0FAA3E0F9120224F8
:10060900900030A3E0FAA3E0F9120224EF600C9005
:100619000011A3E0FAA3E0F9120224900036A3E046
:10062900FAA3E0F9120224EF600C900017A3E0FA94
:10063900A3E0F9120224900048A3E0FAA3E0F9121A
:100649000224EF600C90001AA3E0FAA3E0F9120269
:100659002430060EC206900026A3E0FAA3E0F912A0
:0306690002242246
:1009D00090000BA3E0FAA3E0F912022490003CA3DC
:1009E000E0FAA3E0F9120224EF600C900014A3E0F7
:1009F000FAA3E0F9120224900057A3E0FAA3E0F969
:0F0A000012022490005AA3E0FAA3E0F9020224A4
:10000E00AF11AE10AD0FAC0E900060120218900042
:10001E0064E514F0E4F511F510F50FF50EF51490F6
:0B002E00000EA3E0FAA3E0F902022498
:100A0F00300705C2071206F8300D05C20D1202F8A5
:100A1F00300505C2051205D9300805C2081209D0E4
:100A2F00300105C20112000EE5112401F511E43564
:0E0A3F0010F510E4350FF50FE4350EF50E221C
:100783008B348A358936EFB40C005070900796F895
:100793002828730207BA0207BF0207C40207C90267
:1007A30007CE0207D30207D80207DD0207E20207DA
:1007B300E70207EC0207F1900005803590000880FE
:1007C3003090000B802B90000E802690001180212A
:1007D300900017801C900014801790001A801290CC
:1007E300001D800D9000208008900023800390005E
:0D07F30026E534F0A3E535F0A3E536F0224D
:070003007B017A0079602205
:0B05CD0048006ED4111A50400288A5AF
:090B0E007F03120B17D2C57F030F
:0A0B1700AE071FEE60030080F72216
:100B2100D2A7120B0EC2A77F03120B17C2C57F03F8
:030B3100020B179D
:0C0B4500C2A7120B0ED2A77F03020B17F1
:100AF200E4FFD2C530A709EFC394FA50030F80F484
:0C0B02007F03120B17C2C57F03020B1704
:020A8100AD07BF
:100A8300E4FBC2C57F03120B17ED3392A7ED25E0FC
:100A9300FD120B0E0BBB08EAC2C57F03120B17D264
:060AA300C57F03020B17E2
:0209480015395F
:10094A00900076E064017037120B217F20120A8131
:10095A00120AF2A839E4F6A839E6FFC39408501738
:10096A00746E2FF582E43400F583E0FF120A8112D7
:0F097A000AF2A8390680E0120B45E4900076F0EF
:030989000539220B
:10080000900070E025E025E0FFA3E0C4131354033B
:100810002F2466F52FE43403F52E900075E0540F75
:10082000F530900073E0543FFF5403FEBE0305759E
:1008300031FF8003E4F531EF540CFEBE0C05753238
:10084000FF8003E4F532EF5430FFBF30057533FF0E
:0B0850008003E4F5337B007A00792E72
:01085B00227A
:1003E500D3E5299438E528940450047F0180027FE1
:1003F50000C3E5299466E528940340047E01800244
:100405007E00EE5F603012080012017A65297004E3
:10041500E5F065286020E529249AFD1313543F90E3
:100425000070F0ED5403FFC4333354C04410A3F0FF
:100435009000767401F0120800E92402F9E43AFA12
:10044500120134652A60047F0180027F00E52AD30A
:10045500940F50047E0180027E00EE5F6011E52A54
:10046500540FFF900075E054F04FF0A37401F07D38
:100475002AE52B6003430501E52C6003430504E5EC
:100485002D6003430510900073E06D6008EDF0905A
:0504950000767401F087
:01049A00223F
:100AA90078287C007D007B007A0079227E007F0611
:100AB90012010E1203E590005774FFF0A37409F0B8
:050AC900A37448F022B7
:0300000002066C89
:0C066C00787FE4F6D8FD7581390206B3F2
:10003E00E709F608DFFA8046E709F208DFFA803EA4
:10004E0088828C83E709F0A3DFFA8032E309F60891
:10005E00DFFA8078E309F208DFFA807088828C83F9
:10006E00E309F0A3DFFA806489828A83E0A3F608AD
:10007E00DFFA805889828A83E0A3F208DFFA804C87
:10008E0080D280FA80C680D4806980F2803380105E
:10009E0080A680EA809A80A880DA80E280CA8033C7
:1000AE0089828A83ECFAE493A3C8C582C8CCC5833F
:1000BE00CCF0A3C8C582C8CCC583CCDFE9DEE7800F
:1000CE000D89828A83E493A3F608DFF9ECFAA9F08E
:1000DE00EDFB2289828A83ECFAE0A3C8C582C8CCE4
:1000EE00C583CCF0A3C8C582C8CCC583CCDFEADEFD
:1000FE00E880DB89828A83E493A3F208DFF980CC5F
:10010E0088F0EF60010E4E60C388F0ED2402B40457
:10011E000050B9F582EB2402B4040050AF232345FE
:06012E00822390008E7395
:10013400BB010689828A83E0225002E722BBFE02C9
:09014400E32289828A83E49322FC
:10014D00BB010CE58229F582E5833AF583E0225067
:10015D0006E92582F8E622BBFE06E92582F8E222B1
:0D016D00E58229F582E5833AF583E49322CB
:10017A00BB010A89828A83E0F5F0A3E02250068750
:10018A00F009E71922BBFE07E3F5F009E319228912
:0B019A00828A83E493F5F07401932245
:1001A500E88FF0A4CC8BF0A42CFCE98EF0A42CFCF9
:1001B5008AF0EDA42CFCEA8EF0A4CDA8F08BF0A477
:1001C5002DCC3825F0FDE98FF0A42CCD35F0FCEBD6
:1001D5008EF0A4FEA9F0EB8FF0A4CFC5F02ECD399B
:0F01E500FEE43CFCEAA42DCE35F0FDE43CFC2208
:10098C00C2D5E830E70FB2D5E4C39BFBE49AFAE496
:10099C0099F9E498F8EC30E717B2D51209C21202B3
:1009AC0066E4C39BFBE49AFAE499F9E498F88003B3
:1009BC0012026630D50DE4C39FFFE49EFEE49DFD5C
:0409CC00E49CFC2289
:1001F400E86010ECA2E713FCED13FDEE13FEEF1321
:04020400FFD8F0220D
:10020800E493FC740193FD740293FE740393FF223C
:0C021800ECF0A3EDF0A3EEF0A3EFF02259
:060224008A838982E47365
:10067800020A4DE493A3F8E493A34003F68001F241
:1006880008DFF48029E493A3F85407240CC8C33383
:10069800C4540F4420C8834004F456800146F6DF52
:1006A800E4800B0102040810204080900543E47E9A
:1006B800019360BCA3FF543F30E509541FFEE49347
:1006C800A360010ECF54C025E060A840B8E493A30E
:1006D800FAE493A3F8E493A3C8C582C8CAC583CA39
:1006E800F0A3C8C582C8CAC583CADFE9DEE780BEF1
:0105D8000022
:10022A0075F008758200EF2FFFEE33FECD33CDCC8B
:10023A0033CCC58233C5829BED9AEC99E58298400E
:10024A000CF582EE9BFEED9AFDEC99FC0FD5F0D6EB
:10025A00E4CEFBE4CDFAE4CCF9A88222B800C1B915
:10026A000059BA002DEC8BF084CFCECDFCE5F0CB53
:10027A00F97818EF2FFFEE33FEED33FDEC33FCEB8C
:10028A0033FB10D703994004EB99FB0FD8E5E4F947
:10029A00FA227818EF2FFFEE33FEED33FDEC33FC34
:1002AA00C933C910D7059BE99A4007EC9BFCE99A28
:1002BA00F90FD8E0E4C9FAE4CCFB2275F010EF2F6D
:1002CA00FFEE33FEED33FDCC33CCC833C810D7076D
:1002DA009BEC9AE899400AED9BFDEC9AFCE899F8A8
:0E02EA000FD5F0DAE4CDFBE4CCFAE4C8F9223B
:00000001FF
