:1009B60000A8C0003F065B4F666D7D077F6F00088D
:0E09C60040014148BF86DBCFE6EDFD87FFEF25
:100A0C00120A2FBF010B7D147C007FE87E031206B7
:020A1C00F522C1
:10091A001209F11209D41209767BFF7A0A790C7F3F
:10092A00061206787D07E4FF120A65E4F525F52626
:10093A00F527F528F529FBFDFF120996120A8612FA
:04094A0008DC80FB4A
:04094E00151E151E3F
:10095200120A6EA81EA60608A607A81EE6FE08E64C
:0F096200FF4E600BEF24FFFFEE34FFFE120A770B
:05097100051E051E2219
:1009760053B1EF43B210120A8FE4F5D975DA49D2B2
:10098600DE90003F74FFF0A37409F0A3744EF022CA
:0806F5008E228F238C248D2539
:1006FD00120A6EEF4E7066AF25AE24120A77C3E56F
:10070D0023940AE5229400404BE47B18FAF9F89003
:10071D0009B612019C1200F6C006C007AE22AF2327
:10072D00AB07AA06E4F9F8D007D0061200F6AB071E
:10073D00AA06AFF9EFFEADE97C00E42DFFEC3ECF4C
:10074D002BCF3AAD07FCAF03AE02120A1ED2D8432F
:0F075D00DA018006120A8F53DAFE7F02227F0331
:01076C00226A
:0C0A5900120A6EEF4E7002FF227F012295
:1002AB00E4F580900079E0FFB40800505F9002BF46
:1002BB00F82828730202D70202DD0202E30202E9E8
:1002CB000202EF0202F902030302030DC2A3C2A250
:1002DB008016C2A3C2A2801AC2A3C2A2801EC2A34E
:1002EB00C2A28022C2A3D2A2C2A1C2A08020C2A35A
:1002FB00D2A2C2A1D2A08016C2A3D2A2D2A1C2A066
:10030B00800CC2A3D2A2D2A1D2A08002D2A3C3EFEF
:10031B00648094885029900079E0FF3395E0FE7457
:10032B00702FF58274003EF583E0FF3395E0FE7489
:10033B00BA2FF58274093EF583E493F580801E9005
:10034B000079E0FFB408133395E0FE74702FF5824B
:10035B0074003EF583E0F5808003E4F58090006F38
:10036B00E0FF900079E004FEF0D3EF6480F8EE64D8
:10037B0080984014E0D36480948850047408F02271
:09038B0090006EE0900079F02270
:1009F100E4F5937594FF5395F043960F90002A7494
:0B0A0100FFF0A37402F0A374ABF0221E
:090A650090006EEFF0A3EDF02209
:10099600900070EFF0A3EDF0A3EBF0A3E525F0A334
:1009A600E526F0A3E527F0A3E528F0A3E529F02244
:060A8000900078EFF02267
:1004CF004100000A4100290A41006D0A040E000094
:1004DF0000000114004600670000FFFF8FFFC10DF1
:1004EF00C105C108C101C10E60240005FF000AFF4C
:1004FF00000AFF000AFF000AFF000AFF000AFF00C0
:10050F000AFF000AFF000AFF000AFF000AFF000AA5
:10051F006036002AFF000AFF000AFF0A8CFF000A5C
:10052F00FF0A8CFF000AFF0A8CFF000AFF000AFF78
:10053F00000AFF0A8CFF0A8CFF0A8CFF0A8CFF004F
:0A054F000AFF000AFF000AFF000A7D
:01000A0022D3
:030A8C007F0022C6
:10081200438E805389F07BE07A2879017800900931
:10082200B612019C120859EFF404F58A7BE07A288B
:10083200790178009009B612019C120859C3E49F0D
:10084200FFE49EFE74019DFDE49CFC780812018881
:070852008F8CD28CD2A92289
:03000B000207C029
:0407C000C0E0C0D005
:1007C400D5080A75084C300D020514D20DA2037227
:1007D400045036150AE50A7030850C0AD207300A2F
:1007E40017E50D6007150D438F01801D538FFEC261
:1007F400B5D51615C20A8011050BE50BD394064036
:0908040008C203E5136002D206EC
:05080D00D0D0D0E03264
:10076D00300E47C20E9009B612019C781012018806
:10077D008E1A8F1B900003E0FEA3E0FFE4FCFD7BCF
:10078D0019FAF9F812006BC006C007AE1AAF1BAB11
:10079D0007AA06E4F9F8D007D00612085978031213
:1007AD000188900065EEF0A3EFF0900065E0FEA3E8
:0207BD00E0FF5B
:0107BF002217
:090A6E00900067E0FEA3E0FF2206
:090A7700900067EEF0A3EFF022FD
:100A1E0090006BEEF0A3EFF0900069ECF0A3EDF018
:010A2E0022A5
:030A8F00C2B422CC
:03003B0002039429
:10039400C0E0C083C082C0D075D000C004C005C016
:0303A40006C00789
:1003A70030DF04C2DF807D30DA04C2DA807630D9EC
:1003B7003DC2D9AFFBEFFEADEB7C00E42DFFEC3E79
:1003C70020000E900001F0A3EFF075DB11D2008042
:1003D70053FE900001E0FCA3E0FDC3EF9DFFEE9C00
:1003E700A3F0A3EFF075DB00C200D20E803630D841
:1003F70033C2D8900067E07002A3E06022B2B490E5
:100407000069E0FEA3E0F5EAEEF5FAA3E0FEA3E05B
:10041700FF90006AE02FF0900069E03EF08005C28F
:04042700B453DAFEF2
:10042B00D007D006D005D004D0D0D082D083D0E076
:01043B00328E
:060A8600120812D2AF229B
:1005ED003004047F0180027F00200A047E01800216
:1005FD007E00EE5F6074E515C395095068300236D4
:10060D00750D01E515131313541FAB17AA18A9196E
:10061D00F58275830012003EFFE515540704FEEFC9
:10062D00A806088002C333D8FC30D70575160380A1
:10063D002F751601802AAB17AA18A91975F002E5B6
:10064D0015A4F58285F08312003EF50DE51575F0C4
:10065D0002A429F9EA35F0FA90000112003EF516D0
:0A066D000515D20A22C204438F10C3
:010677002260
:1001BE00900000E014F0701F740AF0D20590002930
:1001CE00E014F07012740AF0D20890006DE014F092
:1001DE007005740AF0D20190002AA3E0FAA3E0F9A8
:1001EE001201B890002DA3E0FAA3E0F91201B89025
:1001FE000039A3E0FAA3E0F91201B8900045A3E09C
:10020E00FAA3E0F91201B8900054A3E0FAA3E0F9C2
:10021E001201B890005DA3E0FAA3E0F91201B890C4
:10022E00004BA3E0FAA3E0F91201B8EF600C9000C6
:10023E001DA3E0FAA3E0F91201B890004EA3E0FA74
:10024E00A3E0F91201B8EF600E900020A3E0FAA32C
:10025E00E0F91201B8D20BE512D394004016D51274
:10026E003030090C900023A3E0FAA3E0F91201B894
:10027E00D20C801D900051A3E0FAA3E0F91201B850
:10028E00EF600E900023A3E0FAA3E0F91201B8D2BA
:0D029E000C900005A3E0FAA3E0F90201B8FE
:10043C0090003FA3E0FAA3E0F91201B8900042A3A8
:10044C00E0FAA3E0F91201B8900033A3E0FAA3E0BC
:10045C00F91201B8900008A3E0FAA3E0F91201B870
:10046C00900030A3E0FAA3E0F91201B8EF600C9011
:10047C000011A3E0FAA3E0F91201B8900036A3E052
:10048C00FAA3E0F91201B8EF600C900017A3E0FAA0
:10049C00A3E0F91201B8900048A3E0FAA3E0F91226
:1004AC0001B8EF600C90001AA3E0FAA3E0F9120176
:1004BC00B830060EC206900026A3E0FAA3E0F912AB
:0304CC0001B82252
:10089D0090000BA3E0FAA3E0F91201B890003CA37D
:1008AD00E0FAA3E0F91201B8EF600C900014A3E098
:1008BD00FAA3E0F91201B8900057A3E0FAA3E0F90A
:0F08CD001201B890005AA3E0FAA3E0F90201B8B3
:10000E00AF11AE10AD0FAC0E9000601201AC9000AF
:10001E0064E514F0E4F511F510F50FF50EF51490F6
:0B002E00000EA3E0FAA3E0F90201B805
:1008DC00300705C2071205ED300D05C20D1201BE21
:1008EC00300505C20512043C300805C20812089DEB
:1008FC00300105C20112000EE5112401F511E43599
:0E090C0010F510E4350FF50FE4350EF50E2250
:100678008B228A238924EFB40C00507090068BF8E3
:100688002828730206AF0206B40206B90206BE02A3
:1006980006C30206C80206CD0206D20206D7020623
:1006A800DC0206E10206E69000058035900008802D
:1006B8003090000B802B90000E8026900011802136
:1006C800900017801C900014801790001A801290D8
:1006D800001D800D9000208008900023800390006A
:0D06E80026E522F0A3E523F0A3E524F0228F
:070003007B017A0079602205
:07055900011D0041007A00C2
:0D0A4C0020A409751D0190007A7401F022AC
:020A3E00151E83
:090A4000A81EA61DE4F51DE6FF49
:030A4900051E2265
:1009D40090003C74FFF0A3740AF0A3743EF09000FE
:0D09E4003974FFF0A3740AF0A3744CF022E4
:020A2F00151E92
:0A0A310090007AE0A81EF6FFE4F042
:030A3B00051E2273
:0300000002056195
:0C056100787FE4F6D8FD7581290205A81A
:10003E00BB010CE58229F582E5833AF583E0225077
:10004E0006E92582F8E622BBFE06E92582F8E222C1
:0D005E00E58229F582E5833AF583E49322DB
:10006B00E88FF0A4CC8BF0A42CFCE98EF0A42CFC34
:10007B008AF0EDA42CFCEA8EF0A4CDA8F08BF0A4B2
:10008B002DCC3825F0FDE98FF0A42CCD35F0FCEB11
:10009B008EF0A4FEA9F0EB8FF0A4CFC5F02ECD39D6
:0F00AB00FEE43CFCEAA42DCE35F0FDE43CFC2243
:1000BA0075F008758200EF2FFFEE33FECD33CDCCFD
:1000CA0033CCC58233C5829BED9AEC99E582984080
:1000DA000CF582EE9BFEED9AFDEC99FC0FD5F0D65D
:1000EA00E4CEFBE4CDFAE4CCF9A88222B800C1B987
:1000FA000059BA002DEC8BF084CFCECDFCE5F0CBC5
:10010A00F97818EF2FFFEE33FEED33FDEC33FCEBFD
:10011A0033FB10D703994004EB99FB0FD8E5E4F9B8
:10012A00FA227818EF2FFFEE33FEED33FDEC33FCA5
:10013A00C933C910D7059BE99A4007EC9BFCE99A99
:10014A00F90FD8E0E4C9FAE4CCFB2275F010EF2FDE
:10015A00FFEE33FEED33FDCC33CCC833C810D707DE
:10016A009BEC9AE899400AED9BFDEC9AFCE899F819
:0E017A000FD5F0DAE4CDFBE4CCFAE4C8F922AC
:10085900C2D5E830E70FB2D5E4C39BFBE49AFAE4CA
:1008690099F9E498F8EC30E717B2D512088F12001D
:10087900F6E4C39BFBE49AFAE499F9E498F8800357
:100889001200F630D50DE4C39FFFE49EFEE49DFD02
:04089900E49CFC22BD
:10018800E86010ECA2E713FCED13FDEE13FEEF138D
:04019800FFD8F0227A
:10019C00E493FC740193FD740293FE740393FF22A9
:0C01AC00ECF0A3EDF0A3EEF0A3EFF022C6
:0601B8008A838982E473D2
:10056D0002091AE493A3F8E493A34003F68001F281
:10057D0008DFF48029E493A3F85407240CC8C3338F
:10058D00C4540F4420C8834004F456800146F6DF5E
:10059D00E4800B01020408102040809004CFE47E1B
:1005AD00019360BCA3FF543F30E509541FFEE49353
:1005BD00A360010ECF54C025E060A840B8E493A31A
:1005CD00FAE493A3F8E493A3C8C582C8CAC583CA45
:1005DD00F0A3C8C582C8CAC583CADFE9DEE780BEFD
:01056000009A
:00000001FF
