:0A076800000102030405060708095A
:1006540019313F065B4F666D7D077F6F777C395E8E
:1006640079717638373E735C40000008210001023E
:05067400030405060768
:06069E00AE071FEE601B19
:1006A4007512017513F4E5131513AC1270021512CB
:0B06B4004C60E700000000000080EB3D
:0106BF002218
:0606DD00C296C295D29600
:1006E300E4FEC295EF1392CCEFC313FFD2950EBE77
:0206F30008F00D
:0106F50022E2
:1006F600E4FEC295EFC313FF30CC03430780D295C7
:040706000EBE08EE2D
:01070A0022CC
:0707200074082DF8E64BFD03
:0D0727001206DDAF051206E3C296D2952240
:09073400E4FD7F8E1207277F818E
:0A073D001206DD1206F6C296D295F0
:01074700228F
:10046E007F8112073DEF5470C4540F75F00AA4FE3D
:10047E00EF540F2EF5127F8312073DEF5470C454C4
:10048E000F75F00AA4FEEF540F2EF5137F85120799
:10049E003DEF5470C4540F75F00AA4FEEF540F2EA6
:1004AE00F5147F8712073DEF5470C4540F75F00A90
:1004BE00A4FEEF540F2EF5167F8B12073DEF5470EE
:1004CE00C4540F75F00AA4FEEF540F2EF5157F8954
:1004DE0012073DEF5470C4540F75F00AA4FEEF548A
:1004EE000F2EF5177F8D12073DEF5470C4540F7504
:1004FE00F00AA4FEEF540F2EF5187B007A00791245
:01050E0022CA
:1006C0007596FFE4F5957594FFF593C2A3758901BE
:0D06D000D2AFD2A9758CFC758A17D28C228E
:10062700752B00752C07752900752A08752E00751E
:100637002F09C202C205C204C206D200C203C20108
:0D064700E4F54A75B210F5B1F592F5912277
:1007480075BCEF00000000E5BC30E4FB53BCEFAF24
:01075800BDE3
:01075900227D
:10067A00120748EFF4601A7F0112069E120748EF2C
:10068A00F4600E5307E07805EF08800103D8FDFFF8
:03069A00227F07B5
:01069D00223A
:1002B90012067A8F4AE54A14700302039214605BAE
:1002C90014700302039914700302038B1460030270
:1002D900039F300514E52C2401FFE4352BFE7C0037
:1002E9007D181202648C2B8D2C300414E52A24010C
:1002F900FFE43529FE7C007D3C1202648C298D2A9D
:1003090020060302039FE52F2401FFE4352EFE7C1E
:10031900007D3C1202648C2E8D2F2230051FD3E5FF
:100329002C9400E52B9400400CE52C24FFFFE52BD1
:1003390034FFFE80047E007F178E2B8F2C30041F24
:10034900D3E52A9400E5299400400CE52A24FFFF0F
:10035900E52934FFFE80047E007F3B8E298F2A30F9
:100369000634D3E52F9400E52E9400400CE52F24A4
:10037900FFFFE52E34FFFE80047E007F3B8E2E8F2B
:100389002F22D205C206C20422D206C205C2042205
:07039900D204C205C20622D6
:10059B0020B24A7F0512069E30B2FDC202D203C2C0
:1005AB0000C205D204C206752B00854D2C7529009F
:1005BB00854C2A752E00854B2F20B2117F05120614
:1005CB009E30B2FDC205C204C206D202221202B98B
:0E05DB00E54A640760E312067A8F4A80F32235
:1003A00078087C007D007BFF7A0779687E007F0AF1
:1003B00012023E12046E784B7C007D007E007F07A7
:1003C00012023E12067A8F4AE54AB4030EE54AB499
:1003D000030712067A8F4A80F4C202200203020445
:1003E0006DC203D200120734EF4480FD7F801207F4
:1003F00027AE2EAF2F7C007D0A12026474082FF8FE
:10040000E6C454F0FBAE2EAF2F7C007D0A120264CE
:100410007F80120720AE29AF2A7C007D0A12026479
:1004200074082FF8E6C454F0FBAE29AF2A7C007D97
:100430000A1202647F82120720AE2BAF2C7C007D53
:100440000A12026474082FF8E6C454F0FBAE2BAF16
:100450002C7C007D0A12026474082DF8E64BFD7FA7
:0D046000841207277D807F8E120727C202BD
:01046D00226C
:10070B00120734EF547FF530FD7F801207277D8071
:05071B007F8E0207279C
:03000B0002000EE2
:10000E00C0E0C0F0C0D075D000C000C004C005C0B4
:10001E0006C007758CFC758A17052DE52DB40803EF
:10002E00752D007580007421252DF8E6F5A03000A1
:10003E0044E52D14601624FE601614601724FE602D
:10004E001714601E2407702AE54D800EE54D8014AE
:10005E00E54C8006E54C800CE54B75F00A842431A6
:10006E00800AE54B75F00A84743125F0F8E6F580C8
:10007E008003854780200303020135E52D14601BA4
:10008E0024FE603C14603F24FE60601460712407FF
:10009E006003020132AE2BAF2C8054AE2BAF2C7C02
:1000AE00007D0A30050D12026474312DF8E644808D
:1000BE00FF800912026474312DF8E6FF8F8080678D
:1000CE00AE29AF2A8029AE29AF2A7C007D0A3004E2
:1000DE000D12026474312DF8E64480FF800912027D
:1000EE006474312DF8E6FF8F80803CAE2EAF2F7CEE
:1000FE00007D0A12026474312FF8E6F5808028AE76
:10010E002EAF2F7C007D0A30060D12026474312D45
:10011E00F8E64480FF800912026474312DF8E6FF80
:10012E008F808003854780300125E52D14600D04F6
:10013E00701AE54A75F00A842431800AE54A75F092
:10014E000A84743125F0F8E6F5808003854780D067
:10015E0007D006D005D004D000D0D0D0F0D0E032F9
:0E075A00759D80E4F5BD75BCFF7F0202069E12
:1005E9001206C012075A1206277F8112073DEF3003
:1005F900E70312070B7FC812069E12046E784B7C24
:10060900007D007E007F0712023E12059B1203A0A7
:0E0619007F8112073DEF30E7DC12070B80D720
:0300000002050FE7
:0C050F00787FE4F6D8FD75815102055696
:10016E00E709F608DFFA8046E709F208DFFA803E73
:10017E0088828C83E709F0A3DFFA8032E309F60860
:10018E00DFFA8078E309F208DFFA807088828C83C8
:10019E00E309F0A3DFFA806489828A83E0A3F6087C
:1001AE00DFFA805889828A83E0A3F208DFFA804C56
:1001BE0080D280FA80C680D4806980F2803380102D
:1001CE0080A680EA809A80A880DA80E280CA803396
:1001DE0089828A83ECFAE493A3C8C582C8CCC5830E
:1001EE00CCF0A3C8C582C8CCC583CCDFE9DEE780DE
:1001FE000D89828A83E493A3F608DFF9ECFAA9F05D
:10020E00EDFB2289828A83ECFAE0A3C8C582C8CCB2
:10021E00C583CCF0A3C8C582C8CCC583CCDFEADECB
:10022E00E880DB89828A83E493A3F208DFF980CC2D
:10023E0088F0EF60010E4E60C388F0ED2402B40426
:10024E000050B9F582EB2402B4040050AF232345CD
:06025E0082239001BE7333
:10026400BC000BBE0029EF8DF084FFADF022E4CC7E
:10027400F875F008EF2FFFEE33FEEC33FCEE9DEC47
:10028400984005FCEE9DFE0FD5F0E9E4CEFD22ED8D
:10029400F8F5F0EE8420D21CFEADF075F008EF2FD7
:1002A400FFED33FD4007985006D5F0F222C398FDC8
:0502B4000FD5F0EA2265
:10051B000205E9E493A3F8E493A34003F68001F208
:10052B0008DFF48029E493A3F85407240CC8C333E1
:10053B00C4540F4420C8834004F456800146F6DFB0
:10054B00E4800B0102040810204080900654E47EE6
:10055B00019360BCA3FF543F30E509541FFEE493A5
:10056B00A360010ECF54C025E060A840B8E493A36C
:10057B00FAE493A3F8E493A3C8C582C8CAC583CA97
:10058B00F0A3C8C582C8CAC583CADFE9DEE780BE4F
:010679000080
:00000001FF
