:100A0F0000A8C0003F065B4F666D7D077F6F000833
:100A1F0040014148BF86DBCFE6EDFD87FFEF0001C8
:080A2F00020304050607080993
:03064000011C009A
:10041F00E51C75F00A84E5F0900A2D93FFC007E5FF
:10042F001CFB7A002401FFEA33FE7C007D0A1200D8
:10043F006B742D2DF582740A3CF583E493FDC00592
:10044F00EB2402FFEA33FE7C007D0A12006B742D51
:10045F002DF582740A3CF583E493FBE51C2403FF1E
:10046F00E433FE7C007D0A12006B742D2DF582742F
:10047F000A3CF583E493F525E51C2404FFE433FEE1
:10048F007C007D0A12006B742D2DF582740A3CF5E9
:10049F0083E493F526E51C2405FFE433FE7C007D01
:1004AF000A12006B742D2DF582740A3CF583E493C8
:1004BF00F527E51C2406FFE433FE7C007D0A1200BD
:1004CF006B742D2DF582740A3CF583E493F528E5C2
:1004DF001C2407FFE433FE7C007D0A12006B742D91
:1004EF002DF582740A3CF583E493F529D005D007E6
:0504FF00120A59051C62
:0105040022D4
:100A3700120A797D07E4FF120AA5E4FF120AC07BB8
:100A4700FF7A04791F7F031207E5120AC61209D13C
:020A570080FB22
:10033600E4F580900079E0FFB40800505F90034A2E
:10034600F828287302036202036802036E0203742C
:1003560002037A02038402038E020398C2A3C2A296
:100366008016C2A3C2A2801AC2A3C2A2801EC2A3C2
:10037600C2A28022C2A3D2A2C2A1C2A08020C2A3CE
:10038600D2A2C2A1D2A08016C2A3D2A2D2A1C2A0DA
:10039600800CC2A3D2A2D2A1D2A08002D2A3C3EF64
:1003A600648094885029900079E0FF3395E0FE74CC
:1003B600702FF58274003EF583E0FF3395E0FE74FE
:1003C600132FF582740A3EF583E493F580801E9020
:1003D6000079E0FFB408133395E0FE74702FF582C0
:1003E60074003EF583E0F5808003E4F58090006FAD
:1003F600E0FF900079E004FEF0D3EF6480F8EE644D
:1004060080984014E0D36480948850047408F022E5
:0904160090006EE0900079F022E4
:100A7900E4F5937594FF5395F043960F90002A740B
:0B0A8900FFF0A37403F0A37436F0220A
:090AA50090006EEFF0A3EDF022C9
:100A5900900070EFF0A3EDF0A3EBF0A3E525F0A370
:100A6900E526F0A3E527F0A3E528F0A3E529F02280
:060AC000900078EFF02227
:100643004100000A4100290A41006D0A040E00001E
:1006530000000114004600670000FFFF8FFFC10D7B
:10066300C105C108C101C10E60240005FF000AFFD6
:10067300000AFF000AFF000AFF000AFF000AFF004A
:100683000AFF000AFF000AFF000AFF000AFF000A30
:100693006036002AFF000AFF000AFF0ACCFF000AA7
:1006A300FF0ACCFF000AFF0ACCFF000AFF000AFF83
:1006B300000AFF0ACCFF0ACCFF0ACCFF0ACCFF00DA
:0A06C3000AFF000AFF000AFF000A08
:01000A0022D3
:030ACC007F002286
:10090700438E805389F07BE07A2879017800900A3A
:100917000F12010412094EEFF404F58A7BE07A28DE
:1009270079017800900A0F12010412094EC3E49F5F
:10093700FFE49EFE74019DFDE49CFC78081200F024
:070947008F8CD28CD2A92293
:03000B000208B533
:0408B500C0E0C0D00F
:1008B900D5080A75084C300D020514D20DA2037231
:1008C900045036150AE50A7030850C0AD207300A39
:1008D90017E50D6007150D438F01801D538FFEC26B
:1008E900B5D51615C20A8011050BE50BD394064040
:0908F90008C203E5136002D206F7
:05090200D0D0D0E0326E
:10086200300E47C20E900A0F12010478101200F0E7
:100872008E1A8F1B900003E0FEA3E0FFE4FCFD7BD9
:1008820019FAF9F81200A1C006C007AE1AAF1BABE5
:1008920007AA06E4F9F8D007D00612094E78031227
:1008A20000F0900065EEF0A3EFF0900065E0FEA38B
:0208B200E0FF65
:0108B4002221
:090AAE00900067E0FEA3E0FF22C6
:090AB700900067EEF0A3EFF022BD
:100A940090006BEEF0A3EFF0900069ECF0A3EDF0A2
:010AA400222F
:030ACF00C2B4228C
:03003B00020505B6
:10050500C0E0C083C082C0D075D000C004C005C0A3
:0305150006C00716
:1005180030DF04C2DF807D30DA04C2DA807630D979
:100528003DC2D9AFFBEFFEADEB7C00E42DFFEC3E06
:1005380020000E900001F0A3EFF075DB11D20080CF
:1005480053FE900001E0FCA3E0FDC3EF9DFFEE9C8D
:10055800A3F0A3EFF075DB00C200D20E803630D8CE
:1005680033C2D8900067E07002A3E06022B2B49072
:100578000069E0FEA3E0F5EAEEF5FAA3E0FEA3E0E9
:10058800FF90006AE02FF0900069E03EF08005C21D
:04059800B453DAFE80
:10059C00D007D006D005D004D0D0D082D083D0E004
:0105AC00321C
:060AC600120907D2AF2265
:10075A003004047F0180027F00200A047E018002A7
:10076A007E00EE5F6074E515C39509506830023665
:10077A00750D01E515131313541FAB17AA18A91900
:10078A00F58275830012003EFFE515540704FEEF5B
:10079A00A806088002C333D8FC30D7057516038033
:1007AA002F751601802AAB17AA18A91975F002E548
:1007BA0015A4F58285F08312003EF50DE51575F056
:1007CA0002A429F9EA35F0FA90000112003EF51662
:0A07DA000515D20A22C204438F1055
:0107E40022F2
:10024900900000E014F0701F740AF0D205900029A4
:10025900E014F07012740AF0D20890006DE014F006
:100269007005740AF0D20190002AA3E0FAA3E0F91C
:1002790012012090002DA3E0FAA3E0F912012090C9
:100289000039A3E0FAA3E0F9120120900045A3E0A8
:10029900FAA3E0F9120120900054A3E0FAA3E0F9CF
:1002A90012012090005DA3E0FAA3E0F91201209069
:1002B900004BA3E0FAA3E0F9120120EF600C9000D3
:1002C9001DA3E0FAA3E0F912012090004EA3E0FA81
:1002D900A3E0F9120120EF600E900020A3E0FAA339
:1002E900E0F9120120D20BE512D394004016D51281
:1002F9003030090C900023A3E0FAA3E0F9120120A1
:10030900D20C801D900051A3E0FAA3E0F91201205C
:10031900EF600E900023A3E0FAA3E0F9120120D2C6
:0D0329000C900005A3E0FAA3E0F90201200A
:1005AD0090003FA3E0FAA3E0F9120120900042A3CE
:1005BD00E0FAA3E0F9120120900033A3E0FAA3E0E2
:1005CD00F9120120900008A3E0FAA3E0F91201202E
:1005DD00900030A3E0FAA3E0F9120120EF600C9037
:1005ED000011A3E0FAA3E0F9120120900036A3E078
:1005FD00FAA3E0F9120120EF600C900017A3E0FAC6
:10060D00A3E0F9120120900048A3E0FAA3E0F9124B
:10061D000120EF600C90001AA3E0FAA3E0F912019B
:10062D002030060EC206900026A3E0FAA3E0F912D0
:03063D0001202277
:1009920090000BA3E0FAA3E0F912012090003CA31F
:1009A200E0FAA3E0F9120120EF600C900014A3E03A
:1009B200FAA3E0F9120120900057A3E0FAA3E0F9AC
:0F09C20012012090005AA3E0FAA3E0F9020120ED
:10000E00AF11AE10AD0FAC0E900060120114900047
:10001E0064E514F0E4F511F510F50FF50EF51490F6
:0B002E00000EA3E0FAA3E0F90201209D
:1009D100300705C20712075A300D05C20D12024930
:1009E100300505C2051205AD300805C2081209928D
:1009F100300105C20112000EE5112401F511E435A3
:0E0A010010F510E4350FF50FE4350EF50E225A
:1007E5008B228A238924EFB40C0050709007F8F807
:1007F50028287302081C02082102082602082B0279
:10080500083002083502083A02083F020844020887
:100815004902084E02085390000580359000088073
:100825003090000B802B90000E80269000118021C7
:10083500900017801C900014801790001A80129069
:10084500001D800D900020800890002380039000FB
:0D08550026E522F0A3E523F0A3E524F02220
:070003007B017A0079602205
:030000000206CE27
:0C06CE00787FE4F6D8FD7581290207153D
:10003E00BB010CE58229F582E5833AF583E0225077
:10004E0006E92582F8E622BBFE06E92582F8E222C1
:0D005E00E58229F582E5833AF583E49322DB
:10006B00C2D5EC30E709B2D5E4C39DFDE49CFCEEB0
:10007B0030E715B2D5E4C39FFFE49EFE120126C301
:10008B00E49DFDE49CFC800312012630D507C3E4FC
:06009B009FFFE49EFE221F
:1000A100E88FF0A4CC8BF0A42CFCE98EF0A42CFCFE
:1000B1008AF0EDA42CFCEA8EF0A4CDA8F08BF0A47C
:1000C1002DCC3825F0FDE98FF0A42CCD35F0FCEBDB
:1000D1008EF0A4FEA9F0EB8FF0A4CFC5F02ECD39A0
:0F00E100FEE43CFCEAA42DCE35F0FDE43CFC220D
:10094E00C2D5E830E70FB2D5E4C39BFBE49AFAE4D4
:10095E0099F9E498F8EC30E717B2D5120984120130
:10096E00B7E4C39BFBE49AFAE499F9E498F88003A0
:10097E001201B730D50DE4C39FFFE49EFEE49DFD4A
:04098E00E49CFC22C7
:1000F000E86010ECA2E713FCED13FDEE13FEEF1326
:04010000FFD8F02212
:10010400E493FC740193FD740293FE740393FF2241
:0C011400ECF0A3EDF0A3EEF0A3EFF0225E
:060120008A838982E4736A
:1006DA00020A37E493A3F8E493A34003F68001F2F5
:1006EA0008DFF48029E493A3F85407240CC8C33321
:1006FA00C4540F4420C8834004F456800146F6DFF0
:10070A00E4800B0102040810204080900640E47E39
:10071A00019360BCA3FF543F30E509541FFEE493E4
:10072A00A360010ECF54C025E060A840B8E493A3AB
:10073A00FAE493A3F8E493A3C8C582C8CAC583CAD6
:10074A00F0A3C8C582C8CAC583CADFE9DEE780BE8E
:0106CD00002C
:10012600BC000BBE0029EF8DF084FFADF022E4CCBD
:10013600F875F008EF2FFFEE33FEEC33FCEE9DEC86
:10014600984005FCEE9DFE0FD5F0E9E4CEFD22EDCC
:10015600F8F5F0EE8420D21CFEADF075F008EF2F16
:10016600FFED33FD4007985006D5F0F222C398FD07
:050176000FD5F0EA22A4
:10017B0075F008758200EF2FFFEE33FECD33CDCC3B
:10018B0033CCC58233C5829BED9AEC99E5829840BE
:10019B000CF582EE9BFEED9AFDEC99FC0FD5F0D69B
:1001AB00E4CEFBE4CDFAE4CCF9A88222B800C1B9C5
:1001BB000059BA002DEC8BF084CFCECDFCE5F0CB03
:1001CB00F97818EF2FFFEE33FEED33FDEC33FCEB3C
:1001DB0033FB10D703994004EB99FB0FD8E5E4F9F7
:1001EB00FA227818EF2FFFEE33FEED33FDEC33FCE4
:1001FB00C933C910D7059BE99A4007EC9BFCE99AD8
:10020B00F90FD8E0E4C9FAE4CCFB2275F010EF2F1C
:10021B00FFEE33FEED33FDCC33CCC833C810D7071C
:10022B009BEC9AE899400AED9BFDEC9AFCE899F857
:0E023B000FD5F0DAE4CDFBE4CCFAE4C8F922EA
:00000001FF
