:100D1E0000A8C0003F065B4F666D7D077F6F000821
:0E0D2E0040014148BF86DBCFE6EDFD87FFEFB9
:1008C200120003E92406F9E43AFA1200C0F523857E
:1008D200F022AE22FF7C007D6412006BAB07AE22D9
:1008E200AF237C007D0A12006B7C007D0A12006B34
:1008F2008D2A8B29E4F527F528AE22AF23FC7D0A49
:1009020012006B8D2BE4FBFDFF120CFEE4FF120DB7
:100912009AC3E5239414E5229400500A7DC87C0012
:100922007FB07E048013D3E5239464E522940040D3
:0C0932000B7DC87C007FD07E071209BC42
:01093E002296
:100C270012000E7F9B120C5A7D07E4FF120D72E42F
:100C3700F527F528F529F52AF52BFBFDFF120CFE04
:100C47007BFF7A0879C27F0212093F120DA0120BAF
:030C5700E980FB36
:090D69008B88898C88898F8889A8
:1006740052007A86860086860086860086860086F4
:09068400860086860041006F0922
:03002B00020D942F
:060D940053BCEFD20F3248
:02024A00151E7F
:10024C00200F030203F3C20F90006EE0B4090040CC
:10025C00030203D5900267F82828730202AE02024B
:10026C00820202940202C00202820202940202D7AB
:10027C00020282020294AFBDEFFEADBE7C00E42D03
:10028C00FFEC3E900070803CAFBDEFFEADBE7C003D
:10029C00E42DFFEC3E900072F0A3EFF0751A010212
:1002AC0003DBAFBDEFFEADBE7C00E42DFFEC3E905A
:1002BC0000748010AFBDEFFEADBE7C00E42DFFECF2
:1002CC003E900076F0A3EFF00203DBAFBDEFFEAD86
:1002DC00BE7C00E42DFFEC3E900078F0A3EFF09094
:1002EC000078E0FEA3E07807CEC313CE13D8F9A8AC
:1002FC001EF6C394065013A81EE675F003A4247AC8
:10030C00F582E43400F583E014F090006FE014F013
:10031C0060030203DB7409F0A81EE4F6A81EE6FFD6
:10032C00C3940640030203DBEF75F003A4247AF5B3
:10033C0082E43400F583E0C39480502AE6FF75F024
:10034C0003A4247BF582E43400F583E0D39480404D
:10035C0040EF75F003A4247CF582E43400F583743B
:10036C0001F0F51B802BA81EE6FF75F003A4247B7F
:10037C00F582E43400F583E0C394805014EF75F0FB
:10038C0003A4247CF582E43400F5837402F0751B1D
:10039C0001A81EE6FF75F003A4247AF582E434006C
:1003AC00F583E0FEEF75F003A4247BF582E43400C2
:1003BC00F583EEF0E675F003A4247AF582E43400BC
:1003CC00F5837486F00602032890006E74FFF0909B
:1003DC00006EE0D39407400374FFF090006EE004CD
:0703EC00F0900D6993F5BCD0
:0303F300051E22C2
:020D4D00151E71
:090D4F00A81EA61BE4F51BE6FF3B
:030D5800051E2253
:020D5B00151E63
:090D5D00A81EA61AE4F51AE6FF2F
:030D6600051E2245
:100C5A008F9D75BC88439720D2AD90004574FFF0F4
:100C6A00A37402F0A3744AF0A374FFF0A3740DF006
:100C7A00A3744DF0A374FFF0A3740DF0A3745BF09A
:010C8A002247
:070003007B017A00797022F5
:100B2000C3EF64809480403BD3EF6480948550335E
:100B3000EFFD3395E0FC90007C75F003ED12023878
:100B4000EC75F003A42583F583E0FE90007C75F03E
:100B500003ED120238EC75F003A42583F583E4F06D
:050B6000AF06227F0337
:010B6500226D
:040CB600151E151ED4
:100CBA00120D7BA81EA60608A607A81EE6FE08E6D1
:0F0CCA00FF4E600BEF24FFFFEE34FFFE120D8490
:050CD900051E051E22AE
:100CDE0053B1EF43B210120DA9E4F5D975DA49D22A
:100CEE00DE90003F74FFF0A3740CF0A374B6F022F4
:0809BC008E248F258C268D2767
:1009C400120D7BEF4E7066AF27AE26120D84C3E581
:1009D40025940AE5249400404BE47B18FAF9F89036
:1009E4000D1E12021C120176C006C007AE24AF25EC
:1009F400AB07AA06E4F9F8D007D006120176AB07D4
:100A0400AA06AFF9EFFEADE97C00E42DFFEC3ECF82
:100A14002BCF3AAD07FCAF03AE02120D3CD2D84344
:0F0A2400DA018006120DA953DAFE7F02227F034A
:010A330022A0
:0C002E00120D7BEF4E7002FF227F0122BA
:1004E300E4F580900097E0FFB40800505F9004F7B4
:1004F300F828287302050F02051502051B020521C2
:1005030002052702053102053B020545C2A3C2A22B
:100513008016C2A3C2A2801AC2A3C2A2801EC2A313
:10052300C2A28022C2A3D2A2C2A1C2A08020C2A31F
:10053300D2A2C2A1D2A08016C2A3D2A2D2A1C2A02B
:10054300800CC2A3D2A2D2A1D2A08002D2A3C3EFB5
:10055300648094885029900097E0FF3395E0FE74FF
:100563008E2FF58274003EF583E0FF3395E0FE7431
:10057300222FF582740D3EF583E493F580801E905F
:100583000097E0FFB408133395E0FE748E2FF582D5
:1005930074003EF583E0F5808003E4F58090008DE0
:1005A300E0FF900097E004FEF0D3EF6480F8EE6480
:1005B30080984014E0D36480948850047408F02237
:0905C30090008CE0900097F022FA
:10000E00E4F5937594FF5395F043960F90002A7480
:0B001E00FFF0A37404F0A374E3F022D1
:090D720090008CEFF0A3EDF022DB
:100CFE0090008EEFF0A3EDF0A3EBF0A3E527F0A3A9
:100D0E00E528F0A3E529F0A3E52AF0A3E52BF022D0
:060D9A00900096EFF0222C
:10068D004100000A4100290A41006D0A040E0000D4
:10069D0000000114004600670000FFFF8FFFC10D31
:1006AD00C105C108C101C10E60240005FF000AFF8C
:1006BD00000AFF000AFF000AFF000AFF000AFF0000
:1006CD000AFF000AFF000AFF000AFF000AFF000AE6
:1006DD006036002AFF000AFF000AFF0DA6FF000A80
:1006ED00FF0DA6FF000AFF0DA6FF000AFF000AFF7F
:1006FD00000AFF0DA6FF0DA6FF0DA6FF0DA6FF001C
:0A070D000AFF000AFF000AFF000ABD
:01000A0022D3
:030DA6007F0022A9
:100AD900438E805389F07BE07A2879017800900D64
:100AE9001E12021C120B66EFF404F58A7BE07A28C9
:100AF90079017800900D1E12021C120B66C3E49F47
:100B0900FFE49EFE74019DFDE49CFC780812020836
:070B19008F8CD28CD2A922BF
:03000B00020A875F
:040A8700C0E0C0D03B
:100A8B00D5080A75084C300D020514D20DA203725D
:100A9B00045036150AE50A7030850C0AD207300A65
:100AAB0017E50D6007150D438F01801D538FFEC297
:100ABB00B5D51615C20A8011050BE50BD39406406C
:090ACB0008C203E5136002D20623
:050AD400D0D0D0E0329B
:100A3400300E47C20E900D1E12021C7810120208CE
:100A44008E1C8F1D900003E0FEA3E0FFE4FCFD7B01
:100A540019FAF9F81200EBC006C007AE1CAF1DABC3
:100A640007AA06E4F9F8D007D006120B6678031239
:100A74000208900065EEF0A3EFF0900065E0FEA39D
:020A8400E0FF91
:010A8600224D
:090D7B00900067E0FEA3E0FF22F6
:090D8400900067EEF0A3EFF022ED
:100D3C0090006BEEF0A3EFF0900069ECF0A3EDF0F7
:010D4C002284
:030DA900C2B422AF
:03003B000205CCEF
:1005CC00C0E0C083C082C0D075D000C004C005C0DC
:0305DC0006C0074F
:1005DF0030DF04C2DF807D30DA04C2DA807630D9B2
:1005EF003DC2D9AFFBEFFEADEB7C00E42DFFEC3E3F
:1005FF0020000E900001F0A3EFF075DB11D2008008
:10060F0053FE900001E0FCA3E0FDC3EF9DFFEE9CC5
:10061F00A3F0A3EFF075DB00C200D20E803630D806
:10062F0033C2D8900067E07002A3E06022B2B490AA
:10063F000069E0FEA3E0F5EAEEF5FAA3E0FEA3E021
:10064F00FF90006AE02FF0900069E03EF08005C255
:04065F00B453DAFEB8
:10066300D007D006D005D004D0D0D082D083D0E03C
:010673003254
:060DA000120AD9D2AF22B5
:100837003004047F0180027F00200A047E018002C9
:100847007E00EE5F6074E515C39509506830023687
:10085700750D01E515131313541FAB17AA18A91922
:10086700F58275830012003EFFE515540704FEEF7D
:10087700A806088002C333D8FC30D7057516038055
:100887002F751601802AAB17AA18A91975F002E56A
:1008970015A4F58285F08312003EF50DE51575F078
:1008A70002A429F9EA35F0FA90000112003EF51684
:0A08B7000515D20A22C204438F1077
:0108C1002214
:1003F600900000E014F0701F740AF0D205900029F6
:10040600E014F07012740AF0D20890006DE014F057
:100416007005740AF0D20190002AA3E0FAA3E0F96D
:1004260012024490002DA3E0FAA3E0F912024490D0
:100436000039A3E0FAA3E0F9120244900045A3E0D4
:10044600FAA3E0F9120244900054A3E0FAA3E0F9FB
:1004560012024490005DA3E0FAA3E0F91202449070
:10046600004BA3E0FAA3E0F9120244EF600C9000FF
:100476001DA3E0FAA3E0F912024490004EA3E0FAAD
:10048600A3E0F9120244EF600E900020A3E0FAA365
:10049600E0F9120244D20BE512D394004016D512AD
:1004A6003030090C900023A3E0FAA3E0F9120244CD
:1004B600D20C801D900051A3E0FAA3E0F912024489
:1004C600EF600E900023A3E0FAA3E0F9120244D2F3
:0D04D6000C900005A3E0FAA3E0F902024437
:1007180090003FA3E0FAA3E0F9120244900042A33C
:10072800E0FAA3E0F9120244900033A3E0FAA3E050
:10073800F9120244900008A3E0FAA3E0F912024477
:10074800900030A3E0FAA3E0F9120244EF600C90A5
:100758000011A3E0FAA3E0F9120244900036A3E0E6
:10076800FAA3E0F9120244EF600C900017A3E0FA34
:10077800A3E0F9120244900048A3E0FAA3E0F912BA
:100788000244EF600C90001AA3E0FAA3E0F9120209
:100798004430060EC206900026A3E0FAA3E0F91240
:0307A800024422E6
:100BAA0090000BA3E0FAA3E0F912024490003CA3E0
:100BBA00E0FAA3E0F9120244EF600C900014A3E0FB
:100BCA00FAA3E0F9120244900057A3E0FAA3E0F96D
:0F0BDA0012024490005AA3E0FAA3E0F902024489
:100C8B00AF11AE10AD0FAC0E90006012022C9000A5
:100C9B0064E514F0E4F511F510F50FF50EF514906D
:0B0CAB00000EA3E0FAA3E0F9020244EF
:100BE900300705C207120837300D05C20D1203F68A
:100BF900300505C205120718300805C208120BAAEC
:100C0900300105C201120C8BE5112401F511E435FF
:0E0C190010F510E4350FF50FE4350EF50E2240
:10093F008B228A238924EFB40C005070900952F84F
:10094F0028287302097602097B02098002098502B1
:10095F00098A02098F02099402099902099E020964
:10096F00A30209A80209AD90000580359000088008
:10097F003090000B802B90000E802690001180216C
:10098F00900017801C900014801790001A8012900E
:10099F00001D800D900020800890002380039000A0
:0D09AF0026E522F0A3E523F0A3E524F022C5
:070D8D007B017A007960226E
:030000000207AB49
:0C07AB00787FE4F6D8FD75812B0207F280
:10003E00BB010CE58229F582E5833AF583E0225077
:10004E0006E92582F8E622BBFE06E92582F8E222C1
:0D005E00E58229F582E5833AF583E49322DB
:10006B00BC000BBE0029EF8DF084FFADF022E4CC79
:10007B00F875F008EF2FFFEE33FEEC33FCEE9DEC42
:10008B00984005FCEE9DFE0FD5F0E9E4CEFD22ED88
:10009B00F8F5F0EE8420D21CFEADF075F008EF2FD2
:1000AB00FFED33FD4007985006D5F0F222C398FDC3
:0500BB000FD5F0EA2260
:1000C000BB010A89828A83E0F5F0A3E0225006870B
:1000D000F009E71922BBFE07E3F5F009E3192289CD
:0B00E000828A83E493F5F07401932200
:1000EB00E88FF0A4CC8BF0A42CFCE98EF0A42CFCB4
:1000FB008AF0EDA42CFCEA8EF0A4CDA8F08BF0A432
:10010B002DCC3825F0FDE98FF0A42CCD35F0FCEB90
:10011B008EF0A4FEA9F0EB8FF0A4CFC5F02ECD3955
:0F012B00FEE43CFCEAA42DCE35F0FDE43CFC22C2
:10013A0075F008758200EF2FFFEE33FECD33CDCC7C
:10014A0033CCC58233C5829BED9AEC99E5829840FF
:10015A000CF582EE9BFEED9AFDEC99FC0FD5F0D6DC
:10016A00E4CEFBE4CDFAE4CCF9A88222B800C1B906
:10017A000059BA002DEC8BF084CFCECDFCE5F0CB44
:10018A00F97818EF2FFFEE33FEED33FDEC33FCEB7D
:10019A0033FB10D703994004EB99FB0FD8E5E4F938
:1001AA00FA227818EF2FFFEE33FEED33FDEC33FC25
:1001BA00C933C910D7059BE99A4007EC9BFCE99A19
:1001CA00F90FD8E0E4C9FAE4CCFB2275F010EF2F5E
:1001DA00FFEE33FEED33FDCC33CCC833C810D7075E
:1001EA009BEC9AE899400AED9BFDEC9AFCE899F899
:0E01FA000FD5F0DAE4CDFBE4CCFAE4C8F9222C
:100B6600C2D5E830E70FB2D5E4C39BFBE49AFAE4BA
:100B760099F9E498F8EC30E717B2D5120B9C1201FC
:100B860076E4C39BFBE49AFAE499F9E498F88003C7
:100B960012017630D50DE4C39FFFE49EFEE49DFD71
:040BA600E49CFC22AD
:10020800E86010ECA2E713FCED13FDEE13FEEF130C
:04021800FFD8F022F9
:10021C00E493FC740193FD740293FE740393FF2228
:0C022C00ECF0A3EDF0A3EEF0A3EFF02245
:0C023800A42582F582E5F03583F58322D1
:060244008A838982E47345
:1007B700020C27E493A3F8E493A34003F68001F225
:1007C70008DFF48029E493A3F85407240CC8C33343
:1007D700C4540F4420C8834004F456800146F6DF12
:1007E700E4800B0102040810204080900674E47E28
:1007F700019360BCA3FF543F30E509541FFEE49307
:10080700A360010ECF54C025E060A840B8E493A3CD
:10081700FAE493A3F8E493A3C8C582C8CAC583CAF8
:10082700F0A3C8C582C8CAC583CADFE9DEE780BEB0
:0107170000E1
:00000001FF
