:100B3C0000A8C0003F065B4F666D7D077F6F000805
:0E0B4C0040014148BF86DBCFE6EDFD87FFEF9D
:0405C000021A138880
:100AFB00E4FF120A0EBF0108051BE51B7002051A65
:100B0B007F01120A0EBF0108E51B151B7002151A97
:010B1B0022B7
:10088900AE1AAF1B7C037DE812006B7C007D0A1257
:10089900006BAB05AE1AAF1B7C007D6412006B7C4C
:1008A900007D0A12006BAA05AE1AAF1B7C007D0AF7
:1008B90012006B7C007D0A12006B8D268A25AE1A08
:1008C900AF1B7C007D0A12006B8D27E4F528F52902
:0508D900FDFF020B1CF5
:100ACB00120B77120B5A7D057F02120BB1E4FF124A
:100ADB000BCC7BFF7A0879897F0112080C7BFF7A9C
:100AEB000A79FB7F0412080C120BD2120A8D80FBC1
:10042F00E4F580900079E0FFB40800505F9004433A
:10043F00F828287302045B02046102046702046D4A
:10044F0002047302047D020487020491C2A3C2A2B4
:10045F008016C2A3C2A2801AC2A3C2A2801EC2A3C8
:10046F00C2A28022C2A3D2A2C2A1C2A08020C2A3D4
:10047F00D2A2C2A1D2A08016C2A3D2A2D2A1C2A0E0
:10048F00800CC2A3D2A2D2A1D2A08002D2A3C3EF6A
:10049F00648094885029900079E0FF3395E0FE74D2
:1004AF00702FF58274003EF583E0FF3395E0FE7404
:1004BF00402FF582740B3EF583E493F580801E90F8
:1004CF000079E0FFB408133395E0FE74702FF582C6
:1004DF0074003EF583E0F5808003E4F58090006FB3
:1004EF00E0FF900079E004FEF0D3EF6480F8EE6453
:1004FF0080984014E0D36480948850047408F022EC
:09050F0090006EE0900079F022EA
:100B7700E4F5937594FF5395F043960F90002A740C
:0B0B8700FFF0A37404F0A3742FF02211
:090BB10090006EEFF0A3EDF022BC
:100B1C00900070EFF0A3EDF0A3EBF0A3E525F0A3AC
:100B2C00E526F0A3E527F0A3E528F0A3E529F022BC
:060BCC00900078EFF0221A
:1005C400011E0049007B949400949400949400418B
:0305D400007A1E8C
:02021F00151FA9
:1002210020B20690007BE014F020B30690007EE03F
:1002310014F0209706900081E014F090007AE01409
:10024100F0600302033F741EF0A81FE4F6A81FE646
:10025100FFC364809483400302033FEF3395E0FEC4
:1002610090007B75F003EF12013FEE75F003A425BA
:1002710083F583E0C39480503990007C75F003EFDF
:1002810012013FEE75F003A42583F583E0D394803A
:10029100405AE6FF3395E0FE90007D75F003EF12C2
:1002A100013FEE75F003A42583F5837401F0F51E7B
:1002B100803AA81FE6FF3395E0FE90007C75F003BD
:1002C100EF12013FEE75F003A42583F583E0C3949B
:1002D10080501990007D75F003EF12013FEE75F02B
:1002E10003A42583F5837402F0751E01A81FE6FFA0
:1002F100FD3395E0FC90007B75F003ED12013FECBE
:1003010075F003A42583F583E0FE90007C75F0036E
:10031100ED12013FEC75F003A42583F583EEF0EFB8
:100321003395E0FE90007B75F003EF12013FEE750F
:0E033100F003A42583F5837494F00602024EB7
:03033F00051F2275
:020BA300151F1C
:090BA500A81FA61EE4F51EE6FFE0
:030BAE00051F22FE
:100B5A0090003074FFF0A3740BF0A374A3F090001C
:0D0B6A002D74FFF0A37402F0A3741FF0229D
:100A0E00EF600764016003BF0233EFFD3395E0FC36
:100A1E0090007D75F003ED12013FEC75F003A425F7
:100A2E0083F583E0FE90007D75F003ED12013FEC3F
:0F0A3E0075F003A42583F583E4F0AF06227F0350
:010A4D002286
:1005D7004100000A4100290A41006D0A040E00008B
:1005E70000000114004600670000FFFF8FFFC10DE8
:1005F700C105C108C101C10E60240005FF000AFF43
:10060700000AFF000AFF000AFF000AFF000AFF00B6
:100617000AFF000AFF000AFF000AFF000AFF000A9C
:100627006036002AFF000AFF000AFF0BD8FF000A06
:10063700FF0BD8FF000AFF0BD8FF000AFF000AFFD5
:10064700000AFF0BD8FF0BD8FF0BD8FF0BD8FF0012
:0A0657000AFF000AFF000AFF000A74
:01000A0022D3
:030BD8007F002279
:10098300438E805389F07BE07A2879017800900BBD
:100993003C1201231209CAEFF404F58A7BE07A289A
:1009A30079017800900B3C1201231209CAC3E49F1A
:1009B300FFE49EFE74019DFDE49CFC780812010F88
:0709C3008F8CD28CD2A92217
:03000B00020931B6
:04093100C0E0C0D092
:10093500D5080A75084C300D020514D20DA20372B4
:10094500045036150AE50A7030850C0AD207300ABC
:1009550017E50D6007150D438F01801D538FFEC2EE
:10096500B5D51615C20A8011050BE50BD3940640C3
:0909750008C203E5136002D2067A
:05097E00D0D0D0E032F2
:1008DE00300E47C20E900B3C120123781012010FFE
:1008EE008E1C8F1D900003E0FEA3E0FFE4FCFD7B59
:1008FE0019FAF9F81200C0C006C007AE1CAF1DAB46
:10090E0007AA06E4F9F8D007D0061209CA7803122E
:10091E00010F900065EEF0A3EFF0900065E0FEA3EE
:02092E00E0FFE8
:0109300022A4
:090BBA00900067E0FEA3E0FF22B9
:090BC300900067EEF0A3EFF022B0
:100B920090006BEEF0A3EFF0900069ECF0A3EDF0A3
:010BA2002230
:030BDB00C2B4227F
:03003B00020518A3
:10051800C0E0C083C082C0D075D000C004C005C090
:0305280006C00703
:10052B0030DF04C2DF807D30DA04C2DA807630D966
:10053B003DC2D9AFFBEFFEADEB7C00E42DFFEC3EF3
:10054B0020000E900001F0A3EFF075DB11D20080BC
:10055B0053FE900001E0FCA3E0FDC3EF9DFFEE9C7A
:10056B00A3F0A3EFF075DB00C200D20E803630D8BB
:10057B0033C2D8900067E07002A3E06022B2B4905F
:10058B000069E0FEA3E0F5EAEEF5FAA3E0FEA3E0D6
:10059B00FF90006AE02FF0900069E03EF08005C20A
:0405AB00B453DAFE6D
:1005AF00D007D006D005D004D0D0D082D083D0E0F1
:0105BF003209
:060BD200120983D2AF22DC
:100781003004047F0180027F00200A047E01800280
:100791007E00EE5F6074E515C3950950683002363E
:1007A100750D01E515131313541FAB17AA18A919D9
:1007B100F58275830012003EFFE515540704FEEF34
:1007C100A806088002C333D8FC30D705751603800C
:1007D1002F751601802AAB17AA18A91975F002E521
:1007E10015A4F58285F08312003EF50DE51575F02F
:1007F10002A429F9EA35F0FA90000112003EF5163B
:0A0801000515D20A22C204438F102D
:01080B0022CA
:10034200900000E014F0701F740AF0D205900029AA
:10035200E014F07012740AF0D20890006DE014F00C
:100362007005740AF0D20190002AA3E0FAA3E0F922
:1003720012014B90002DA3E0FAA3E0F912014B9079
:100382000039A3E0FAA3E0F912014B900045A3E083
:10039200FAA3E0F912014B900054A3E0FAA3E0F9AA
:1003A20012014B90005DA3E0FAA3E0F912014B9019
:1003B200004BA3E0FAA3E0F912014BEF600C9000AE
:1003C2001DA3E0FAA3E0F912014B90004EA3E0FA5C
:1003D200A3E0F912014BEF600E900020A3E0FAA314
:1003E200E0F912014BD20BE512D394004016D5125C
:1003F2003030090C900023A3E0FAA3E0F912014B7C
:10040200D20C801D900051A3E0FAA3E0F912014B37
:10041200EF600E900023A3E0FAA3E0F912014BD2A1
:0D0422000C900005A3E0FAA3E0F902014BE5
:1006620090003FA3E0FAA3E0F912014B900042A3ED
:10067200E0FAA3E0F912014B900033A3E0FAA3E001
:10068200F912014B900008A3E0FAA3E0F912014B22
:10069200900030A3E0FAA3E0F912014BEF600C9056
:1006A2000011A3E0FAA3E0F912014B900036A3E097
:1006B200FAA3E0F912014BEF600C900017A3E0FAE5
:1006C200A3E0F912014B900048A3E0FAA3E0F9126B
:1006D200014BEF600C90001AA3E0FAA3E0F91201BB
:1006E2004B30060EC206900026A3E0FAA3E0F912F0
:0306F200014B2297
:100A4E0090000BA3E0FAA3E0F912014B90003CA337
:100A5E00E0FAA3E0F912014BEF600C900014A3E052
:100A6E00FAA3E0F912014B900057A3E0FAA3E0F9C4
:0F0A7E0012014B90005AA3E0FAA3E0F902014BDA
:10000E00AF11AE10AD0FAC0E900060120133900028
:10001E0064E514F0E4F511F510F50FF50EF51490F6
:0B002E00000EA3E0FAA3E0F902014B72
:100A8D00300705C207120781300D05C20D12034252
:100A9D00300505C205120662300805C208120A4E5D
:100AAD00300105C20112000EE5112401F511E435E6
:0E0ABD0010F510E4350FF50FE4350EF50E229E
:10080C008B228A238924EFB40C00507090081FF8B7
:10081C0028287302084302084802084D02085202B5
:10082C00085702085C02086102086602086B02089D
:10083C007002087502087A900005803590000880D7
:10084C003090000B802B90000E80269000118021A0
:10085C00900017801C900014801790001A80129042
:10086C00001D800D900020800890002380039000D4
:0D087C0026E522F0A3E523F0A3E524F022F9
:070003007B017A0079602205
:030000000206F500
:0C06F500787FE4F6D8FD75812902073CEF
:10003E00BB010CE58229F582E5833AF583E0225077
:10004E0006E92582F8E622BBFE06E92582F8E222C1
:0D005E00E58229F582E5833AF583E49322DB
:10006B00BC000BBE0029EF8DF084FFADF022E4CC79
:10007B00F875F008EF2FFFEE33FEEC33FCEE9DEC42
:10008B00984005FCEE9DFE0FD5F0E9E4CEFD22ED88
:10009B00F8F5F0EE8420D21CFEADF075F008EF2FD2
:1000AB00FFED33FD4007985006D5F0F222C398FDC3
:0500BB000FD5F0EA2260
:1000C000E88FF0A4CC8BF0A42CFCE98EF0A42CFCDF
:1000D0008AF0EDA42CFCEA8EF0A4CDA8F08BF0A45D
:1000E0002DCC3825F0FDE98FF0A42CCD35F0FCEBBC
:1000F0008EF0A4FEA9F0EB8FF0A4CFC5F02ECD3981
:0F010000FEE43CFCEAA42DCE35F0FDE43CFC22ED
:1009CA00C2D5E830E70FB2D5E4C39BFBE49AFAE458
:1009DA0099F9E498F8EC30E717B2D5120A00120137
:1009EA008DE4C39BFBE49AFAE499F9E498F880034E
:1009FA0012018D30D50DE4C39FFFE49EFEE49DFDF8
:040A0A00E49CFC224A
:10010F00E86010ECA2E713FCED13FDEE13FEEF1306
:04011F00FFD8F022F3
:10012300E493FC740193FD740293FE740393FF2222
:0C013300ECF0A3EDF0A3EEF0A3EFF0223F
:0C013F00A42582F582E5F03583F58322CB
:06014B008A838982E4733F
:10070100020ACBE493A3F8E493A34003F68001F239
:1007110008DFF48029E493A3F85407240CC8C333F9
:10072100C4540F4420C8834004F456800146F6DFC8
:10073100E4800B01020408102040809005C0E47E93
:10074100019360BCA3FF543F30E509541FFEE493BD
:10075100A360010ECF54C025E060A840B8E493A384
:10076100FAE493A3F8E493A3C8C582C8CAC583CAAF
:10077100F0A3C8C582C8CAC583CADFE9DEE780BE67
:010661000098
:1001510075F008758200EF2FFFEE33FECD33CDCC65
:1001610033CCC58233C5829BED9AEC99E5829840E8
:100171000CF582EE9BFEED9AFDEC99FC0FD5F0D6C5
:10018100E4CEFBE4CDFAE4CCF9A88222B800C1B9EF
:100191000059BA002DEC8BF084CFCECDFCE5F0CB2D
:1001A100F97818EF2FFFEE33FEED33FDEC33FCEB66
:1001B10033FB10D703994004EB99FB0FD8E5E4F921
:1001C100FA227818EF2FFFEE33FEED33FDEC33FC0E
:1001D100C933C910D7059BE99A4007EC9BFCE99A02
:1001E100F90FD8E0E4C9FAE4CCFB2275F010EF2F47
:1001F100FFEE33FEED33FDCC33CCC833C810D70747
:100201009BEC9AE899400AED9BFDEC9AFCE899F881
:0E0211000FD5F0DAE4CDFBE4CCFAE4C8F92214
:00000001FF
