:100C6A0000A8C0003F065B4F666D7D077F6F0008D6
:0E0C7A0040014148BF86DBCFE6EDFD87FFEF6E
:0405C000021A03E830
:10066200E4FF120B45BF0116C3E51B94A0E51A94E3
:100672000F500B7464251BF51BE4351AF51A7F0223
:10068200120B45BF0117D3E51B9490E51A94014064
:100692000C749C251BF51B74FF351AF51AAE1AAFA4
:1006A2001B7C037DE812006BAB07AE1AAF1B7C000C
:1006B2007D6412006B7C007D0A12006BAA05AE1AE3
:1006C200AF1B7C007D0A12006B7C007D0A12006B5E
:1006D2008D288A278B26E4F525AE1AAF1BFC7D0AEE
:1006E20012006B8D29E4FBFDFF120C4A7D647C0035
:0706F200AF1BAE1A02099DC7
:1008A300120CA5120C88120C2A7BFF7A0679627F40
:1008B300041209207D077F04120CEBAE1AAF1B7CD8
:1008C300037DE812006BAB07AE1AAF1B7C007D649F
:1008D30012006B7C007D0A12006BAA05AE1AAF1BD7
:1008E3007C007D0A12006B7C007D0A12006B8D2850
:1008F3008A278B26E4F525AE1AAF1BFC7D0A12006E
:100903006B8D29E4FBFDFF120C4A7D647C00AF1B59
:0D091300AE1A12099D120D0C120BC480FBD0
:040C0200151F151F86
:100C0600120CF4A81FA60608A607A81FE6FE08E60B
:0F0C1600FF4E600BEF24FFFFEE34FFFE120CFDCC
:050C2500051F051F2260
:100C2A0053B1EF43B210120D15E4F5D975DA49D272
:100C3A00DE90003F74FFF0A3740CF0A37402F0225C
:08099D008E228F238C248D258E
:1009A500120CF4EF4E7066AF25AE24120CFDC3E5B4
:1009B50023940AE5229400404BE47B18FAF9F89059
:1009C5000C6A1201F112014BC006C007AE22AF231B
:1009D500AB07AA06E4F9F8D007D00612014BAB071E
:1009E500AA06AFF9EFFEADE97C00E42DFFEC3ECFA2
:1009F5002BCF3AAD07FCAF03AE02120CC0D2D843E1
:0F0A0500DA018006120D1553DAFE7F02227F03FD
:010A140022BF
:0C0CDF00120CF4EF4E7002FF227F012285
:10042F00E4F580900079E0FFB40800505F9004433A
:10043F00F828287302045B02046102046702046D4A
:10044F0002047302047D020487020491C2A3C2A2B4
:10045F008016C2A3C2A2801AC2A3C2A2801EC2A3C8
:10046F00C2A28022C2A3D2A2C2A1C2A08020C2A3D4
:10047F00D2A2C2A1D2A08016C2A3D2A2D2A1C2A0E0
:10048F00800CC2A3D2A2D2A1D2A08002D2A3C3EF6A
:10049F00648094885029900079E0FF3395E0FE74D2
:1004AF00702FF58274003EF583E0FF3395E0FE7404
:1004BF006E2FF582740C3EF583E493F580801E90C9
:1004CF000079E0FFB408133395E0FE74702FF582C6
:1004DF0074003EF583E0F5808003E4F58090006FB3
:1004EF00E0FF900079E004FEF0D3EF6480F8EE6453
:1004FF0080984014E0D36480948850047408F022EC
:09050F0090006EE0900079F022EA
:100CA500E4F5937594FF5395F043960F90002A74DD
:0B0CB500FFF0A37404F0A3742FF022E2
:090CEB0090006EEFF0A3EDF02281
:100C4A00900070EFF0A3EDF0A3EBF0A3E525F0A37D
:100C5A00E526F0A3E527F0A3E528F0A3E529F0228D
:060D0600900078EFF022DE
:1005C400011E0049007B949400949400949400418B
:0305D400007A1E8C
:02021F00151FA9
:1002210020B20690007BE014F020B30690007EE03F
:1002310014F0209706900081E014F090007AE01409
:10024100F0600302033F741EF0A81FE4F6A81FE646
:10025100FFC364809483400302033FEF3395E0FEC4
:1002610090007B75F003EF12020DEE75F003A425EB
:1002710083F583E0C39480503990007C75F003EFDF
:1002810012020DEE75F003A42583F583E0D394806B
:10029100405AE6FF3395E0FE90007D75F003EF12C2
:1002A100020DEE75F003A42583F5837401F0F51EAC
:1002B100803AA81FE6FF3395E0FE90007C75F003BD
:1002C100EF12020DEE75F003A42583F583E0C394CC
:1002D10080501990007D75F003EF12020DEE75F05C
:1002E10003A42583F5837402F0751E01A81FE6FFA0
:1002F100FD3395E0FC90007B75F003ED12020DECEF
:1003010075F003A42583F583E0FE90007C75F0036E
:10031100ED12020DEC75F003A42583F583EEF0EFE9
:100321003395E0FE90007B75F003EF12020DEE7540
:0E033100F003A42583F5837494F00602024EB7
:03033F00051F2275
:020CD100151FED
:090CD300A81FA61EE4F51EE6FFB1
:030CDC00051F22CF
:100C880090003074FFF0A3740CF0A374D1F09000BE
:0D0C98002D74FFF0A37402F0A3741FF0226E
:100B4500EF600764016003BF0233EFFD3395E0FCFE
:100B550090007D75F003ED12020DEC75F003A425F0
:100B650083F583E0FE90007D75F003ED12020DEC38
:0F0B750075F003A42583F583E4F0AF06227F0318
:010B8400224E
:1005D7004100000A4100290A41006D0A040E00008B
:1005E70000000114004600670000FFFF8FFFC10DE8
:1005F700C105C108C101C10E60240005FF000AFF43
:10060700000AFF000AFF000AFF000AFF000AFF00B6
:100617000AFF000AFF000AFF000AFF000AFF000A9C
:100627006036002AFF000AFF000AFF0D12FF000ACA
:10063700FF0D12FF000AFF0D12FF000AFF000AFF5D
:10064700000AFF0D12FF0D12FF0D12FF0D12FF0022
:0A0657000AFF000AFF000AFF000A74
:01000A0022D3
:030D12007F00223D
:100ABA00438E805389F07BE07A2879017800900C84
:100ACA006A1201F1120B01EFF404F58A7BE07A282D
:100ADA0079017800900C6A1201F1120B01C3E49FAC
:100AEA00FFE49EFE74019DFDE49CFC78081201DD82
:070AFA008F8CD28CD2A922DF
:03000B00020A687E
:040A6800C0E0C0D05A
:100A6C00D5080A75084C300D020514D20DA203727C
:100A7C00045036150AE50A7030850C0AD207300A84
:100A8C0017E50D6007150D438F01801D538FFEC2B6
:100A9C00B5D51615C20A8011050BE50BD39406408B
:090AAC0008C203E5136002D20642
:050AB500D0D0D0E032BA
:100A1500300E47C20E900C6A1201F178101201DDFA
:100A25008E1C8F1D900003E0FEA3E0FFE4FCFD7B20
:100A350019FAF9F81200C0C006C007AE1CAF1DAB0D
:100A450007AA06E4F9F8D007D006120B01780312BD
:100A550001DD900065EEF0A3EFF0900065E0FEA3E8
:020A6500E0FFB0
:010A6700226C
:090CF400900067E0FEA3E0FF227E
:090CFD00900067EEF0A3EFF02275
:100CC00090006BEEF0A3EFF0900069ECF0A3EDF074
:010CD0002201
:030D1500C2B42243
:03003B00020518A3
:10051800C0E0C083C082C0D075D000C004C005C090
:0305280006C00703
:10052B0030DF04C2DF807D30DA04C2DA807630D966
:10053B003DC2D9AFFBEFFEADEB7C00E42DFFEC3EF3
:10054B0020000E900001F0A3EFF075DB11D20080BC
:10055B0053FE900001E0FCA3E0FDC3EF9DFFEE9C7A
:10056B00A3F0A3EFF075DB00C200D20E803630D8BB
:10057B0033C2D8900067E07002A3E06022B2B4905F
:10058B000069E0FEA3E0F5EAEEF5FAA3E0FEA3E0D6
:10059B00FF90006AE02FF0900069E03EF08005C20A
:0405AB00B453DAFE6D
:1005AF00D007D006D005D004D0D0D082D083D0E0F1
:0105BF003209
:060D0C00120ABAD2AF2268
:100818003004047F0180027F00200A047E018002E8
:100828007E00EE5F6074E515C395095068300236A6
:10083800750D01E515131313541FAB17AA18A91941
:10084800F58275830012003EFFE515540704FEEF9C
:10085800A806088002C333D8FC30D7057516038074
:100868002F751601802AAB17AA18A91975F002E589
:1008780015A4F58285F08312003EF50DE51575F097
:1008880002A429F9EA35F0FA90000112003EF516A3
:0A0898000515D20A22C204438F1096
:0108A2002233
:10034200900000E014F0701F740AF0D205900029AA
:10035200E014F07012740AF0D20890006DE014F00C
:100362007005740AF0D20190002AA3E0FAA3E0F922
:1003720012021990002DA3E0FAA3E0F912021990DB
:100382000039A3E0FAA3E0F9120219900045A3E0B4
:10039200FAA3E0F9120219900054A3E0FAA3E0F9DB
:1003A20012021990005DA3E0FAA3E0F9120219907B
:1003B200004BA3E0FAA3E0F9120219EF600C9000DF
:1003C2001DA3E0FAA3E0F912021990004EA3E0FA8D
:1003D200A3E0F9120219EF600E900020A3E0FAA345
:1003E200E0F9120219D20BE512D394004016D5128D
:1003F2003030090C900023A3E0FAA3E0F9120219AD
:10040200D20C801D900051A3E0FAA3E0F912021968
:10041200EF600E900023A3E0FAA3E0F9120219D2D2
:0D0422000C900005A3E0FAA3E0F902021916
:1006F90090003FA3E0FAA3E0F9120219900042A387
:10070900E0FAA3E0F9120219900033A3E0FAA3E09A
:10071900F9120219900008A3E0FAA3E0F9120219EC
:10072900900030A3E0FAA3E0F9120219EF600C90EF
:100739000011A3E0FAA3E0F9120219900036A3E030
:10074900FAA3E0F9120219EF600C900017A3E0FA7E
:10075900A3E0F9120219900048A3E0FAA3E0F91204
:100769000219EF600C90001AA3E0FAA3E0F9120253
:100779001930060EC206900026A3E0FAA3E0F9128A
:0307890002192230
:100B850090000BA3E0FAA3E0F912021990003CA330
:100B9500E0FAA3E0F9120219EF600C900014A3E04B
:100BA500FAA3E0F9120219900057A3E0FAA3E0F9BD
:0F0BB50012021990005AA3E0FAA3E0F902021904
:10000E00AF11AE10AD0FAC0E900060120201900059
:10001E0064E514F0E4F511F510F50FF50EF51490F6
:0B002E00000EA3E0FAA3E0F9020219A3
:100BC400300705C207120818300D05C20D12034282
:100BD400300505C2051206F9300805C208120B8556
:100BE400300105C20112000EE5112401F511E435AE
:0E0BF40010F510E4350FF50FE4350EF50E2266
:100920008B228A238924EFB40C005070900933F88D
:1009300028287302095702095C020961020966024C
:10094000096B02097002097502097A02097F02091E
:100950008402098902098E90000580359000088084
:100960003090000B802B90000E802690001180218B
:10097000900017801C900014801790001A8012902D
:10098000001D800D900020800890002380039000BF
:0D09900026E522F0A3E523F0A3E524F022E4
:070003007B017A0079602205
:0300000002078C68
:0C078C00787FE4F6D8FD7581290207D3C0
:10003E00BB010CE58229F582E5833AF583E0225077
:10004E0006E92582F8E622BBFE06E92582F8E222C1
:0D005E00E58229F582E5833AF583E49322DB
:10006B00BC000BBE0029EF8DF084FFADF022E4CC79
:10007B00F875F008EF2FFFEE33FEEC33FCEE9DEC42
:10008B00984005FCEE9DFE0FD5F0E9E4CEFD22ED88
:10009B00F8F5F0EE8420D21CFEADF075F008EF2FD2
:1000AB00FFED33FD4007985006D5F0F222C398FDC3
:0500BB000FD5F0EA2260
:1000C000E88FF0A4CC8BF0A42CFCE98EF0A42CFCDF
:1000D0008AF0EDA42CFCEA8EF0A4CDA8F08BF0A45D
:1000E0002DCC3825F0FDE98FF0A42CCD35F0FCEBBC
:1000F0008EF0A4FEA9F0EB8FF0A4CFC5F02ECD3981
:0F010000FEE43CFCEAA42DCE35F0FDE43CFC22ED
:10010F0075F008758200EF2FFFEE33FECD33CDCCA7
:10011F0033CCC58233C5829BED9AEC99E58298402A
:10012F000CF582EE9BFEED9AFDEC99FC0FD5F0D607
:10013F00E4CEFBE4CDFAE4CCF9A88222B800C1B931
:10014F000059BA002DEC8BF084CFCECDFCE5F0CB6F
:10015F00F97818EF2FFFEE33FEED33FDEC33FCEBA8
:10016F0033FB10D703994004EB99FB0FD8E5E4F963
:10017F00FA227818EF2FFFEE33FEED33FDEC33FC50
:10018F00C933C910D7059BE99A4007EC9BFCE99A44
:10019F00F90FD8E0E4C9FAE4CCFB2275F010EF2F89
:1001AF00FFEE33FEED33FDCC33CCC833C810D70789
:1001BF009BEC9AE899400AED9BFDEC9AFCE899F8C4
:0E01CF000FD5F0DAE4CDFBE4CCFAE4C8F92257
:100B0100C2D5E830E70FB2D5E4C39BFBE49AFAE41F
:100B110099F9E498F8EC30E717B2D5120B371201C6
:100B21004BE4C39BFBE49AFAE499F9E498F8800357
:100B310012014B30D50DE4C39FFFE49EFEE49DFD01
:040B4100E49CFC2212
:1001DD00E86010ECA2E713FCED13FDEE13FEEF1338
:0401ED00FFD8F02225
:1001F100E493FC740193FD740293FE740393FF2254
:0C020100ECF0A3EDF0A3EEF0A3EFF02270
:0C020D00A42582F582E5F03583F58322FC
:060219008A838982E47370
:100798000208A3E493A3F8E493A34003F68001F2CC
:1007A80008DFF48029E493A3F85407240CC8C33362
:1007B800C4540F4420C8834004F456800146F6DF31
:1007C800E4800B01020408102040809005C0E47EFC
:1007D800019360BCA3FF543F30E509541FFEE49326
:1007E800A360010ECF54C025E060A840B8E493A3ED
:1007F800FAE493A3F8E493A3C8C582C8CAC583CA18
:10080800F0A3C8C582C8CAC583CADFE9DEE780BECF
:010661000098
:00000001FF
