:1009740000A8C0003F065B4F666D7D077F6F0008CF
:0E09840040014148BF86DBCFE6EDFD87FFEF67
:06043C00011D0F011E006E
:1009CA00120003BF0105751EFF8003E4F51E120025
:0809DA0003BF0203E4F51E2235
:1008FA00E51DB4F005751DE18024E51DB4E105751B
:10090A001DC3801AE51DB4C305751D878010E51D3A
:10091A00B48705751D0F8006E51D25E0F51DE51D4B
:06092A00551EFF020A2326
:100930001209921209AF7BFF7A0979CA7F05120664
:100940008A7BFF7A0879FA7F0212068A120A291234
:0409500008BC80FB64
:1002AB00E4F580900079E0FFB40800505F9002BF46
:1002BB00F82828730202D70202DD0202E30202E9E8
:1002CB000202EF0202F902030302030DC2A3C2A250
:1002DB008016C2A3C2A2801AC2A3C2A2801EC2A34E
:1002EB00C2A28022C2A3D2A2C2A1C2A08020C2A35A
:1002FB00D2A2C2A1D2A08016C2A3D2A2D2A1C2A066
:10030B00800CC2A3D2A2D2A1D2A08002D2A3C3EFEF
:10031B00648094885029900079E0FF3395E0FE7457
:10032B00702FF58274003EF583E0FF3395E0FE7489
:10033B00782FF58274093EF583E493F580801E9047
:10034B000079E0FFB408133395E0FE74702FF5824B
:10035B0074003EF583E0F5808003E4F58090006F38
:10036B00E0FF900079E004FEF0D3EF6480F8EE64D8
:10037B0080984014E0D36480948850047408F02271
:09038B0090006EE0900079F02270
:1009AF00E4F5937594FF5395F043960F90002A74D6
:0B09BF00FFF0A37402F0A374ABF02261
:090A010090006EEFF0A3EDF0226D
:10095400900070EFF0A3EDF0A3EBF0A3E525F0A376
:10096400E526F0A3E527F0A3E528F0A3E529F02286
:060A2300900078EFF022C4
:10044200011F0041007D0041007A0541007B83418C
:03045200007C83A8
:1007F30020920690007BE014F090007AE014F070F1
:10080300347405F0A3E0FFC39480500EA3E09480FA
:100813004018A37401F0F51F801090007CE0C3948E
:10082300805007A37402F0751F0190007CEFF090D5
:05083300007B7483F05E
:01083800229D
:0209F300152CC1
:0909F500A82CA61FE4F51FE6FF83
:0309FE00052C22A3
:1009920090003674FFF0A37409F0A374F3F0900092
:0D09A2003374FFF0A37407F0A374F3F02288
:0700030090007DE0FFE4F036
:01000A0022D3
:100455004100000A4100290A41006D0A040E00000E
:1004650000000114004600670000FFFF8FFFC10D6B
:10047500C105C108C101C10E60240005FF0039FF97
:100485000039FF0039FF0039FF0039FF0039FF004F
:1004950039FF0039FF0039FF0039FF0039FF003906
:1004A5006036002AFF0039FF0039FF0A2FFF0039A7
:1004B500FF0A2FFF0039FF0A2FFF0039FF0039FF20
:1004C5000039FF0A2FFF0A2FFF0A2FFF0A2FFF000F
:0A04D50039FF0039FF0039FF00393C
:0100390022A4
:030A2F007F002223
:1007AC00438E805389F07BE07A2879017800900998
:1007BC00741200CE120839EFF404F58A7BE07A2823
:1007CC00790178009009741200CE120839C3E49FA5
:1007DC00FFE49EFE74019DFDE49CFC78081200BAB7
:0707EC008F8CD28CD2A922F0
:03000B0002075A8F
:04075A00C0E0C0D06B
:10075E00D5080A75084C300D020514D20DA203728D
:10076E00045036150AE50A7030850C0AD207300A95
:10077E0017E50D6007150D438F01801D538FFEC2C7
:10078E00B5D51615C20A8011050BE50BD39406409C
:09079E0008C203E5136002D20653
:0507A700D0D0D0E032CB
:10070700300E47C20E9009741200CE78101200BA4C
:100717008E2A8F2B900003E0FEA3E0FFE4FCFD7B15
:1007270019FAF9F812006BC006C007AE2AAF2BAB57
:1007370007AA06E4F9F8D007D00612083978031299
:1007470000BA900065EEF0A3EFF0900065E0FEA31D
:02075700E0FFC1
:01075900227D
:090A0A00900067E0FEA3E0FF226A
:090A1300900067EEF0A3EFF02261
:1009E20090006BEEF0A3EFF0900069ECF0A3EDF055
:0109F20022E2
:030A3200C2B42229
:03003B0002039429
:10039400C0E0C083C082C0D075D000C004C005C016
:0303A40006C00789
:1003A70030DF04C2DF807D30DA04C2DA807630D9EC
:1003B7003DC2D9AFFBEFFEADEB7C00E42DFFEC3E79
:1003C70020000E900001F0A3EFF075DB11D2008042
:1003D70053FE900001E0FCA3E0FDC3EF9DFFEE9C00
:1003E700A3F0A3EFF075DB00C200D20E803630D841
:1003F70033C2D8900067E07002A3E06022B2B490E5
:100407000069E0FEA3E0F5EAEEF5FAA3E0FEA3E05B
:10041700FF90006AE02FF0900069E03EF08005C28F
:04042700B453DAFEF2
:10042B00D007D006D005D004D0D0D082D083D0E076
:01043B00328E
:060A29001207ACD2AF225F
:1005FF003004047F0180027F00200A047E01800204
:10060F007E00EE5F6074E515C395095068300236C1
:10061F00750D01E515131313541FAB17AA18A9195C
:10062F00F58275830012003EFFE515540704FEEFB7
:10063F00A806088002C333D8FC30D705751603808F
:10064F002F751601802AAB17AA18A91975F002E5A4
:10065F0015A4F58285F08312003EF50DE51575F0B2
:10066F0002A429F9EA35F0FA90000112003EF516BE
:0A067F000515D20A22C204438F10B1
:01068900224E
:1001BE00900000E014F0701F740AF0D20590002930
:1001CE00E014F07012740AF0D20890006DE014F092
:1001DE007005740AF0D20190002AA3E0FAA3E0F9A8
:1001EE001200EA90002DA3E0FAA3E0F91200EA90C3
:1001FE000039A3E0FAA3E0F91200EA900045A3E06B
:10020E00FAA3E0F91200EA900054A3E0FAA3E0F991
:10021E001200EA90005DA3E0FAA3E0F91200EA9062
:10022E00004BA3E0FAA3E0F91200EAEF600C900095
:10023E001DA3E0FAA3E0F91200EA90004EA3E0FA43
:10024E00A3E0F91200EAEF600E900020A3E0FAA3FB
:10025E00E0F91200EAD20BE512D394004016D51243
:10026E003030090C900023A3E0FAA3E0F91200EA63
:10027E00D20C801D900051A3E0FAA3E0F91200EA1F
:10028E00EF600E900023A3E0FAA3E0F91200EAD289
:0D029E000C900005A3E0FAA3E0F90200EACD
:1004E00090003FA3E0FAA3E0F91200EA900042A3D3
:1004F000E0FAA3E0F91200EA900033A3E0FAA3E0E7
:10050000F91200EA900008A3E0FAA3E0F91200EA69
:10051000900030A3E0FAA3E0F91200EAEF600C903B
:100520000011A3E0FAA3E0F91200EA900036A3E07C
:10053000FAA3E0F91200EAEF600C900017A3E0FACA
:10054000A3E0F91200EA900048A3E0FAA3E0F91250
:1005500000EAEF600C90001AA3E0FAA3E0F91200A1
:10056000EA30060EC206900026A3E0FAA3E0F912D4
:0305700000EA227C
:10087D0090000BA3E0FAA3E0F91200EA90003CA36C
:10088D00E0FAA3E0F91200EAEF600C900014A3E087
:10089D00FAA3E0F91200EA900057A3E0FAA3E0F9F9
:0F08AD001200EA90005AA3E0FAA3E0F90200EA71
:10000E00AF11AE10AD0FAC0E9000601200DE90007E
:10001E0064E514F0E4F511F510F50FF50EF51490F6
:0B002E00000EA3E0FAA3E0F90200EAD4
:1008BC00300705C2071205FF300D05C20D1201BE2F
:1008CC00300505C2051204E0300805C20812087D87
:1008DC00300105C20112000EE5112401F511E435B9
:0E08EC0010F510E4350FF50FE4350EF50E2271
:10068A008B1A8A1B891CEFB40C00507090069DF8D7
:10069A002828730206C10206C60206CB0206D00249
:1006AA0006D50206DA0206DF0206E40206E90206B7
:1006BA00EE0206F30206F8900005803590000880E5
:1006CA003090000B802B90000E8026900011802124
:1006DA00900017801C900014801790001A801290C6
:1006EA00001D800D90002080089000238003900058
:0D06FA0026E51AF0A3E51BF0A3E51CF02295
:070A1C007B017A00796022E2
:0300000002057383
:0C057300787FE4F6D8FD75812C0205BAF3
:10003E00BB010CE58229F582E5833AF583E0225077
:10004E0006E92582F8E622BBFE06E92582F8E222C1
:0D005E00E58229F582E5833AF583E49322DB
:10006B00E88FF0A4CC8BF0A42CFCE98EF0A42CFC34
:10007B008AF0EDA42CFCEA8EF0A4CDA8F08BF0A4B2
:10008B002DCC3825F0FDE98FF0A42CCD35F0FCEB11
:10009B008EF0A4FEA9F0EB8FF0A4CFC5F02ECD39D6
:0F00AB00FEE43CFCEAA42DCE35F0FDE43CFC2243
:10083900C2D5E830E70FB2D5E4C39BFBE49AFAE4EA
:1008490099F9E498F8EC30E717B2D512086F12015C
:100859002CE4C39BFBE49AFAE499F9E498F8800341
:1008690012012C30D50DE4C39FFFE49EFEE49DFDEB
:04087900E49CFC22DD
:1000BA00E86010ECA2E713FCED13FDEE13FEEF135C
:0400CA00FFD8F02249
:1000CE00E493FC740193FD740293FE740393FF2278
:0C00DE00ECF0A3EDF0A3EEF0A3EFF02295
:0600EA008A838982E473A1
:10057F00020930E493A3F8E493A34003F68001F259
:10058F0008DFF48029E493A3F85407240CC8C3337D
:10059F00C4540F4420C8834004F456800146F6DF4C
:1005AF00E4800B010204081020408090043CE47E9C
:1005BF00019360BCA3FF543F30E509541FFEE49341
:1005CF00A360010ECF54C025E060A840B8E493A308
:1005DF00FAE493A3F8E493A3C8C582C8CAC583CA33
:1005EF00F0A3C8C582C8CAC583CADFE9DEE780BEEB
:0104DF00001C
:1000F00075F008758200EF2FFFEE33FECD33CDCCC7
:1001000033CCC58233C5829BED9AEC99E582984049
:100110000CF582EE9BFEED9AFDEC99FC0FD5F0D626
:10012000E4CEFBE4CDFAE4CCF9A88222B800C1B950
:100130000059BA002DEC8BF084CFCECDFCE5F0CB8E
:10014000F97818EF2FFFEE33FEED33FDEC33FCEBC7
:1001500033FB10D703994004EB99FB0FD8E5E4F982
:10016000FA227818EF2FFFEE33FEED33FDEC33FC6F
:10017000C933C910D7059BE99A4007EC9BFCE99A63
:10018000F90FD8E0E4C9FAE4CCFB2275F010EF2FA8
:10019000FFEE33FEED33FDCC33CCC833C810D707A8
:1001A0009BEC9AE899400AED9BFDEC9AFCE899F8E3
:0E01B0000FD5F0DAE4CDFBE4CCFAE4C8F92276
:00000001FF
