:100B870000A8C0003F065B4F666D7D077F6F0008BA
:0E0B970040014148BF86DBCFE6EDFD87FFEF52
:1009DA007D0A7C007FE87E03120830E4FF120A6277
:1009EA00BF0105431C018006BF0203531CFE7F01A1
:1009FA00120A62BF0105431C028006BF0203531C90
:100A0A00FD7F02120A62BF0104431C0422BF0203D3
:030A1A00531CFB6F
:010A1D0022B6
:050C2F00AF1C020C23C4
:10099400120BC2120BA5120B477D07E4FF120C08C1
:1009A4007525047526057527067528077529087B9E
:1009B400037D027F01120B677BFF7A0C792F7F0185
:1009C4001207B37BFF7A0979DA7F041207B3120C9A
:0609D40029120AE180FB7C
:040B1F00151E151E6C
:100B2300120C11A81EA60608A607A81EE6FE08E6D4
:0F0B3300FF4E600BEF24FFFFEE34FFFE120C1A93
:050B4200051E051E2246
:100B470053B1EF43B210120C37E4F5D975DA49D235
:100B5700DE90003F74FFF0A3740BF0A3741FF02224
:080830008E228F238C248D25FC
:10083800120C11EF4E7066AF25AE24120C1AC3E5E8
:1008480023940AE5229400404BE47B18FAF9F890C7
:100858000B8712019C1200F6C006C007AE22AF2318
:10086800AB07AA06E4F9F8D007D0061200F6AB07E2
:10087800AA06AFF9EFFEADE97C00E42DFFEC3ECF10
:100888002BCF3AAD07FCAF03AE02120BDDD2D84333
:0F089800DA018006120C3753DAFE7F02227F034B
:0108A700222E
:0C0BFC00120C11EF4E7002FF227F01224C
:1003DA00E4F580900079E0FFB40800505F9003EEE6
:1003EA00F828287302040602040C020412020418F4
:1003FA0002041E02042802043202043CC2A3C2A25E
:10040A008016C2A3C2A2801AC2A3C2A2801EC2A31D
:10041A00C2A28022C2A3D2A2C2A1C2A08020C2A329
:10042A00D2A2C2A1D2A08016C2A3D2A2D2A1C2A035
:10043A00800CC2A3D2A2D2A1D2A08002D2A3C3EFBF
:10044A00648094885029900079E0FF3395E0FE7427
:10045A00702FF58274003EF583E0FF3395E0FE7459
:10046A008B2FF582740B3EF583E493F580801E9002
:10047A000079E0FFB408133395E0FE74702FF5821B
:10048A0074003EF583E0F5808003E4F58090006F08
:10049A00E0FF900079E004FEF0D3EF6480F8EE64A8
:1004AA0080984014E0D36480948850047408F02241
:0904BA0090006EE0900079F02240
:100BC200E4F5937594FF5395F043960F90002A74C1
:0B0BD200FFF0A37403F0A374DAF0221C
:090C080090006EEFF0A3EDF02264
:100B6700900070EFF0A3EDF0A3EBF0A3E525F0A361
:100B7700E526F0A3E527F0A3E528F0A3E529F02271
:060C2300900078EFF022C2
:10056B00011D0049007B94940094940094940041E5
:03057B00007A1EE5
:0201CA00151E00
:1001CC0020B20690007BE014F020B30690007EE095
:1001DC0014F0209706900081E014F090007AE0145F
:1001EC00F060030202EA741EF0A81EE4F6A81EE6F4
:1001FC00FFC36480948340030202EAEF3395E0FE70
:10020C0090007B75F003EF1201B8EE75F003A42596
:10021C0083F583E0C39480503990007C75F003EF34
:10022C001201B8EE75F003A42583F583E0D3948016
:10023C00405AE6FF3395E0FE90007D75F003EF1217
:10024C0001B8EE75F003A42583F5837401F0F51D58
:10025C00803AA81EE6FF3395E0FE90007C75F00313
:10026C00EF1201B8EE75F003A42583F583E0C39477
:10027C0080501990007D75F003EF1201B8EE75F007
:10028C0003A42583F5837402F0751D01A81EE6FFF7
:10029C00FD3395E0FC90007B75F003ED1201B8EC9A
:1002AC0075F003A42583F583E0FE90007C75F003C4
:1002BC00ED1201B8EC75F003A42583F583EEF0EF95
:1002CC003395E0FE90007B75F003EF1201B8EE75EC
:0E02DC00F003A42583F5837494F0060201F963
:0302EA00051E22CC
:020BEE00151ED2
:090BF000A81EA61DE4F51DE6FF98
:030BF900051E22B4
:100BA50090003074FFF0A3740BF0A374EEF0900086
:0D0BB5002D74FFF0A37401F0A374CAF022A8
:100A6200EF600764016003BF0233EFFD3395E0FCE2
:100A720090007D75F003ED1201B8EC75F003A4252A
:100A820083F583E0FE90007D75F003ED1201B8EC72
:0F0A920075F003A42583F583E4F0AF06227F03FC
:010AA1002232
:10057E004100000A4100290A41006D0A040E0000E4
:10058E0000000114004600670000FFFF8FFFC10D41
:10059E00C105C108C101C10E60240005FF000AFF9C
:1005AE00000AFF000AFF000AFF000AFF000AFF0010
:1005BE000AFF000AFF000AFF000AFF000AFF000AF6
:1005CE006036002AFF000AFF000AFF0C34FF000A03
:1005DE00FF0C34FF000AFF0C34FF000AFF000AFF75
:1005EE00000AFF0C34FF0C34FF0C34FF0C34FF00F8
:0A05FE000AFF000AFF000AFF000ACE
:01000A0022D3
:030C34007F00221C
:10094D00438E805389F07BE07A2879017800900BF3
:10095D008712019C120A1EEFF404F58A7BE07A28B7
:10096D0079017800900B8712019C120A1EC3E49F37
:10097D00FFE49EFE74019DFDE49CFC780812018845
:07098D008F8CD28CD2A9224D
:03000B000208FBED
:0408FB00C0E0C0D0C9
:1008FF00D5080A75084C300D020514D20DA20372EB
:10090F00045036150AE50A7030850C0AD207300AF2
:10091F0017E50D6007150D438F01801D538FFEC224
:10092F00B5D51615C20A8011050BE50BD3940640F9
:09093F0008C203E5136002D206B0
:05094800D0D0D0E03228
:1008A800300E47C20E900B8712019C7810120188F7
:1008B8008E1A8F1B900003E0FEA3E0FFE4FCFD7B93
:1008C80019FAF9F812006BC006C007AE1AAF1BABD5
:1008D80007AA06E4F9F8D007D006120A1E78031210
:1008E8000188900065EEF0A3EFF0900065E0FEA3AC
:0208F800E0FF1F
:0108FA0022DB
:090C1100900067E0FEA3E0FF2261
:090C1A00900067EEF0A3EFF02258
:100BDD0090006BEEF0A3EFF0900069ECF0A3EDF058
:010BED0022E5
:030C3700C2B42222
:03003B000204C3F9
:1004C300C0E0C083C082C0D075D000C004C005C0E6
:0304D30006C00759
:1004D60030DF04C2DF807D30DA04C2DA807630D9BC
:1004E6003DC2D9AFFBEFFEADEB7C00E42DFFEC3E49
:1004F60020000E900001F0A3EFF075DB11D2008012
:1005060053FE900001E0FCA3E0FDC3EF9DFFEE9CCF
:10051600A3F0A3EFF075DB00C200D20E803630D810
:1005260033C2D8900067E07002A3E06022B2B490B4
:100536000069E0FEA3E0F5EAEEF5FAA3E0FEA3E02B
:10054600FF90006AE02FF0900069E03EF08005C25F
:04055600B453DAFEC2
:10055A00D007D006D005D004D0D0D082D083D0E046
:01056A00325E
:060C290012094DD2AF22BA
:100728003004047F0180027F00200A047E018002D9
:100738007E00EE5F6074E515C39509506830023697
:10074800750D01E515131313541FAB17AA18A91932
:10075800F58275830012003EFFE515540704FEEF8D
:10076800A806088002C333D8FC30D7057516038065
:100778002F751601802AAB17AA18A91975F002E57A
:1007880015A4F58285F08312003EF50DE51575F088
:1007980002A429F9EA35F0FA90000112003EF51694
:0A07A8000515D20A22C204438F1087
:0107B2002224
:1002ED00900000E014F0701F740AF0D20590002900
:1002FD00E014F07012740AF0D20890006DE014F062
:10030D007005740AF0D20190002AA3E0FAA3E0F977
:10031D001201C490002DA3E0FAA3E0F91201C490DC
:10032D000039A3E0FAA3E0F91201C4900045A3E05F
:10033D00FAA3E0F91201C4900054A3E0FAA3E0F986
:10034D001201C490005DA3E0FAA3E0F91201C4907C
:10035D00004BA3E0FAA3E0F91201C4EF600C90008A
:10036D001DA3E0FAA3E0F91201C490004EA3E0FA38
:10037D00A3E0F91201C4EF600E900020A3E0FAA3F0
:10038D00E0F91201C4D20BE512D394004016D51238
:10039D003030090C900023A3E0FAA3E0F91201C458
:1003AD00D20C801D900051A3E0FAA3E0F91201C414
:1003BD00EF600E900023A3E0FAA3E0F91201C4D27E
:0D03CD000C900005A3E0FAA3E0F90201C4C2
:1006090090003FA3E0FAA3E0F91201C4900042A3CD
:10061900E0FAA3E0F91201C4900033A3E0FAA3E0E1
:10062900F91201C4900008A3E0FAA3E0F91201C489
:10063900900030A3E0FAA3E0F91201C4EF600C9036
:100649000011A3E0FAA3E0F91201C4900036A3E077
:10065900FAA3E0F91201C4EF600C900017A3E0FAC5
:10066900A3E0F91201C4900048A3E0FAA3E0F9124B
:1006790001C4EF600C90001AA3E0FAA3E0F912019B
:10068900C430060EC206900026A3E0FAA3E0F912D0
:0306990001C42277
:100AA20090000BA3E0FAA3E0F91201C490003CA36A
:100AB200E0FAA3E0F91201C4EF600C900014A3E085
:100AC200FAA3E0F91201C4900057A3E0FAA3E0F9F7
:0F0AD2001201C490005AA3E0FAA3E0F90201C494
:10000E00AF11AE10AD0FAC0E9000601201AC9000AF
:10001E0064E514F0E4F511F510F50FF50EF51490F6
:0B002E00000EA3E0FAA3E0F90201C4F9
:100AE100300705C207120728300D05C20D1202EDAD
:100AF100300505C205120609300805C208120AA20E
:100B0100300105C20112000EE5112401F511E43591
:0E0B110010F510E4350FF50FE4350EF50E2249
:1007B3008B228A238924EFB40C0050709007C6F86B
:1007C3002828730207EA0207EF0207F40207F90277
:1007D30007FE02080302080802080D0208120208B5
:1007E3001702081C0208219000058035900008803C
:1007F3003090000B802B90000E80269000118021FA
:10080300900017801C900014801790001A8012909B
:10081300001D800D9000208008900023800390002D
:0D08230026E522F0A3E523F0A3E524F02252
:070003007B017A0079602205
:0300000002069C59
:0C069C00787FE4F6D8FD7581290206E3A2
:10003E00BB010CE58229F582E5833AF583E0225077
:10004E0006E92582F8E622BBFE06E92582F8E222C1
:0D005E00E58229F582E5833AF583E49322DB
:10006B00E88FF0A4CC8BF0A42CFCE98EF0A42CFC34
:10007B008AF0EDA42CFCEA8EF0A4CDA8F08BF0A4B2
:10008B002DCC3825F0FDE98FF0A42CCD35F0FCEB11
:10009B008EF0A4FEA9F0EB8FF0A4CFC5F02ECD39D6
:0F00AB00FEE43CFCEAA42DCE35F0FDE43CFC2243
:1000BA0075F008758200EF2FFFEE33FECD33CDCCFD
:1000CA0033CCC58233C5829BED9AEC99E582984080
:1000DA000CF582EE9BFEED9AFDEC99FC0FD5F0D65D
:1000EA00E4CEFBE4CDFAE4CCF9A88222B800C1B987
:1000FA000059BA002DEC8BF084CFCECDFCE5F0CBC5
:10010A00F97818EF2FFFEE33FEED33FDEC33FCEBFD
:10011A0033FB10D703994004EB99FB0FD8E5E4F9B8
:10012A00FA227818EF2FFFEE33FEED33FDEC33FCA5
:10013A00C933C910D7059BE99A4007EC9BFCE99A99
:10014A00F90FD8E0E4C9FAE4CCFB2275F010EF2FDE
:10015A00FFEE33FEED33FDCC33CCC833C810D707DE
:10016A009BEC9AE899400AED9BFDEC9AFCE899F819
:0E017A000FD5F0DAE4CDFBE4CCFAE4C8F922AC
:100A1E00C2D5E830E70FB2D5E4C39BFBE49AFAE403
:100A2E0099F9E498F8EC30E717B2D5120A5412008F
:100A3E00F6E4C39BFBE49AFAE499F9E498F8800390
:100A4E001200F630D50DE4C39FFFE49EFEE49DFD3B
:040A5E00E49CFC22F6
:10018800E86010ECA2E713FCED13FDEE13FEEF138D
:04019800FFD8F0227A
:10019C00E493FC740193FD740293FE740393FF22A9
:0C01AC00ECF0A3EDF0A3EEF0A3EFF022C6
:0C01B800A42582F582E5F03583F5832252
:0601C4008A838982E473C6
:1006A800020994E493A3F8E493A34003F68001F2CB
:1006B80008DFF48029E493A3F85407240CC8C33353
:1006C800C4540F4420C8834004F456800146F6DF22
:1006D800E4800B010204081020408090056BE47E42
:1006E800019360BCA3FF543F30E509541FFEE49317
:1006F800A360010ECF54C025E060A840B8E493A3DE
:10070800FAE493A3F8E493A3C8C582C8CAC583CA08
:10071800F0A3C8C582C8CAC583CADFE9DEE780BEC0
:0106080000F1
:00000001FF
