:100CF10000A8C0003F065B4F666D7D077F6F00084F
:0E0D010040014148BF86DBCFE6EDFD87FFEFE6
:0A067F00011D00011A0A021B0064AD
:100D2A00120D0F120D43AB1CAA1BAD1AAF1D1207F1
:090D3A0030120D8D120C6180FBDA
:10059600E4F58090008FE0FFB40800505F9005AA54
:1005A600F82828730205C20205C80205CE0205D442
:1005B6000205DA0205E40205EE0205F8C2A3C2A2AC
:1005C6008016C2A3C2A2801AC2A3C2A2801EC2A360
:1005D600C2A28022C2A3D2A2C2A1C2A08020C2A36C
:1005E600D2A2C2A1D2A08016C2A3D2A2D2A1C2A078
:1005F600800CC2A3D2A2D2A1D2A08002D2A3C3EF02
:1006060064809488502990008FE0FF3395E0FE7453
:10061600862FF58274003EF583E0FF3395E0FE7485
:10062600F52FF582740C3EF583E493F580801E90D9
:10063600008FE0FFB408133395E0FE74862FF58231
:1006460074003EF583E0F5808003E4F58090008534
:10065600E0FF90008FE004FEF0D3EF6480F8EE64D4
:1006660080984014E0D36480948850047408F02283
:09067600900084E090008FF02256
:100D0F00E4F5937594FF5395F043960F90002A7472
:0B0D1F00FFF0A37405F0A37496F0220F
:090D6C00900084EFF0A3EDF022E9
:100CD100900086EFF0A3EDF0A3EBF0A3E525F0A3E0
:100CE100E526F0A3E527F0A3E528F0A3E529F02206
:060D870090008EEFF02247
:1006890055006F000000000000000000000000009D
:0C069900000000000000000041006E00A6
:02003E00152D7E
:10004000A82DE4F6A82DE6FFC36480948340030244
:1000500002AFEF3395E0FE90006F75F007EF1203EB
:10006000C9EE75F007A42583F583E0FCA3E04C708E
:10007000030202A990007175F007EF1203C9EE7533
:10008000F007A42583F583E0FEA3E04E700302028F
:10009000A9E6FFFD3395E0FC90007375F007ED12C3
:1000A00003C9EC75F007A42583F58374FFF5F012FE
:1000B000033445F060030202A990007175F007ED6A
:1000C0001203C9EC75F007A42583F583E0FAA3E0D9
:1000D000FB90007375F007ED1203C9EC75F007A4EF
:1000E0002583F583EAF0A3EBF0EF3395E0FE900073
:1000F0006F75F007EF1203C9EE75F007A42583F5BD
:1001000083E0FCA3E0D39400EC648094804056A884
:100110002DE6FD3395E0FC90006F75F007ED1203BE
:10012000C9EC75F007A42583F58374FFF5F012037D
:100130003490007575F007ED1203C9EC75F007A453
:100140002583F583E004F0D36480948340729000AB
:100150007575F007EF1203C9EE75F007A42583F556
:1001600083E4F0805BA82DE6FFFD3395E0FC900072
:100170006F75F007ED1203C9EC75F007A42583F540
:1001800083E475F00112033490007575F007ED12E9
:1001900003C9EC75F007A42583F583E014F0C3646C
:1001A000809480501BEF3395E0FE90007575F0074A
:1001B000EF1203C9EE75F007A42583F5837403F0ED
:1001C000A82DE6FFFD3395E0FC90007575F007ED76
:1001D0001203C9EC75F007A42583F583E014603C95
:1001E000146066147003020276240360030202A105
:1001F000EF146010146019240260030202A1D2C13E
:10020000C2C2802990006EE054F04401F00202A1C5
:1002100090006EE0540F4410F00202A1A82DE614E5
:10022000601114601924027078C2C1D2C2C2C3C264
:10023000C4806E90006EE054F04402F08063900041
:100240006EE0540F4420F08058A82DE6146011147D
:1002500060192402704BC2C1C2C2D2C3C2C4804161
:1002600090006EE054F04404F0803690006EE0544C
:100270000F4440F0802BA82DE6146011146019245F
:1002800002701EC2C1C2C2C2C3D2C4801490006E2A
:10029000E054F04408F0800990006EE0540F448070
:0F02A000F090006EE0FF120D87A82D06020044BB
:0302AF00052D22F8
:100D430053B3E143B41E53C0E190005474FFF0A3C6
:080D53007400F0A3743EF022CD
:100730008F2EEF3395E0FE90006F75F007EF1203F8
:10074000C9EE75F007A42583F583E0FEA3E04E60B3
:10075000030207D8E52E600A64016006E52E6402F4
:100760007076ED60737C007E037FE81202DFAD2EB1
:10077000ED3395E0FC90007175F007ED1203C9ECC4
:1007800075F007A42583F583EEF0A3EFF0900071D8
:1007900075F007ED1203C9EC75F007A42583F58306
:1007A000E0FEA3E0FF90007375F007ED1203C9ECC3
:1007B00075F007A42583F583EEF0A3EFF090006FAA
:1007C00075F007ED1203C9EC75F007A42583F583D6
:0B07D000EAF0A3EBF07F02227F03227F
:100B4F00EF600764016003BF023AEFFD3395E0FCED
:100B5F0090006F75F007ED1203C9EC75F007A4252F
:100B6F0083F583E0FAA3E0FB90006F75F007ED12B9
:100B7F0003C9EC75F007A42583F583E4F0A3F0AE69
:070B8F0002AF0322E4FEFFA8
:010B9600223C
:100C9F00EF600764016003BF0225EF3395E0FE901C
:100CAF00006F75F007EF1203C9EE75F007A42583E7
:100CBF00F583E0FEA3E04E60037F01227F00227FD9
:020CCF000322FE
:1006A5004100000A4100290A41006D0A040E0000BC
:1006B50000000114004600670000FFFF8FFFC10D19
:1006C500C105C108C101C10E60240005FF000AFF74
:1006D500000AFF000AFF000AFF000AFF000AFF00E8
:1006E5000AFF000AFF000AFF000AFF000AFF000ACE
:1006F5006036002AFF000AFF000AFF0D93FF000A7B
:10070500FF0D93FF000AFF0D93FF000AFF000AFF8C
:10071500000AFF0D93FF0D93FF0D93FF0D93FF004F
:0A0725000AFF000AFF000AFF000AA5
:01000A0022D3
:030D93007F0022BC
:100B9700438E805389F07BE07A2879017800900CA6
:100BA700F11203AD120BDEEFF404F58A7BE07A282D
:100BB70079017800900CF11203AD120BDEC3E49FAC
:100BC700FFE49EFE74019DFDE49CFC7808120399E6
:070BD7008F8CD28CD2A92201
:03000B00020AFDE9
:040AFD00C0E0C0D0C5
:100B0100D5080A75084C300D020514D20DA20372E6
:100B1100045036150AE50A7030850C0AD207300AEE
:100B210017E50D6007150D438F01801D538FFEC220
:100B3100B5D51615C20A8011050BE50BD3940640F5
:090B410008C203E5136002D206AC
:050B4A00D0D0D0E03224
:100AAA00300E47C20E900CF11203AD781012039962
:100ABA008E1E8F1F900003E0FEA3E0FFE4FCFD7B87
:100ACA0019FAF9F812034AC006C007AE1EAF1FABE7
:100ADA0007AA06E4F9F8D007D006120BDE7803124B
:100AEA000399900065EEF0A3EFF0900065E0FEA395
:020AFA00E0FF1B
:010AFC0022D7
:090D7500900067E0FEA3E0FF22FC
:090D7E00900067EEF0A3EFF022F3
:100D5B0090006BEEF0A3EFF0900069ECF0A3EDF0D8
:010D6B002265
:030D9600C2B422C2
:03003B000207DBDE
:1007DB00C0E0C083C082C0D075D000C004C005C0CB
:0307EB0006C0073E
:1007EE0030DF04C2DF807D30DA04C2DA807630D9A1
:1007FE003DC2D9AFFBEFFEADEB7C00E42DFFEC3E2E
:10080E0020000E900001F0A3EFF075DB11D20080F6
:10081E0053FE900001E0FCA3E0FDC3EF9DFFEE9CB4
:10082E00A3F0A3EFF075DB00C200D20E803630D8F5
:10083E0033C2D8900067E07002A3E06022B2B49099
:10084E000069E0FEA3E0F5EAEEF5FAA3E0FEA3E010
:10085E00FF90006AE02FF0900069E03EF08005C244
:04086E00B453DAFEA7
:10087200D007D006D005D004D0D0D082D083D0E02B
:010882003243
:060D8D00120B97D2AF2209
:1009A2003004047F0180027F00200A047E0180025D
:1009B2007E00EE5F6074E515C3950950683002361B
:1009C200750D01E515131313541FAB17AA18A919B6
:1009D200F5827583001202B2FFE515540704FEEF9B
:1009E200A806088002C333D8FC30D70575160380E9
:1009F2002F751601802AAB17AA18A91975F002E5FE
:100A020015A4F58285F0831202B2F50DE51575F095
:100A120002A429F9EA35F0FA9000011202B2F516A1
:0A0A22000515D20A22C204438F100A
:010A2C0022A7
:1004A900900000E014F0701F740AF0D20590002942
:1004B900E014F07012740AF0D20890006DE014F0A4
:1004C9007005740AF0D20190002AA3E0FAA3E0F9BA
:1004D9001203D590002DA3E0FAA3E0F91203D590F9
:1004E9000039A3E0FAA3E0F91203D5900045A3E08F
:1004F900FAA3E0F91203D5900054A3E0FAA3E0F9B6
:100509001203D590005DA3E0FAA3E0F91203D59098
:10051900004BA3E0FAA3E0F91203D5EF600C9000B9
:100529001DA3E0FAA3E0F91203D590004EA3E0FA67
:10053900A3E0F91203D5EF600E900020A3E0FAA31F
:10054900E0F91203D5D20BE512D394004016D51267
:100559003030090C900023A3E0FAA3E0F91203D587
:10056900D20C801D900051A3E0FAA3E0F91203D543
:10057900EF600E900023A3E0FAA3E0F91203D5D2AD
:0D0589000C900005A3E0FAA3E0F90203D5F1
:1008830090003FA3E0FAA3E0F91203D5900042A33E
:10089300E0FAA3E0F91203D5900033A3E0FAA3E052
:1008A300F91203D5900008A3E0FAA3E0F91203D5E7
:1008B300900030A3E0FAA3E0F91203D5EF600C90A7
:1008C3000011A3E0FAA3E0F91203D5900036A3E0E8
:1008D300FAA3E0F91203D5EF600C900017A3E0FA36
:1008E300A3E0F91203D5900048A3E0FAA3E0F912BC
:1008F30003D5EF600C90001AA3E0FAA3E0F912030A
:10090300D530060EC206900026A3E0FAA3E0F91242
:0309130003D522E7
:100C220090000BA3E0FAA3E0F91203D590003CA3D5
:100C3200E0FAA3E0F91203D5EF600C900014A3E0F0
:100C4200FAA3E0F91203D5900057A3E0FAA3E0F962
:0F0C52001203D590005AA3E0FAA3E0F90203D5EC
:10000E00AF11AE10AD0FAC0E9000601203BD90009C
:10001E0064E514F0E4F511F510F50FF50EF51490F6
:0B002E00000EA3E0FAA3E0F90203D5E6
:100C6100300705C2071209A2300D05C20D1204A9F1
:100C7100300505C205120883300805C208120C228E
:100C8100300105C20112000EE5112401F511E43510
:0E0C910010F510E4350FF50FE4350EF50E22C8
:100A2D008B2A8A2B892CEFB40C005070900A40F859
:100A3D00282873020A64020A69020A6E020A730206
:100A4D000A78020A7D020A82020A87020A8C020AC9
:100A5D0091020A96020A9B9000058035900008804D
:100A6D003090000B802B90000E802690001180217D
:100A7D00900017801C900014801790001A8012901F
:100A8D00001D800D900020800890002380039000B1
:0D0A9D0026E52AF0A3E52BF0A3E52CF022BE
:070003007B017A0079602205
:03000000020916DC
:0C091600787FE4F6D8FD75812E02095DA3
:1002B200BB010CE58229F582E5833AF583E0225001
:1002C20006E92582F8E622BBFE06E92582F8E2224B
:0D02D200E58229F582E5833AF583E4932265
:1002DF00BC000BBE0029EF8DF084FFADF022E4CC03
:1002EF00F875F008EF2FFFEE33FEEC33FCEE9DECCC
:1002FF00984005FCEE9DFE0FD5F0E9E4CEFD22ED12
:10030F00F8F5F0EE8420D21CFEADF075F008EF2F5B
:10031F00FFED33FD4007985006D5F0F222C398FD4C
:05032F000FD5F0EA22E9
:10033400C5F0F8A3E028F0C5F0F8E5821582700254
:060344001583E038F022F1
:10034A00E88FF0A4CC8BF0A42CFCE98EF0A42CFC52
:10035A008AF0EDA42CFCEA8EF0A4CDA8F08BF0A4D0
:10036A002DCC3825F0FDE98FF0A42CCD35F0FCEB2F
:10037A008EF0A4FEA9F0EB8FF0A4CFC5F02ECD39F4
:0F038A00FEE43CFCEAA42DCE35F0FDE43CFC2261
:100BDE00C2D5E830E70FB2D5E4C39BFBE49AFAE442
:100BEE0099F9E498F8EC30E717B2D5120C14120408
:100BFE0017E4C39BFBE49AFAE499F9E498F88003AE
:100C0E0012041730D50DE4C39FFFE49EFEE49DFD54
:040C1E00E49CFC2234
:10039900E86010ECA2E713FCED13FDEE13FEEF137A
:0403A900FFD8F02267
:1003AD00E493FC740193FD740293FE740393FF2296
:0C03BD00ECF0A3EDF0A3EEF0A3EFF022B3
:0C03C900A42582F582E5F03583F583223F
:0603D5008A838982E473B3
:10092200020D2AE493A3F8E493A34003F68001F2B4
:1009320008DFF48029E493A3F85407240CC8C333D6
:10094200C4540F4420C8834004F456800146F6DFA5
:10095200E4800B010204081020408090067FE47EB0
:10096200019360BCA3FF543F30E509541FFEE4939A
:10097200A360010ECF54C025E060A840B8E493A361
:10098200FAE493A3F8E493A3C8C582C8CAC583CA8C
:10099200F0A3C8C582C8CAC583CADFE9DEE780BE44
:01072F0000C9
:1003DB0075F008758200EF2FFFEE33FECD33CDCCD9
:1003EB0033CCC58233C5829BED9AEC99E58298405C
:1003FB000CF582EE9BFEED9AFDEC99FC0FD5F0D639
:10040B00E4CEFBE4CDFAE4CCF9A88222B800C1B962
:10041B000059BA002DEC8BF084CFCECDFCE5F0CBA0
:10042B00F97818EF2FFFEE33FEED33FDEC33FCEBD9
:10043B0033FB10D703994004EB99FB0FD8E5E4F994
:10044B00FA227818EF2FFFEE33FEED33FDEC33FC81
:10045B00C933C910D7059BE99A4007EC9BFCE99A75
:10046B00F90FD8E0E4C9FAE4CCFB2275F010EF2FBA
:10047B00FFEE33FEED33FDCC33CCC833C810D707BA
:10048B009BEC9AE899400AED9BFDEC9AFCE899F8F5
:0E049B000FD5F0DAE4CDFBE4CCFAE4C8F92288
:00000001FF
