:100FA30000A8C0003F065B4F666D7D077F6F00089A
:0E0FB30040014148BF86DBCFE6EDFD87FFEF32
:0C0995000A22111012101310141015107B
:100EE000120F63120FC1120FED7D077F041210085D
:100EF0007B007A00792275310075320A7533F37DF3
:100F0000FA7F64120CDB7F01120F3B121029120EC4
:030F1000A280FBC1
:040F1300151F151F72
:100F1700121011A81FA60608A607A81FE6FE08E6D6
:0F0F2700FF4E600BEF24FFFFEE34FFFE12101A97
:050F3600051F051F224C
:100F630053B1EF43B210121038E4F5D975DA49D210
:100F7300DE90003F74FFF0A3740FF0A37413F0220C
:080C63008E328F338C348D3585
:100C6B00121011EF4E7066AF35AE3412101AC3E589
:100C7B0033940AE5329400404BE47B18FAF9F89070
:100C8B000FA312052512047FC006C007AE32AF3387
:100C9B00AB07AA06E4F9F8D007D00612047FAB071E
:100CAB00AA06AFF9EFFEADE97C00E42DFFEC3ECFD9
:100CBB002BCF3AAD07FCAF03AE02120FDCD2D843F9
:0F0CCB00DA01800612103853DAFE7F02227F030F
:010CDA0022F7
:0C0FFC00121011EF4E7002FF227F012244
:10075A00E4F580900089E0FFB40800505F90076ECE
:10076A00F828287302078602078C02079202079864
:10077A0002079E0207A80207B20207BCC2A3C2A2CE
:10078A008016C2A3C2A2801AC2A3C2A2801EC2A39A
:10079A00C2A28022C2A3D2A2C2A1C2A08020C2A3A6
:1007AA00D2A2C2A1D2A08016C2A3D2A2D2A1C2A0B2
:1007BA00800CC2A3D2A2D2A1D2A08002D2A3C3EF3C
:1007CA00648094885029900089E0FF3395E0FE7494
:1007DA00802FF58274003EF583E0FF3395E0FE74C6
:1007EA00A72FF582740F3EF583E493F580801E905F
:1007FA000089E0FFB408133395E0FE74802FF58278
:10080A0074003EF583E0F5808003E4F58090007F74
:10081A00E0FF900089E004FEF0D3EF6480F8EE6414
:10082A0080984014E0D36480948850047408F022BD
:09083A0090007EE0900089F0229C
:100FC100E4F5937594FF5395F043960F90002A74BE
:0B0FD100FFF0A37407F0A3745AF02295
:0910080090007EEFF0A3EDF02250
:100F8300900080EFF0A3EDF0A3EBF0A3E52FF0A327
:100F9300E530F0A3E531F0A3E532F0A3E533F02229
:06102300900088EFF022AE
:1009A1004100000A4100290A41006D0A040E0000BD
:1009B10000000114004600670000FFFF8FFFC10D1A
:1009C100C105C108C101C10E60240005FF000AFF75
:1009D100000AFF000AFF000AFF000AFF000AFF00E9
:1009E1000AFF000AFF000AFF000AFF000AFF000ACF
:1009F1006036002AFF000AFF000AFF1035FF000AD7
:100A0100FF1035FF000AFF1035FF000AFF000AFF43
:100A1100000AFF1035FF1035FF1035FF1035FF00BC
:0A0A21000AFF000AFF000AFF000AA6
:01000A0022D3
:031035007F002217
:100DD800438E805389F07BE07A2879017800900F60
:100DE800A3120525120E1FEFF404F58A7BE07A287A
:100DF80079017800900FA3120525120E1FC3E49FF6
:100E0800FFE49EFE74019DFDE49CFC780812051128
:070E18008F8CD28CD2A922BD
:03000B00020D865D
:040D8600C0E0C0D039
:100D8A00D5080A75084C300D020514D20DA203725B
:100D9A00045036150AE50A7030850C0AD207300A63
:100DAA0017E50D6007150D438F01801D538FFEC295
:100DBA00B5D51615C20A8011050BE50BD39406406A
:090DCA0008C203E5136002D20621
:050DD300D0D0D0E03299
:100D3300300E47C20E900FA312052578101205112D
:100D43008E1D8F1E900003E0FEA3E0FFE4FCFD7BFD
:100D530019FAF9F81203F4C006C007AE1DAF1EABB3
:100D630007AA06E4F9F8D007D006120E1F7803127B
:100D73000511900065EEF0A3EFF0900065E0FEA38F
:020D8300E0FF8F
:010D8500224B
:09101100900067E0FEA3E0FF225D
:09101A00900067EEF0A3EFF02254
:100FDC0090006BEEF0A3EFF0900069ECF0A3EDF055
:010FEC0022E2
:03103800C2B4221D
:03003B000208EDCB
:1008ED00C0E0C083C082C0D075D000C004C005C0B8
:0308FD0006C0072B
:1009000030DF04C2DF807D30DA04C2DA807630D98D
:100910003DC2D9AFFBEFFEADEB7C00E42DFFEC3E1A
:1009200020000E900001F0A3EFF075DB11D20080E3
:1009300053FE900001E0FCA3E0FDC3EF9DFFEE9CA1
:10094000A3F0A3EFF075DB00C200D20E803630D8E2
:1009500033C2D8900067E07002A3E06022B2B49086
:100960000069E0FEA3E0F5EAEEF5FAA3E0FEA3E0FD
:10097000FF90006AE02FF0900069E03EF08005C231
:04098000B453DAFE94
:10098400D007D006D005D004D0D0D082D083D0E018
:010994003230
:06102900120DD8D2AF2227
:100B5B003004047F0180027F00200A047E018002A2
:100B6B007E00EE5F6074E515C39509506830023660
:100B7B00750D01E515131313541FAB17AA18A919FB
:100B8B00F582758300120334FFE515540704FEEF5D
:100B9B00A806088002C333D8FC30D705751603802E
:100BAB002F751601802AAB17AA18A91975F002E543
:100BBB0015A4F58285F083120334F50DE51575F058
:100BCB0002A429F9EA35F0FA900001120334F51664
:0A0BDB000515D20A22C204438F1050
:010BE50022ED
:10066D00900000E014F0701F740AF0D2059000297C
:10067D00E014F07012740AF0D20890006DE014F0DE
:10068D007005740AF0D20190002AA3E0FAA3E0F9F4
:10069D0012054190002DA3E0FAA3E0F91205419057
:1006AD000039A3E0FAA3E0F9120541900045A3E05B
:1006BD00FAA3E0F9120541900054A3E0FAA3E0F982
:1006CD0012054190005DA3E0FAA3E0F912054190F7
:1006DD00004BA3E0FAA3E0F9120541EF600C900086
:1006ED001DA3E0FAA3E0F912054190004EA3E0FA34
:1006FD00A3E0F9120541EF600E900020A3E0FAA3EC
:10070D00E0F9120541D20BE512D394004016D51233
:10071D003030090C900023A3E0FAA3E0F912054153
:10072D00D20C801D900051A3E0FAA3E0F91205410F
:10073D00EF600E900023A3E0FAA3E0F9120541D279
:0D074D000C900005A3E0FAA3E0F9020541BD
:100A3C0090003FA3E0FAA3E0F9120541900042A315
:100A4C00E0FAA3E0F9120541900033A3E0FAA3E029
:100A5C00F9120541900008A3E0FAA3E0F912054150
:100A6C00900030A3E0FAA3E0F9120541EF600C907E
:100A7C000011A3E0FAA3E0F9120541900036A3E0BF
:100A8C00FAA3E0F9120541EF600C900017A3E0FA0D
:100A9C00A3E0F9120541900048A3E0FAA3E0F91293
:100AAC000541EF600C90001AA3E0FAA3E0F91205DF
:100ABC004130060EC206900026A3E0FAA3E0F9121C
:030ACC00054122BF
:100E630090000BA3E0FAA3E0F912054190003CA324
:100E7300E0FAA3E0F9120541EF600C900014A3E03F
:100E8300FAA3E0F9120541900057A3E0FAA3E0F9B1
:0F0E930012054190005AA3E0FAA3E0F9020541CD
:10000E00AF11AE10AD0FAC0E900060120535900022
:10001E0064E514F0E4F511F510F50FF50EF51490F6
:0B002E00000EA3E0FAA3E0F902054178
:100EA200300705C207120B5B300D05C20D12066D2D
:100EB200300505C205120A3C300805C208120E634D
:100EC200300105C20112000EE5112401F511E435CD
:0E0ED20010F510E4350FF50FE4350EF50E2285
:100BE6008B1A8A1B891CEFB40C005070900BF9F815
:100BF600282873020C1D020C22020C27020C2C0260
:100C06000C31020C36020C3B020C40020C45020C65
:100C16004A020C4F020C5490000580359000088063
:100C26003090000B802B90000E80269000118021C2
:100C3600900017801C900014801790001A80129064
:100C4600001D800D900020800890002380039000F6
:0D0C560026E51AF0A3E51BF0A3E51CF02233
:070003007B017A0079602205
:1005470000C400DC00F701060126014A0172018898
:1005570001B801EE020B024B029302E40310037091
:1005670003DC04160497052605C800DC00F701150F
:100577000126014A0172019F01B801EE022A024BCE
:10058700029302E4033F037003DC04550497052636
:1005970005C8067D00F701150137014A0172019F61
:1005A70001D201EE022A026E029302E4033F03A482
:1005B70003DC045504DD057505C8067D07490106FA
:1005C7000126014A015D018801B801EE020B024BC9
:1005D700029302BA0310037003DC0416049705267E
:1005E7000575062006E007B80126014A0172018851
:1005F70001B801EE022A024B029302E403100370D2
:1006070003DC04550497052605C8062006E007B84D
:1006170008AA014A0172019F01B801EE022A026E7F
:10062700029302E4033F037003DC045504DD05264F
:1006370005C8067D06E007B808AA09B9015D018863
:1006470001B801D2020B024B029302BA03100370E6
:1006570003A40416049705260575062006E0074936
:06066700082D092D0A4DCB
:100A2B004D007103000000000000000000000000FA
:060843008F2C8D2D8B2E81
:10084900120FFCEF60037F0122E52ED394004006CE
:10085900E52E94114028E52ED394174006E52E94F1
:1008690021401BE52ED394274006E52E9431400EF6
:10087900E52ED394375007E52CC394F950037F0331
:1008890022E52E603DC4540F75F007A4FDACF0E5D8
:100899002C75F015A42DFFE5F03CFEE52E54077CE0
:1008A900002FFFEC3EFEEF25E0FFEE33FE745D2FD7
:1008B900F58274DC3EF583E493F530740193F531E8
:1008C9008005E4F530F531AF2F7E007C017D77128C
:1008D9000361AD2D1C120373AD07AC06AF31AE3009
:0308E900120C638B
:0108EC0022E9
:04003E00151F151F56
:10004200120FFCEF70047F0180027F00900071E0CC
:10005200FEB402047D0180027D00ED5F60030203B5
:100062002FEEB4030AE490006FF0A3F002032F9086
:100072000072E0FFB4F3047E0180027E00EFB4F16F
:10008200047F0180027F00EF4E603E900074E0FE2C
:1000920075F06484FFEE75F00A8475F00A84ADF0A1
:1000A200E075F00A84ABF0752F0A900073E0240724
:1000B200F53090006EE0FEC4540F240AF53175321B
:1000C2000AEE5407F533120F83900072E0FFB4F387
:1000D200047E0180027E00EFB4F2047F0180027F81
:1000E20000EF4E7003020188900074E0FD7C007EF8
:1000F200177F70120373A81FA607E6F975F002A412
:10010200FFC390007DE09F90007CE095F05070E08E
:10011200FEA3E0FF7C007D0B120361E9FBFD1203ED
:1001220073A81F08A60790007CE475F0011203DE95
:10013200FED3E5F09BEE94004018A81F08E624F9D0
:10014200FFE47EF0A807088005CEC313CE13D8F9CA
:10015200801FA81F08E6FF740F7E00A8070880050D
:10016200C333CE33CED8F97804CEA2E713CE13D858
:10017200F8A81F08F6A81F08E6FF1210238007E45C
:1001820090007CF0A3F0900078E0FEA3E0FFC39023
:10019200007BE09F90007AE09E4003020329120F49
:1001A200FCEF600302032F900075E0FBA3E0FAA3CB
:1001B200E0F990007AE0FEA3E0F5828E8312033428
:1001C200FFD3943750030202C4EF241024FC507969
:1001D200604524FE700302026F147003020285243C
:1001E2000260030202B3900075E0FBA3E0FAA3E011
:1001F200F990007AE475F0011203C885F082F58364
:10020200120334900073F090007BE004F070989039
:10021200007AE004F08090900075E0FBA3E0FAA37E
:10022200E0F990007AE475F0011203C885F082F5D6
:1002320083120334900074F090007BE004F0706E3F
:1002420090007AE004F00201A9900075E0FBA3E0BF
:10025200FAA3E0F990007AE475F0011203DE85F06A
:1002620082F583120334900072F00201A990007AA1
:10027200E475F0011203C8AFF090006FF0A3EFF045
:100282000201A990006FE0FEA3E0FF4E6012900011
:100292007AEEF0A3EFF0E490006FF0A3F00201A970
:1002A20090007BE004F0700690007AE004F0020116
:1002B200A990007BE004F0700690007AE004F0025E
:1002C20001A9900078E0FEA3E0FFC390007BE09FCD
:1002D20090007AE09E5056900075E0FBA3E0FAA3EE
:1002E200E0F990007AE475F0011203DE85F082F500
:1002F2008312033490006EF0900073E0FFA3E0FDE0
:10030200A3E0FBA3E0FAA3E0F990007AE475F00120
:100312001203DE85F082F583120334F52F90006E0E
:0D032200E0FB12084380069000717403F0A8
:05032F00051F051F225F
:0F0FED0090004274FFF0A37400F0A3743EF02252
:100CDB00900071E0B4030DE490007AF0A3F0A3F060
:100CEB00A3F0C20FEF6004900074F0ED600490006D
:100CFB0073F0E94A60047F0180027F00E5324531E1
:100D0B0060047E0180027E00EE5F6013900075EB45
:100D1B00F0A3EAF0A3E9F0A3E531F0A3E532F0E5A7
:080D2B00336004900072F02215
:100F3B00BF02047E0180027E00BF01047D0180029E
:100F4B007D00ED4EFEBF03047D0180027D00ED4E62
:080F5B006005900071EFF02227
:06102F00900071E0FF22B9
:03000000020ACF22
:0C0ACF00787FE4F6D8FD758135020B1627
:10033400BB010CE58229F582E5833AF583E022507E
:1003440006E92582F8E622BBFE06E92582F8E222C8
:0D035400E58229F582E5833AF583E49322E2
:10036100EF8DF0A4A8F0CF8CF0A428CE8DF0A42EB0
:02037100FE226A
:10037300BC000BBE0029EF8DF084FFADF022E4CC6E
:10038300F875F008EF2FFFEE33FEEC33FCEE9DEC37
:10039300984005FCEE9DFE0FD5F0E9E4CEFD22ED7D
:1003A300F8F5F0EE8420D21CFEADF075F008EF2FC7
:1003B300FFED33FD4007985006D5F0F222C398FDB8
:0503C3000FD5F0EA2255
:1003C800C5F0F8A3E028F0C5F0F8E58215827002C0
:0603D8001583E038F0225D
:1003DE00A3F8E0C5F025F0F0E582158270021583D2
:0603EE00E0C838F0E8222F
:1003F400E88FF0A4CC8BF0A42CFCE98EF0A42CFCA8
:100404008AF0EDA42CFCEA8EF0A4CDA8F08BF0A425
:100414002DCC3825F0FDE98FF0A42CCD35F0FCEB84
:100424008EF0A4FEA9F0EB8FF0A4CFC5F02ECD3949
:0F043400FEE43CFCEAA42DCE35F0FDE43CFC22B6
:1004430075F008758200EF2FFFEE33FECD33CDCC70
:1004530033CCC58233C5829BED9AEC99E5829840F3
:100463000CF582EE9BFEED9AFDEC99FC0FD5F0D6D0
:10047300E4CEFBE4CDFAE4CCF9A88222B800C1B9FA
:100483000059BA002DEC8BF084CFCECDFCE5F0CB38
:10049300F97818EF2FFFEE33FEED33FDEC33FCEB71
:1004A30033FB10D703994004EB99FB0FD8E5E4F92C
:1004B300FA227818EF2FFFEE33FEED33FDEC33FC19
:1004C300C933C910D7059BE99A4007EC9BFCE99A0D
:1004D300F90FD8E0E4C9FAE4CCFB2275F010EF2F52
:1004E300FFEE33FEED33FDCC33CCC833C810D70752
:1004F3009BEC9AE899400AED9BFDEC9AFCE899F88D
:0E0503000FD5F0DAE4CDFBE4CCFAE4C8F9221F
:100E1F00C2D5E830E70FB2D5E4C39BFBE49AFAE4FE
:100E2F0099F9E498F8EC30E717B2D5120E55120481
:100E3F007FE4C39BFBE49AFAE499F9E498F8800302
:100E4F0012047F30D50DE4C39FFFE49EFEE49DFDA9
:040E5F00E49CFC22F1
:10051100E86010ECA2E713FCED13FDEE13FEEF1300
:04052100FFD8F022ED
:10052500E493FC740193FD740293FE740393FF221C
:0C053500ECF0A3EDF0A3EEF0A3EFF02239
:060541008A838982E47345
:100ADB00020EE0E493A3F8E493A34003F68001F243
:100AEB0008DFF48029E493A3F85407240CC8C3331C
:100AFB00C4540F4420C8834004F456800146F6DFEB
:100B0B00E4800B0102040810204080900995E47EDC
:100B1B00019360BCA3FF543F30E509541FFEE493DF
:100B2B00A360010ECF54C025E060A840B8E493A3A6
:100B3B00FAE493A3F8E493A3C8C582C8CAC583CAD1
:100B4B00F0A3C8C582C8CAC583CADFE9DEE780BE89
:010A3B0000BA
:00000001FF
