:10169C0048656C6C6F210D0A00B4F3BCD2BAC30D53
:1016AC000A0000A8C0003F065B4F666D7D077F6F88
:1016BC00000840014148BF86DBCFE6EDFD87FFEF18
:1016CC00F5FA2504250425182504250425182504D8
:1016DC00250425082408230822082110F6150C15CA
:1016EC00042110151023102110251826082510256B
:1016FC000C250431103110260C250424082608254D
:10170C0030250C2504261026102210220C2204252C
:10171C001824082310150C15042510250826082557
:10172C00082408230822082130250C250431103107
:10173C00102610260C2504241825082610220C220D
:10174C00042510250826082508240823082208212A
:10175C00380008210C1508231023180008230C212D
:10176C0004261026180008161816082210220C231E
:10177C000422082108270826081520211015101608
:10178C000816101508211022102310001022102604
:10179C0008260825082510230822102610251000DD
:1017AC00082108310C310431082508261831082687
:1017BC000C25042408250825100010310C310431A7
:1017CC000831082510250826082508240823082296
:1017DC00082110F5FBF464F7AA5503BB05FF00FFC5
:0C17EC0007453000090609012101230A0D
:102A2700784C7C007D007BFF7A1779E67E007F0675
:102A37001206A97F01123416EF7F00FEC006C007F9
:102A47007F02123416EFFDD0E02DFFD0E03400FEF8
:102A5700D3EF9438EE940450047D0180027D00C3C7
:102A6700EF9466EE940340047C0180027C00EC5DE9
:102A770060048E4C8F4D7F03123416EFC3940F50B2
:092A8700028F4E7B007A00794CAD
:012A90002223
:10309600784D7C007D007B007A0079257E007F06D6
:0330A6001206A966
:1030A900E54DFD7F011230BFAD4E7F021230BFAD3D
:0630B9004F7F030230BF4F
:10206800123588EF7003022144E52DB455047F0131
:1020780080027F00E52CB4AA047E0180027E00EE77
:102088005F700302212CE52E240E606414606C241A
:10209800026003022122AD2FAB30EDC4540F75F05E
:1020A8000AA4FFED540F7C002FFFEC35F0FE7D6491
:1020B800120737AC06AD07EBC4540F75F00AA4FF3E
:1020C800EB540F7A002FFFEA35F0CF2DF526EF3CC1
:1020D800F52585312778527C007D007B007A0079D0
:1020E800257E007F061206A91221FD123096802A4D
:1020F800852F478530468531458009852F4B8530AA
:102108004985314878537C007D007B007A00794509
:102118007E007F071206A912335674042532F53261
:102128007D1E80027D147C007FE87E031228C17B1F
:0C213800007A00792C7D087C00123160D8
:012144002278
:100CA600E53464047003020F4FD5230375230AE568
:100CB6003424FE605F147003020D5E24FE7003028E
:100CC6000DC9147003020E34147003020E78240644
:100CD6006003020F0DE535701012355D78457C0016
:100CE6007D007E007F071206A9E54BC4540FF54C24
:100CF600E54B540FF54D754E0CE549C4540FF54FB1
:100D0600E549540FF55075510CE548C4540FF5529A
:100D1600E548803DE535701012355D78457C007DEF
:100D2600007E007F071206A9E547C4540FF54CE57F
:100D360047540FF54D754E0CE546C4540FF54FE577
:100D460046540FF55075510CE545C4540FF552E560
:100D560045540FF553020F0D12354F783B7C007D3D
:100D6600007E007F0A1206A9AE3FAF407C007D647C
:100D76001207498F4CAE3FAF407C007D0A120749EF
:100D86007C007D0A1207498D4DAE3FAF407C007D49
:100D96000A1207498D4E754F0A75500AAE41AF4289
:100DA6007C007D641207498F51AE41AF427C007DC5
:100DB6000A1207497C007D0A1207498D52AE41AFDF
:100DC60042805FE52775F00A84F54C7003754C0A7E
:100DD600E52775F00A8485F04D754E0A754F0AAE03
:100DE60025AF267C037DE81207498F50E550700336
:100DF60075500AAE25AF267C007D641207497C003B
:100E06007D0A1207498D51AE25AF267C007D0A1258
:100E160007497C007D0A120749ED2410F552AE25DC
:100E2600AF267C007D0A1207498D53020F0D122B47
:100E36009E8E548F55754C0A754D0A754E0A754F20
:100E46000A7C037DE812079E8F50E55070037550AB
:100E56000AAE54AF557C037DE812079E8C548D551F
:100E6600AE54AF557C007D6412079EEF2410F551F9
:100E7600806C12353D8E548F55754C0A754D0A752A
:100E86004E0AC3E55464809480500EC3E49555F52C
:100E960055E49554F554754E0CAE54AF557C277DEC
:100EA6001012079E8F4FAE54AF557C277D10120748
:100EB6009E8C548D55AE54AF557C037DE812079E2B
:100EC6008F50AE54AF557C037DE812079E8C548D2F
:100ED60055AE54AF557C007D6412079E8F51AE54BB
:100EE600AF557C007D6412079E8C548D55AE54AF71
:100EF600557C007D0A12079E8F52AE54AF557C007A
:100F06007D0A12079E8D53E523C394084023E535D9
:100F160024FE600F14601424027016754C0A754D79
:100F26000A800E754F0A75500A800675520A755367
:100F36000A854F5985505A85515B85525C85535DAC
:090F4600AB4EAD4DAF4C12323739
:010F4F00227F
:10005600E53414700302027224FD700302048D1449
:100066007003020528240360030205A17F01122CF8
:10007600D2BF0116E5356012C39403500D05357DD8
:10008600147C007FE87E031228C17F04122CD2BFA5
:100096000116E5356012D39401400D15357D147CAB
:1000A600007FE87E031228C17F05122CD2EF64017F
:1000B6006003020184E5356401703DE547C4540FD1
:1000C60075F00AA4FFE547540F2FF54C054CE54C97
:1000D600C394184003E4F54CE54C75F00A84C45407
:1000E600F0FFE54C75F00A84EF25F0F5477D147CAA
:1000F600007FE87E031228C1E5356402703DE546BF
:10010600C4540F75F00AA4FFE546540F2FF54C05AD
:100116004CE54CC3943C4003E4F54CE54C75F00AC1
:1001260084C454F0FFE54C75F00A84EF25F0F546DB
:100136007D147C007FE87E031228C1E535640370D8
:100146003DE545C4540F75F00AA4FFE545540F2F4D
:10015600F54C054CE54CC3943C4003E4F54CE54CAA
:1001660075F00A84C454F0FFE54C75F00A84EF2557
:10017600F0F5457D147C007FE87E031228C17F02DE
:10018600122CD2EF64016003020251E5356401705E
:100196003AE547C4540F75F00AA4FFE547540F2FFC
:1001A600F54CFF154CEF7003754C17E54C75F00ACE
:1001B60084C454F0FFE54C75F00A84EF25F0F5474A
:1001C6007D147C007FE87E031228C1E53564027049
:1001D6003AE546C4540F75F00AA4FFE546540F2FBE
:1001E600F54CFF154CEF7003754C3BE54C75F00A6A
:1001F60084C454F0FFE54C75F00A84EF25F0F5460B
:100206007D147C007FE87E031228C1E53564037007
:100216003AE545C4540F75F00AA4FFE545540F2F7F
:10022600F54CFF154CEF7003754C3BE54C75F00A29
:1002360084C454F0FFE54C75F00A84EF25F0F545CB
:100246007D147C007FE87E031228C17F03122CD226
:10025600EF640160030205A17D14FC7FE87E0312B2
:1002660028C1E535700302046E0204747F01122C66
:10027600D2BF0116E5356012C39403500D05357DD6
:10028600147C007FE87E031228C17F04122CD2BFA3
:100296000116E5356012D39401400D15357D147CA9
:1002A600007FE87E031228C17F05122CD2EF64017D
:1002B6006003020384E5356401703DE54BC4540FC9
:1002C60075F00AA4FFE54B540F2FF54C054CE54C91
:1002D600D394634003E4F54CE54C75F00A84C454AA
:1002E600F0FFE54C75F00A84EF25F0F54B7D147CA4
:1002F600007FE87E031228C1E5356402703DE549BA
:10030600C4540F75F00AA4FFE549540F2FF54C05A8
:100316004CE54CD3940C4003754C01E54C75F00A42
:1003260084C454F0FFE54C75F00A84EF25F0F549D6
:100336007D147C007FE87E031228C1E535640370D6
:100346003DE548C4540F75F00AA4FFE548540F2F45
:10035600F54C054CE54CD3941F4003754C01E54C18
:1003660075F00A84C454F0FFE54C75F00A84EF2555
:10037600F0F5487D147C007FE87E031228C17F02D9
:10038600122CD2EF64016003020453E53564017058
:100396003AE54BC4540F75F00AA4FFE54B540F2FF2
:1003A600F54CFF154CEF7003754C63E54C75F00A80
:1003B60084C454F0FFE54C75F00A84EF25F0F54B44
:1003C6007D147C007FE87E031228C1E53564027047
:1003D6003BE549C4540F75F00AA4FFE549540F2FB5
:1003E600F54CFF154CEFB40103754C0CE54C75F05C
:1003F6000A84C454F0FFE54C75F00A84EF25F0F545
:10040600497D147C007FE87E031228C1E53564032C
:10041600703BE548C4540F75F00AA4FFE548540F35
:100426002FF54CFF154CEFB40103754C1FE54C75C9
:10043600F00A84C454F0FFE54C75F00A84EF25F009
:10044600F5487D147C007FE87E031228C17F0312E5
:100456002CD2EF640160030205A17D14FC7FE87EC7
:10046600031228C1E53570067535030205A1E4F5CA
:100476003578537C00FDFB7A007945FE7F0712062E
:10048600A91233560205A17F01122CD2BF010DE538
:1004960024D394D25006740A2524F5247F04122C02
:1004A600D2BF010DE524C3943C400674F62524F51D
:1004B600247F05122CD2BF0109E52BC394FF5002FD
:1004C600052B7F02122CD2BF0109E52BD394F940EC
:1004D60002152B7B007A007900E4F552F553F554AA
:1004E600AD2BAF24122B467F03122CD2EF64016092
:1004F600030205A1123576BF01047F02801E123564
:1005060076BF03167BFF7A1679CC755201755318A0
:100516007554F1AD2BAF24122B467F011231100218
:1005260005A17F01122CD2BF0113C3E5269438E53D
:1005360025940450080526E526700205257F041239
:100546002CD2BF0113D3E5269477E5259403400802
:10055600E5261526700215257F05122CD2BF010946
:10056600E527C3940F500205277F02122CD2BF0144
:1005760009E527D394004002152778527C007D00B8
:100586007B007A0079257E007F061206A91221FDDE
:100596007F03122CD2BF0103123096E4FF122CD235
:1005A600EF6402702D12355678367C007D007E0091
:1005B6007F051206A912350EEF700C7BFF7A1679AD
:1005C6009C7D09FC1231607D147C007FE87E03125D
:0205D60028C13A
:0105D8002200
:102145007F01122DE6EF640160030221DE7D14FCA0
:102155007FE87E031228C10534E534D39407400394
:10216500753401E4F535AF3412356AAD34E4FF1248
:1021750033B5E53464047035123576BF031A7559E5
:102185000C755A0C755B0C755C0A755D0A7B0C7DCC
:102195000A7F0A12323780157B007A007900E4F550
:1021A50052F5537554F1AD2BAF24122B46E534B4DB
:1021B50005137B007A007900E4F552F5537554F068
:1021C500FDFF122B46E534B40705E4FF122EE2E5C8
:1021D50034B406057F03122EE2E4FF122DE6BF019B
:1021E500167BFF7A1679A57D09122E657D647C0024
:0821F5007FE87E031228C122DD
:1033CA00123503EF700D0532FB7A00792C7D08FC6B
:0433DA0012300E227D
:10000E00123306EF700E05320532FB7A00792C7D25
:05001E0008122E65220E
:030026000220684D
:0100290022B4
:01002A0022B3
:03003E00020CA60B
:01004100229C
:01004200229B
:03357C00020056F4
:03357F00022145E1
:10340400120003BF010B7D647C007F467E051228F9
:02341400C122D3
:10339F00123469EF600F123576BF02047F0180028D
:0633AF007F021231102222
:101542001232941232771232B1123322123217123D
:1015520034787F98122F4A12336F784C7C007D00CA
:101562007B007A0079457E007F071206A9121CAD26
:101572007F2B1234597F007EC27D017C001229B07C
:101582007550017F607E097D007C001222B37BFFD3
:101592007A35797F7F041228447BFF7A007929E427
:1015A200FF1228447BFF7A00792A7F011228447BAC
:1015B200FF7A00793E7F021228447BFF7A0079414C
:1015C2007F031228447BFF7A3479047F0512284472
:1015D2007BFF7A33799F7F061228447BFF7A357925
:1015E2007C7F071228447BFF7A3379CA7F0912284D
:1015F200447BFF7A00790E7F0A1228447BFF7A002F
:1016020079427F081228447BFF7A0079267F0B12E9
:1016120028447D07E4FF1235227551FF7552177574
:1016220053E47554007555027B007A00792C7D08CD
:101632007C00122FDD7551FF7552177553E47554F6
:10164200007555027B007A00792C7D087C00122FF0
:10165200AC7B007A00792C7D08123546122A277855
:10166200257C007D007E007F061206A9784C7C0056
:101672007D007B007A0079257E007F061206A91282
:10168200318875245A752BFCE4FF1232CE8F341246
:0A169200356A123570122EA480FB99
:093519008B88898C88898F8889D0
:1017F80052007A868600868600868600868600865F
:09180800860086860041006F098C
:03002B0002356437
:0635640053BCEFD20F3250
:021396001570D0
:10139800200F0302153FC20F90006EE0B409004011
:1013A800030215219013B3F82828730213FA0213C5
:1013B800CE0213E002140C0213CE0213E00214232F
:1013C8000213CE0213E0AFBDEFFEADBE7C00E42DEC
:1013D800FFEC3E900070803CAFBDEFFEADBE7C00E0
:1013E800E42DFFEC3E900072F0A3EFF07568010267
:1013F8001527AFBDEFFEADBE7C00E42DFFEC3E909F
:1014080000748010AFBDEFFEADBE7C00E42DFFEC94
:101418003E900076F0A3EFF0021527AFBDEFFEADCA
:10142800BE7C00E42DFFEC3E900078F0A3EFF09036
:101438000078E0FEA3E07807CEC313CE13D8F9A84E
:1014480070F6C394065013A870E675F003A4247AC6
:10145800F582E43400F583E014F090006FE014F0B6
:1014680060030215277409F0A870E4F6A870E6FF77
:10147800C394064003021527EF75F003A4247AF5F8
:1014880082E43400F583E0C39480502AE6FF75F0C7
:1014980003A4247BF582E43400F583E0D3948040F0
:1014A80040EF75F003A4247CF582E43400F58374DE
:1014B80001F0F569802BA870E6FF75F003A4247B82
:1014C800F582E43400F583E0C394805014EF75F09E
:1014D80003A4247CF582E43400F5837402F0756972
:1014E80001A870E6FF75F003A4247AF582E43400BD
:1014F800F583E0FEEF75F003A4247BF582E4340065
:10150800F583EEF0E675F003A4247AF582E434005E
:10151800F5837486F00602147490006E74FFF090E0
:10152800006EE0D39407400374FFF090006EE0046F
:07153800F090351993F5BC9A
:03153F0005702212
:0234A5001570A0
:0934A700A870A669E4F569E6FFCE
:0334B00005702282
:0234B300157092
:0934B500A870A668E4F568E6FFC2
:0334BE0005702274
:102F4A008F9D75BC88439720D2AD90004574FFF0E1
:102F5A00A37413F0A37496F0A374FFF0A37434F06F
:102F6A00A374A5F0A374FFF0A37434F0A374B3F0B0
:012F7A002234
:07354F007B017A0079702274
:102CD200C3EF64809480403BD3EF6480948550338B
:102CE200EFFD3395E0FC90007C75F003ED12099E38
:102CF200EC75F003A42583F583E0FE90007C75F06B
:102D020003ED12099EEC75F003A42583F583E4F02C
:052D1200AF06227F0363
:012D17002299
:0430E80015701570DA
:1030EC0012352BA870A60608A607A870E6FE08E6FF
:0F30FC00FF4E600BEF24FFFFEE34FFFE12353462
:05310B000570057022B3
:1032170053B1EF43B210123585E4F5D975DA49D2C7
:10322700DE90003F74FFF0A37430F0A374E8F0223F
:0828C1008E528F538C548D558B
:1028C90012352BEF4E7066AF55AE54123534C3E551
:1028D90053940AE5529400404BE47B18FAF9F890B6
:1028E90016AE1209821208B6C006C007AE52AF531F
:1028F900AB07AA06E4F9F8D007D0061208B6AB0769
:10290900AA06AFF9EFFEADE97C00E42DFFEC3ECF5E
:102919002BCF3AAD07FCAF03AE02123428D2D8430D
:0F292900DA01800612358553DAFE7F02227F0322
:01293800227C
:0C34EB0012352BEF4E7002FF227F0122F1
:101E9800E4F5809000E7E0FFB40800505F901EACC6
:101EA800F8282873021EC4021ECA021ED0021ED6BB
:101EB800021EDC021EE6021EF0021EFAC2A3C2A225
:101EC8008016C2A3C2A2801AC2A3C2A2801EC2A345
:101ED800C2A28022C2A3D2A2C2A1C2A08020C2A351
:101EE800D2A2C2A1D2A08016C2A3D2A2D2A1C2A05D
:101EF800800CC2A3D2A2D2A1D2A08002D2A3C3EFE7
:101F08006480948850299000E7E0FF3395E0FE74E0
:101F1800DE2FF58274003EF583E0FF3395E0FE7412
:101F2800B22FF58274163EF583E493F580801E90F7
:101F380000E7E0FFB408133395E0FE74DE2FF58266
:101F480074003EF583E0F5808003E4F5809000DDC1
:101F5800E0FF9000E7E004FEF0D3EF6480F8EE6461
:101F680080984014E0D36480948850047408F02268
:091F78009000DCE09000E7F0228B
:10332200E4F5937594FF5395F043960F90002A7439
:0B333200FFF0A3741EF0A37498F022BB
:093522009000DCEFF0A3EDF022B3
:103237009000DEEFF0A3EDF0A3EBF0A3E559F0A3C8
:10324700E55AF0A3E55BF0A3E55CF0A3E55DF022AA
:06356A009000E6EFF022E4
:10181100016C004101120041010F0541011083419A
:031821000111832F
:102D1800209206900110E014F090010FE014F0707A
:102D2800347405F0A3E0FFC39480500EA3E09480B0
:102D38004018A37401F0F56C8010900111E0C39461
:102D4800805007A37402F0756C01900111EFF090A8
:052D580001107483F07E
:012D5D002253
:0234C100157084
:0934C300A870A66CE4F56CE6FFAC
:0334CC0005702266
:1032770090003674FFF0A37434F0A374C1F090008B
:0D3287003374FFF0A3742DF0A37418F0222F
:07000300900112E0FFE4F0A0
:01000A0022D3
:10182400016D004900F49494009494009494004150
:0318340000F31EA0
:021B8A001570D4
:101B8C0020B2069000F4E014F020B3069000F7E0C9
:101B9C0014F02097069000FAE014F09000F3E01493
:101BAC00F06003021CAA741EF0A870E4F6A870E69C
:101BBC00FFC3648094834003021CAAEF3395E0FEBC
:101BCC009000F475F003EF12099EEE75F003A42556
:101BDC0083F583E0C3948050399000F575F003EFE2
:101BEC0012099EEE75F003A42583F583E0D394804F
:101BFC00405AE6FF3395E0FE9000F675F003EF12C5
:101C0C00099EEE75F003A42583F5837401F0F56D40
:101C1C00803AA870E6FF3395E0FE9000F575F0036E
:101C2C00EF12099EEE75F003A42583F583E0C394AF
:101C3C008050199000F675F003EF12099EEE75F0C6
:101C4C0003A42583F5837402F0756D01A870E6FF7B
:101C5C00FD3395E0FC9000F475F003ED12099EEC59
:101C6C0075F003A42583F583E0FE9000F575F00371
:101C7C00ED12099EEC75F003A42583F583EEF0EFCD
:101C8C003395E0FE9000F475F003EF12099EEE75AB
:0E1C9C00F003A42583F5837494F006021BB9AF
:031CAA00057022A0
:0234CF00157076
:0934D100A870A66DE4F56DE6FF9C
:0334DA0005702258
:1032940090003074FFF0A37434F0A374CFF0900066
:0D32A4002D74FFF0A3741BF0A3748AF022B8
:102DE600EF600764016003BF0233EFFD3395E0FC3B
:102DF6009000F675F003ED12099EEC75F003A4251C
:102E060083F583E0FE9000F675F003ED12099EEC63
:0F2E160075F003A42583F583E4F0AF06227F0354
:012E2500228A
:1018370055008D00000000000000000000000000BF
:0C184700000000000000000041008C00C8
:020F500015701A
:100F5200A870E4F6A870E6FFC3648094834003029D
:100F620011C1EF3395E0FE90008D75F007EF120985
:100F72009EEE75F007A42583F583E0FCA3E04C7098
:100F8200030211BB90008F75F007EF12099EEE75F8
:100F9200F007A42583F583E0FEA3E04E700302115F
:100FA200BBE6FFFD3395E0FC90009175F007ED1272
:100FB200099EEC75F007A42583F58374FFF5F01202
:100FC20007D445F060030211BB90008F75F007ED66
:100FD20012099EEC75F007A42583F583E0FAA3E0DD
:100FE200FB90009175F007ED12099EEC75F007A4D5
:100FF2002583F583EAF0A3EBF0EF3395E0FE900052
:101002008D75F007EF12099EEE75F007A42583F5A2
:1010120083E0FCA3E0D39400EC648094804056A863
:1010220070E6FD3395E0FC90008D75F007ED120936
:101032009EEC75F007A42583F58374FFF5F0120783
:10104200D490009375F007ED12099EEC75F007A499
:101052002583F583E004F0D364809483407290008A
:101062009375F007EF12099EEE75F007A42583F53C
:1010720083E4F0805BA870E6FFFD3395E0FC90000E
:101082008D75F007ED12099EEC75F007A42583F526
:1010920083E475F0011207D490009375F007ED1206
:1010A200099EEC75F007A42583F583E014F0C36470
:1010B200809480501BEF3395E0FE90009375F0070B
:1010C200EF12099EEE75F007A42583F5837403F0F1
:1010D200A870E6FFFD3395E0FC90009375F007EDF4
:1010E20012099EEC75F007A42583F583E014603C99
:1010F200146066147003021188240360030211B3A2
:10110200EF146010146019240260030211B3D2C1FB
:10111200C2C2802990008CE054F04401F00211B365
:1011220090008CE0540F4410F00211B3A870E61442
:10113200601114601924027078C2C1D2C2C2C3C243
:10114200C4806E90008CE054F04402F08063900002
:101152008CE0540F4420F08058A870E614601114FB
:1011620060192402704BC2C1C2C2D2C3C2C4804140
:1011720090008CE054F04404F0803690008CE054EF
:101182000F4440F0802BA870E614601114601924FB
:1011920002701EC2C1C2C2C2C3D2C4801490008CEB
:1011A200E054F04408F0800990008CE0540F448031
:0F11B200F090008CE0FF12356AA87006020F560D
:0311C10005702294
:10336F0053B3E143B41E53C0E190005474FFF0A374
:08337F00740FF0A37450F0225A
:102368008F6EEF3395E0FE90008D75F007EF120940
:102378009EEE75F007A42583F583E0FEA3E04E608A
:1023880003022410E56E600A64016006E56E6402CB
:102398007076ED60737C007E037FE8120749AD6EAE
:1023A800ED3395E0FC90008F75F007ED12099EEC77
:1023B80075F007A42583F583EEF0A3EFF090008F66
:1023C80075F007ED12099EEC75F007A42583F583D7
:1023D800E0FEA3E0FF90009175F007ED12099EEC76
:1023E80075F007A42583F583EEF0A3EFF090008D38
:1023F80075F007ED12099EEC75F007A42583F583A7
:0B240800EAF0A3EBF07F02227F03222A
:102C4300EF600764016003BF023AEFFD3395E0FCD8
:102C530090008D75F007ED12099EEC75F007A42521
:102C630083F583E0FAA3E0FB90008D75F007ED1286
:102C7300099EEC75F007A42583F583E4F0A3F0AE79
:072C830002AF0322E4FEFF93
:012C8A002227
:102F1800EF600764016003BF0225EF3395E0FE9080
:102F2800008D75F007EF12099EEE75F007A4258352
:102F3800F583E0FEA3E04E60037F01227F00227F3D
:022F4800032262
:101853004100000A4100290A41006D0A040E0000FC
:1018630000000114004600670000FFFF8FFFC10D59
:10187300C105C108C101C10E60240005FF358BFFFE
:10188300358BFF358BFF358BFF358BFF358BFF3565
:101893008BFF358BFF358BFF358BFF358BFF358BFF
:1018A3006036002AFF358BFF358BFF3582FF358B82
:1018B300FF3582FF358BFF3582FF358BFF358BFF7D
:1018C300358BFF3582FF3582FF3582FF3582FF3549
:0A18D3008BFF358BFF358BFF358B43
:01358B00221D
:033582007F0022A5
:102C8B00438E805389F07BE07A2879017800901687
:102C9B00AE120982122DA2EFF404F58A7BE07A289A
:102CAB00790178009016AE120982122DA2C3E49F0F
:102CBB00FFE49EFE74019DFDE49CFC780812095B09
:072CCB008F8CD28CD2A922EC
:03000B00022BF1D4
:042BF100C0E0C0D0B0
:102BF500D5080A75084C300D020514D20DA20372D2
:102C0500045036150AE50A7030850C0AD207300AD9
:102C150017E50D6007150D438F01801D538FFEC20B
:102C2500B5D51615C20A8011050BE50BD3940640E0
:092C350008C203E5136002D20697
:052C3E00D0D0D0E0320F
:102B9E00300E47C20E9016AE120982781012095BE3
:102BAE008E568F57900003E0FEA3E0FFE4FCFD7B02
:102BBE0019FAF9F812082BC006C007AE56AF57AB7C
:102BCE0007AA06E4F9F8D007D006122DA278031250
:102BDE00095B900065EEF0A3EFF0900065E0FEA3B8
:022BEE00E0FF06
:012BF00022C2
:09352B00900067E0FEA3E0FF221E
:09353400900067EEF0A3EFF02215
:1034280090006BEEF0A3EFF0900069ECF0A3EDF0E4
:013438002271
:03358500C2B422AB
:03003B000224BDDF
:1024BD00C0E0C083C082C0D075D000C004C005C0CC
:0324CD0006C0073F
:1024D00030DF04C2DF807D30DA04C2DA807630D9A2
:1024E0003DC2D9AFFBEFFEADEB7C00E42DFFEC3E2F
:1024F00020000E900001F0A3EFF075DB11D20080F8
:1025000053FE900001E0FCA3E0FDC3EF9DFFEE9CB5
:10251000A3F0A3EFF075DB00C200D20E803630D8F6
:1025200033C2D8900067E07002A3E06022B2B4909A
:102530000069E0FEA3E0F5EAEEF5FAA3E0FEA3E011
:10254000FF90006AE02FF0900069E03EF08005C245
:04255000B453DAFEA8
:10255400D007D006D005D004D0D0D082D083D0E02C
:012564003244
:06357000122C8BD2AF22E9
:1027B9003004047F0180027F00200A047E01800228
:1027C9007E00EE5F6074E515C395095068300236E6
:1027D900750D01E515131313541FAB17AA18A91981
:1027E900F5827583001206E8FFE515540704FEEF2C
:1027F900A806088002C333D8FC30D70575160380B4
:102809002F751601802AAB17AA18A91975F002E5C8
:1028190015A4F58285F0831206E8F50DE51575F026
:1028290002A429F9EA35F0FA9000011206E8F51632
:0A2839000515D20A22C204438F10D5
:012843002272
:101DAB00900000E014F0701F740AF0D20590002927
:101DBB00E014F07012740AF0D20890006DE014F089
:101DCB007005740AF0D20190002AA3E0FAA3E0F99F
:101DDB001209AA90002DA3E0FAA3E0F91209AA9028
:101DEB000039A3E0FAA3E0F91209AA900045A3E099
:101DFB00FAA3E0F91209AA900054A3E0FAA3E0F9C0
:101E0B001209AA90005DA3E0FAA3E0F91209AA90C7
:101E1B00004BA3E0FAA3E0F91209AAEF600C9000C3
:101E2B001DA3E0FAA3E0F91209AA90004EA3E0FA71
:101E3B00A3E0F91209AAEF600E900020A3E0FAA329
:101E4B00E0F91209AAD20BE512D394004016D51271
:101E5B003030090C900023A3E0FAA3E0F91209AA91
:101E6B00D20C801D900051A3E0FAA3E0F91209AA4D
:101E7B00EF600E900023A3E0FAA3E0F91209AAD2B7
:0D1E8B000C900005A3E0FAA3E0F90209AAFB
:10260A0090003FA3E0FAA3E0F91209AA900042A3BE
:10261A00E0FAA3E0F91209AA900033A3E0FAA3E0D2
:10262A00F91209AA900008A3E0FAA3E0F91209AA8C
:10263A00900030A3E0FAA3E0F91209AAEF600C9027
:10264A000011A3E0FAA3E0F91209AA900036A3E068
:10265A00FAA3E0F91209AAEF600C900017A3E0FAB6
:10266A00A3E0F91209AA900048A3E0FAA3E0F9123C
:10267A0009AAEF600C90001AA3E0FAA3E0F9120984
:10268A00AA30060EC206900026A3E0FAA3E0F912C9
:03269A0009AA2268
:102E260090000BA3E0FAA3E0F91209AA90003CA3D4
:102E3600E0FAA3E0F91209AAEF600C900014A3E0EF
:102E4600FAA3E0F91209AA900057A3E0FAA3E0F961
:0F2E56001209AA90005AA3E0FAA3E0F90209AA10
:10306B00AF11AE10AD0FAC0E900060120992900034
:10307B0064E514F0E4F511F510F50FF50EF5149069
:0B308B00000EA3E0FAA3E0F90209AA7E
:102EA400300705C2071227B9300D05C20D121DAB3C
:102EB400300505C20512260A300805C208122E265E
:102EC400300105C20112306BE5112401F511E4351E
:0E2ED40010F510E4350FF50FE4350EF50E2263
:102844008B4C8A4D894EEFB40C005070902857F889
:1028540028287302287B02288002288502288A02FD
:10286400288F02289402289902289E0228A302286D
:10287400A80228AD0228B290000580359000088097
:102884003090000B802B90000E8026900011802148
:10289400900017801C900014801790001A801290EA
:1028A400001D800D9000208008900023800390007C
:0D28B40026E54CF0A3E54DF0A3E54EF02223
:073556007B017A007960227D
:0718DD00016F00410113003F
:0D002E0020A409756F019001137401F022E8
:0234DD00157068
:0934DF00A870A66FE4F56FE6FF8A
:0334E8000570224A
:1032B10090003C74FFF0A37434F0A374DDF090002F
:0D32C1003974FFF0A37400F0A3742EF02206
:023469001570DC
:0A346B00900113E0A870F6FFE4F0F2
:03347500057022BD
:101A640000C400DC00F701060126014A0172018866
:101A740001B801EE020B024B029302E4031003705F
:101A840003DC04160497052605C800DC00F70115DD
:101A94000126014A0172019F01B801EE022A024B9C
:101AA400029302E4033F037003DC04550497052604
:101AB40005C8067D00F701150137014A0172019F2F
:101AC40001D201EE022A026E029302E4033F03A450
:101AD40003DC045504DD057505C8067D07490106C8
:101AE4000126014A015D018801B801EE020B024B97
:101AF400029302BA0310037003DC0416049705264C
:101B04000575062006E007B80126014A017201881E
:101B140001B801EE022A024B029302E4031003709F
:101B240003DC04550497052605C8062006E007B81B
:101B340008AA014A0172019F01B801EE022A026E4D
:101B4400029302E4033F037003DC045504DD05261D
:101B540005C8067D06E007B808AA09B9015D018831
:101B640001B801D2020B024B029302BA03100370B4
:101B740003A40416049705260575062006E0074904
:061B8400082D092D0A4D99
:1018E4004D00CF03000000000000000000000000D5
:062413008F4C8D4D8B4E35
:102419001234EBEF60037F0122E54ED394004006AE
:10242900E54E94114028E54ED394174006E54E94A5
:1024390021401BE54ED394274006E54E9431400ECA
:10244900E54ED394375007E54CC394F950037F0305
:1024590022E54E603DC4540F75F007A4FDACF0E5CC
:102469004C75F015A42DFFE5F03CFEE54E54077CB4
:10247900002FFFEC3EFEEF25E0FFEE33FE747A2FCE
:10248900F58274F13EF583E493F550740193F551A7
:102499008005E4F550F551AF4F7E007C017D771240
:1024A9000737AD4D1C120749AD07AC06AF51AE5009
:0324B9001228C125
:0124BC0022FD
:0409B0001570157039
:1009B4001234EBEF70047F0180027F009000CFE0DF
:1009C400FEB402047D0180027D00ED5F6003020C31
:1009D400A1EEB4030AE49000CDF0A3F0020CA190C0
:1009E40000D0E0FFB4F3047E0180027E00EFB4F196
:1009F400047F0180027F00EF4E603E9000D2E0FE53
:100A040075F06484FFEE75F00A8475F00A84ADF025
:100A1400E075F00A84ABF075590A9000D1E0240720
:100A2400F55A9000CCE0FEC4540F240AF55B755CC3
:100A34000AEE5407F55D1232379000D0E0FFB4F3AC
:100A4400047E0180027E00EFB4F2047F0180027F05
:100A540000EF4E7003020AFA9000D2E0FD7C007EA3
:100A6400177F70120749A870A607E6F975F002A46B
:100A7400FFC39000DBE09F9000DAE095F05070E057
:100A8400FEA3E0FF7C007D0B120737E9FBFD120794
:100A940049A87008A6079000DAE475F0011207EA85
:100AA400FED3E5F09BEE94004018A87008E624F904
:100AB400FFE47EF0A807088005CEC313CE13D8F94F
:100AC400801FA87008E6FF740F7E00A80708800541
:100AD400C333CE33CED8F97804CEA2E713CE13D8DD
:100AE400F8A87008F6A87008E6FF12356A8007E4D3
:100AF4009000DAF0A3F09000D6E0FEA3E0FFC390EC
:100B040000D9E09F9000D8E09E4003020C9B123471
:100B1400EBEF6003020CA19000D3E0FBA3E0FAA387
:100B2400E0F99000D8E0FEA3E0F5828E831206E897
:100B3400FFD394375003020C36EF241024FC507971
:100B4400604524FE7003020BE1147003020BF724CA
:100B5400026003020C259000D3E0FBA3E0FAA3E0BB
:100B6400F99000D8E475F0011207D485F082F5837A
:100B74001206E89000D1F09000D9E004F07098904B
:100B840000D8E004F080909000D3E0FBA3E0FAA347
:100B9400E0F99000D8E475F0011207D485F082F5ED
:100BA400831206E89000D2F09000D9E004F0706E51
:100BB4009000D8E004F0020B1B9000D3E0FBA3E00C
:100BC400FAA3E0F99000D8E475F0011207EA85F081
:100BD40082F5831206E89000D0F0020B1B9000D837
:100BE400E475F0011207D4AFF09000CDF0A3EFF05C
:100BF400020B1B9000CDE0FEA3E0FF4E60129000BC
:100C0400D8EEF0A3EFF0E49000CDF0A3F0020B1BBC
:100C14009000D9E004F070069000D8E004F0020BD4
:100C24001B9000D9E004F070069000D8E004F002B4
:100C34000B1B9000D6E0FEA3E0FFC39000D9E09F19
:100C44009000D8E09E50569000D3E0FBA3E0FAA3B6
:100C5400E0F99000D8E475F0011207EA85F082F516
:100C6400831206E89000CCF09000D1E0FFA3E0FDF1
:100C7400A3E0FBA3E0FAA3E0F99000D8E475F00147
:100C84001207EA85F082F5831206E8F54F9000CC4E
:0D0C9400E0FB12241380069000CF7403F0E3
:050CA100057005702242
:0F34780090004274FFF0A37409F0A374B0F02227
:102B46009000CFE0B4030DE49000D8F0A3F0A3F01A
:102B5600A3F0C210EF60049000D2F0ED6004900084
:102B6600D1F0E94A60047F0180027F00E5534552B7
:102B760060047E0180027E00EE5F60139000D3EB5E
:102B8600F0A3EAF0A3E9F0A3E552F0A3E553F0E5DC
:082B96005460049000D0F0220D
:10311000BF02047E0180027E00BF01047D018002A7
:103120007D00ED4EFEBF03047D0180027D00ED4E6B
:0831300060059000CFEFF022D2
:063576009000CFE0FF22EF
:0418F40041010501A8
:10333D00C295E4FEEF1392CC000000D29500EFC3CE
:08334D0013FFC2950EBE08EC4F
:013355002255
:10338700E4FEEFC313FF30CC03430780D295000060
:0733970000C2950EBE08EB19
:01339E00220C
:10303D00F07F85123050A3EFF07F87123050A3EF51
:03304D00F07F8988
:10305000C296000000C295000000D2960012333DD7
:0A306000123387D295000000C296DB
:01306A002243
:03325700A3E0FDF4
:10325A00C296000000C295000000D2960012333DCB
:0D326A00AF0512333DD295000000C2962240
:07355D007B017A0079FE22D8
:1033560078FE7C007D017B007A0079537E007F0732
:093366001206A9E4900105F02211
:10341600EFD3941F5009EF25E044C1FF0230507FDF
:02342600012281
:1030BF00AC07AB05ECD3941F501CE4FD7F8E12328E
:1030CF005AEC25E044C0FFAD0312325A7D807F8E4B
:0930DF0012325A7F00227F012207
:022565001570EF
:10256700900105E060447F81123050A870EFF6902B
:1025770000FEE06F7003022607A870E6F07F831263
:102587003050A870EFF6A3E06F6075A870E61230C0
:102597003DA3EFF07F8D123050900104EFF07F8B59
:1025A700123050900103EFF080569000FDE0FF04D9
:1025B700F0EFC3940A4049E4F090010504F0E4FD0C
:1025C7007F8E12325A9000FEE0FD7F8012325A7FD2
:1025D700821232577F84123257A3E0FD7F86123270
:1025E7005AA3E0FD7F8812325AA3E0FD7F8A123298
:1025F7005AA3E0FD7F8C12325A7D807F8E12325AA9
:0326070005702239
:101CAD007F811230509000FEEFF07F83123050A3F1
:101CBD00EF12303DA3EFF07F8B123050A3EFF07F8A
:101CCD008D123050A3EFF0E4FD7F8E12325A7F1E3D
:101CDD00123416EF64A560047F0180027F0090002E
:101CED00FEE05480FEA3E0D3945940047D018002B0
:101CFD007D00ED4EFE900100E0D394A440047D01E3
:101D0D0080027D00ED4EFE900101E0D39431400440
:101D1D007D0180027D00ED4EFE900102E0D3941214
:101D2D0040047D0180027D00ED4EFE900103E0D365
:101D3D00940740047D0180027D00ED4EFE9001046C
:101D4D00E0D3949940047D0180027D00ED4E4F60FB
:101D5D003078537C007D007B007A00794C7E007FCB
:101D6D00071206A91233567DA57F1E1230BF78FECD
:101D7D007C007D017B007A00794C7E007F07120686
:101D8D00A97DA97F9012325A7D807F8E12325A9092
:0E1D9D00005A74FFF0A37425F0A37465F022C1
:10343900D2C0000000D2CD000000C2C000000022AE
:0D004600C2C0000000D2CD000000D2C022D8
:0B31AD001231D11231B8AF051231D140
:1031B800E4FFD2CD30C009EFC394FF50030F80F471
:0831C800000000C2CD00000070
:0131D00022DC
:1031D100E4FEEF25E0FFC2CD00000092C000000038
:1031E100D2CD0000000EBE08E9C2CD000000D2C061
:0331F100000000DB
:0131F40022B8
:1031F500C2CD000000D2C000E4FED2CD0000EF2514
:10320500E0FDA2C0E4334DFF0000C2CD000EBE08B4
:01321500E9CF
:013216002295
:1033B500AC071234397FA01231D11231B8AF0412E3
:0533C50031AD020046DD
:0232CE00AD074A
:1032D0001234397FA01231AD1234397FA11231D1AD
:0932E0001231B81231F51200465A
:0132E90022C2
:0B18F800480106D4111A50400288A5D8
:0933DE007F031233E7D2C57F031F
:0A33E700AE071FEE60030080F7221E
:1033F100D2A71233DEC2A77F031233E7C2C57F0310
:033401000233E7AC
:0C34F700C2A71233DED2A77F030233E726
:1032EA00E4FFD2C530A709EFC394FA50030F80F464
:0C32FA007F031233E7C2C57F030233E7F5
:02313800AD07E1
:10313A00E4FBC2C57F031233E7ED3392A7ED25E026
:10314A00FD1233DE0BBB08EAC2C57F031233E7D296
:06315A00C57F030233E70C
:022D5E001570EE
:102D600090010EE0640170371233F17F2012313888
:102D70001232EAA870E4F6A870E6FFC39408501770
:102D800074062FF582E43401F583E0FF1231381226
:0F2D900032EAA8700680E01234F7E490010EF0EA
:032D9F000570229A
:102A9100900108E025E025E0FFA3E0C413135403EF
:102AA1002F2466F559E43403F55890010DE0540FD5
:102AB100F55A90010BE0543FFF5403FEBE03057528
:102AC1005BFF8003E4F55BEF540CFEBE0C05755C07
:102AD100FF8003E4F55CEF5430FFBF3005755DFF07
:0B2AE1008003E4F55D7B007A0079586B
:012AEC0022C7
:1021FD00D3E5539438E552940450047F0180027F57
:10220D0000C3E5539466E552940340047E018002B9
:10221D007E00EE5F6030122A911208006553700443
:10222D00E5F065526020E553249AFD1313543F9059
:10223D000108F0ED5403FFC4333354C04410A3F030
:10224D0090010E7401F0122A91E92402F9E43AFA90
:10225D001206CF655460047F0180027F00E554D3E0
:10226D00940F50047E0180027E00EE5F6011E554F4
:10227D00540FFF90010DE054F04FF0A37401F07D69
:10228D002AE5556003430501E5566003430504E562
:10229D0057600343051090010BE06D6008EDF09061
:0522AD00010E7401F0B8
:0122B2002209
:1031880078527C007D007B007A00794C7E007F06B7
:103198001206A91221FD90005774FFF0A3742DF0B8
:0531A800A3745EF0229B
:10269D008B66AA077C007E037FE81207499000EF46
:1026AD00EEF0A3EFF0E567FD7C007E037FE81207F7
:1026BD0049A3EEF0A3EFF0AF02AB07E4FAF9F890FF
:1026CD0000EFE0FEA3E0FFE4FCFD12082BEF243247
:1026DD00FFE43EFEE43DFDE43CFCE47B64FAF9F8E6
:1026ED00122DA29000E9EEF0A3EFF0AF66AB07E478
:1026FD00FAF9F89000F1E0FEA3E0FFE4FCFD12080A
:10270D002BEF2432FFE43EFEE43DFDE43CFCE47B94
:10271D0064FAF9F8122DA29000EBEEF0A3EFF0227F
:102AED00E4F54FF54EF54DF54CF550D291AF4FAE97
:102AFD004EAD4DAC4C780112096F8F4F8E4E8D4DF2
:102B0D008C4C00C291309015E4FAF9F8EF2401F5E0
:102B1D004FEA3EF54EE93DF54DE83CF54C0550E5E7
:102B2D0050B418C700D2910000C291AF4FAE4EAD58
:082B3D004DAC4C780812095B55
:012B4500226D
:09353D009000EDE0FEA3E0FF2286
:0F3449009000EDE0FEA3E0FFE49000EDF0A3F0B3
:013458002251
:101F81009000E8E0700F30900122122AED9000EDF0
:101F9100EEF0A3EFF09000E8E0FF64017062051B32
:101FA100E51B7002051AFDD39000F0E09D9000EF53
:101FB100E0951A5005E4F51AF51BD39000EAE09577
:101FC1001B9000E9E0951A4004D2908002C290056E
:101FD1001DE51D7002051CFDD39000F2E09D9000EF
:101FE100F1E0951C5005E4F51CF51DD39000ECE0E3
:101FF100951D9000EBE0951C4004D2918002C291A6
:10200100EF6402703E2090047F0180027F00E51E94
:1020110060047E0180027E00EE5F602130911090AD
:1020210000EEE004F070169000EDE004F0800E90F8
:1020310000EEE024FFF09000EDE034FFF0A290E428
:1020410033F51E9000E8E0B4031CE51F7002D29145
:10205100E51FB40105C29175DB21051FE51FC3947E
:06206100C84003E4F51F76
:012067002256
:102EE2009000E8EFF07004C2918002D2919000E865
:102EF200E0B40310E5A254CFF5A2E4F5D975DB01E5
:102F0200D2DE8003E4F5DB90005D74FFF0A3741F52
:062F1200F0A37481F0221F
:1034590053B1DF43B220C2B5C20A8F0C438F102289
:0300530002293946
:10293900C0E0C083C082C0D075D000C000C001C053
:0329490002C003C6
:10294C00200313D203755F08751300755E00E50C48
:10295C00C313F50A803AE50BC394014031E55E25BB
:10296C00E0F55EE50BC394034002055ED55F21E5FF
:10297C0013C39560501A755F08AB61AA62A9638591
:10298C001382758300E55E12071505138002C203DE
:03299C00750B00B8
:10299F00D003D002D001D000D0D0D082D083D0E0ED
:0129AF0032F5
:093546008B618A6289638D6022A9
:03358800AF13225C
:102F7B002003047F0180027F00200A047E0180026F
:102F8B007E00EE5F60188B178A188919EDC313F555
:102F9B0009C202E4F515538FEFD2047F02227F039F
:012FAB002203
:102E65002003047F0180027F00200A047E01800286
:102E75007E00EE5F6026538FEF750D10751608D234
:102E85000A438F018B178A188919ED75F008A40478
:0F2E9500F509D202E4F515D2047F02227F032251
:103306002003047F0180027F00200A047E018002E0
:0C3316007E00EE5F60037F00227F01223A
:101903005500A200000000000000000000000000DD
:081913000000010000000000CB
:030043000211C4E3
:1011C400C0E0C0F0C083C082C0D075D000C000C0F1
:1011D40001C002C003C004C005C006C007E59A30C0
:1011E400E142539AFD9000A7E0FEA3E0FFC3900004
:1011F400A6E09F9000A5E09E501F9000A2E0FBA3F4
:10120400E0FAA3E0F9A3E475F0011207EA85F0829D
:10121400F5831206E8F59B800B9000A9E4F0E56BDA
:101224006002C2B7E59A20E00302137B539AFE30B2
:101234000C0BC20C9000AFE4F0A3F0D209E56B6490
:101244000260030212D59000ADE0FEA3E0FFA3E02C
:10125400FCA3E0FDC39FEC9E50719000AAE0FBA3A9
:10126400E0FAA3E0F98D828C83E59B1207159000C8
:10127400B5E0FEA3E0FFC3ED9FEC9E50409000ADAF
:10128400E0FCA3E0FDEF9DEE9C50329000B2E0FB49
:10129400A3E0FAA3E0F99000AFE0FEA3E0FFF5823B
:1012A4008E831206E8FD9000AAE0FBA3E0FAA3E017
:1012B400F98F828E831206E86D6002C2099000B035
:1012C400E004F070069000AFE004F0856A120213A7
:1012D4007B9000ADE0FEA3E0FFA3E0FCA3E0FDC330
:1012E4009FEC9E50779000AAE0FBA3E0FAA3E0F9FC
:1012F4008D828C83E59B1207159000B5E0FEA3E078
:10130400FFC3ED9FEC9E50469000ADE0FCA3E0FDD2
:10131400EF9DEE9C50389000B2E0FBA3E0FAA3E00E
:10132400F99000AFE0FEA3E0FFF5828E831206E899
:10133400FD9000AAE0FBA3E0FAA3E0F98F828E837C
:101344001206E86D60089000AF74FFF0A3F09000FF
:10135400B0E004F070069000AFE004F09000ADE05F
:10136400FEA3E0FFC39000B0E09F9000AFE09E407A
:10137400069000B17401F0D007D006D005D004D097
:1013840003D002D001D000D0D0D082D083D0F0D00E
:02139400E03245
:023487001570BE
:0A3489009000B1E0A870F6FFE4F037
:033493000570229F
:01358C00221C
:1022B3008F4F8E4E8D4D8C4C85506BE56B7002802D
:1022C3000343BA01E56B701790005D74FFF0A374CC
:1022D30035F0A3748CF0E4F5DBD290D2918020C268
:1022E300B7AB4FAA4EA94DA84CE47F407E9CFDFCA2
:1022F3001208B68F6AE56A7003756A01856A1275FA
:102303009A10E47B04FAF9F89016AE1209821208C7
:10231300B6AB4FAA4EA94DA84C1208B6EFF404F57C
:10232300D7E47B04FAF9F89016AE1209821208B6C4
:10233300AB4FAA4EA94DA84C1208B6C3E49FFFE4C5
:102343009EFE74019DFDE49CFC78081209488FD61B
:10235300438E1443AF0190005174FFF0A37434F023
:05236300A37487F022C5
:102FAC009000AAEBF0A3EAF0A3E9F0A3ECF0A3EDF8
:102FBC00F09000B5E554F0A3E555F09000B2E55162
:102FCC00F0A3E552F0A3E553F0D20CE49000B1F07D
:012FDC0022D2
:10300E009000A9E070269000A2EBF0A3EAF0A3E9ED
:10301E00F0E4A3F0A3F0A3ECF0A3EDF0A37401F0A1
:0F302E00E56B6002D2B7439A027F02227F032232
:0B3503009000A9E07002FF227F01226F
:10191B005500B700000000000000000000000000B0
:08192B000000010000000000B3
:030023000219348B
:10193400C0E0C0F0C083C082C0D075D000C000C079
:1019440001C002C003C004C005C006C00730993BF3
:10195400C2999000BCE0FEA3E0FFC39000BBE09FEF
:101964009000BAE09E501F9000B7E0FBA3E0FAA3FA
:10197400E0F9A3E475F0011207EA85F082F5831219
:1019840006E8F59980059000BEE4F0209803021A59
:1019940049C298300B09C20B9000C4E4F0A3F09044
:1019A40000C2E0FEA3E0FFA3E0FCA3E0FDC39FECC4
:1019B4009E50779000BFE0FBA3E0FAA3E0F98D828C
:1019C4008C83E5991207159000CAE0FEA3E0FFC3DB
:1019D400ED9FEC9E50469000C2E0FCA3E0FDEF9D1D
:1019E400EE9C50389000C7E0FBA3E0FAA3E0F99026
:1019F40000C4E0FEA3E0FFF5828E831206E8FD90AA
:101A040000BFE0FBA3E0FAA3E0F98F828E83120605
:101A1400E86D60089000C474FFF0A3F09000C5E086
:101A240004F070069000C4E004F09000C2E0FEA34D
:101A3400E0FFC39000C5E09F9000C4E09E40069084
:101A440000C67401F0D007D006D005D004D003D06E
:101A540002D001D000D0D0D082D083D0F0D0E032F8
:023496001570AF
:0A3498009000C6E0A870F6FFE4F013
:0334A20005702290
:1029B0008F4F8E4E8D4D8C4C759850438E40538E5C
:1029C000FE53890FE47B04FAF9F89016AE120982DF
:1029D0001208B6AB4FAA4EA94DA84C1208B6EFF498
:1029E00004F58BE47B04FAF9F89016AE1209821212
:1029F00008B6AB4FAA4EA94DA84C1208B6C3E49F27
:102A0000FFE49EFE74019DFDE49CFC7808120948D9
:102A10008F8DC2ABD28ED2AC90004E74FFF0A374F7
:072A200034F0A37496F022CC
:102FDD009000BFEBF0A3EAF0A3E9F0A3ECF0A3EDB2
:102FED00F09000CAE554F0A3E555F09000C7E55107
:102FFD00F0A3E552F0A3E553F0D20BE49000C6F038
:01300D0022A0
:103160009000BEE0701F9000B7EBF0A3EAF0A3E977
:10317000F0E4A3F0A3F0A3ECF0A3EDF0A37401F04E
:08318000D2997F02227F032295
:0B350E009000BEE07002FF227F01224F
:0300000002272DA7
:0C272D00787FE4F6D8FD758170022774F7
:1005D900E709F608DFFA8046E709F208DFFA803E04
:1005E90088828C83E709F0A3DFFA8032E309F608F1
:1005F900DFFA8078E309F208DFFA807088828C8359
:10060900E309F0A3DFFA806489828A83E0A3F6080C
:10061900DFFA805889828A83E0A3F208DFFA804CE6
:1006290080D280FA80C680D4806980F280338010BD
:1006390080A680EA809A80A880DA80E280CA803326
:1006490089828A83ECFAE493A3C8C582C8CCC5839E
:10065900CCF0A3C8C582C8CCC583CCDFE9DEE7806E
:100669000D89828A83E493A3F608DFF9ECFAA9F0ED
:10067900EDFB2289828A83ECFAE0A3C8C582C8CC43
:10068900C583CCF0A3C8C582C8CCC583CCDFEADE5C
:10069900E880DB89828A83E493A3F208DFF980CCBE
:1006A90088F0EF60010E4E60C388F0ED2402B404B7
:1006B9000050B9F582EB2402B4040050AF2323455E
:0606C90082239006297354
:1006CF00BB010689828A83E0225002E722BBFE0229
:0906DF00E32289828A83E493225C
:1006E800BB010CE58229F582E5833AF583E02250C7
:1006F80006E92582F8E622BBFE06E92582F8E22211
:0D070800E58229F582E5833AF583E493222A
:10071500F8BB010DE58229F582E5833AF583E8F01A
:10072500225006E92582C8F622BBFE05E92582C8C6
:02073500F222AE
:10073700EF8DF0A4A8F0CF8CF0A428CE8DF0A42ED6
:02074700FE2290
:10074900BC000BBE0029EF8DF084FFADF022E4CC94
:10075900F875F008EF2FFFEE33FEEC33FCEE9DEC5D
:10076900984005FCEE9DFE0FD5F0E9E4CEFD22EDA3
:10077900F8F5F0EE8420D21CFEADF075F008EF2FED
:10078900FFED33FD4007985006D5F0F222C398FDDE
:050799000FD5F0EA227B
:10079E00C2D5EC30E709B2D5E4C39DFDE49CFCEE76
:1007AE0030E715B2D5E4C39FFFE49EFE120749C39E
:1007BE00E49DFDE49CFC800312074930D507C3E499
:0607CE009FFFE49EFE22E5
:1007D400C5F0F8A3E028F0C5F0F8E58215827002B0
:0607E4001583E038F0224D
:1007EA00A3F8E0C5F025F0F0E582158270021583C2
:0607FA00E0C838F0E8221F
:10080000BB010A89828A83E0F5F0A3E022500687C3
:10081000F009E71922BBFE07E3F5F009E319228985
:0B082000828A83E493F5F074019322B8
:10082B00E88FF0A4CC8BF0A42CFCE98EF0A42CFC6C
:10083B008AF0EDA42CFCEA8EF0A4CDA8F08BF0A4EA
:10084B002DCC3825F0FDE98FF0A42CCD35F0FCEB49
:10085B008EF0A4FEA9F0EB8FF0A4CFC5F02ECD390E
:0F086B00FEE43CFCEAA42DCE35F0FDE43CFC227B
:10087A0075F008758200EF2FFFEE33FECD33CDCC35
:10088A0033CCC58233C5829BED9AEC99E5829840B8
:10089A000CF582EE9BFEED9AFDEC99FC0FD5F0D695
:1008AA00E4CEFBE4CDFAE4CCF9A88222B800C1B9BF
:1008BA000059BA002DEC8BF084CFCECDFCE5F0CBFD
:1008CA00F97818EF2FFFEE33FEED33FDEC33FCEB36
:1008DA0033FB10D703994004EB99FB0FD8E5E4F9F1
:1008EA00FA227818EF2FFFEE33FEED33FDEC33FCDE
:1008FA00C933C910D7059BE99A4007EC9BFCE99AD2
:10090A00F90FD8E0E4C9FAE4CCFB2275F010EF2F16
:10091A00FFEE33FEED33FDCC33CCC833C810D70716
:10092A009BEC9AE899400AED9BFDEC9AFCE899F851
:0E093A000FD5F0DAE4CDFBE4CCFAE4C8F922E4
:102DA200C2D5E830E70FB2D5E4C39BFBE49AFAE45C
:102DB20099F9E498F8EC30E717B2D5122DD8120839
:102DC200B6E4C39BFBE49AFAE499F9E498F8800329
:102DD2001208B630D50DE4C39FFFE49EFEE49DFDCC
:042DE200E49CFC224F
:10094800E8600FECC313FCED13FDEE13FEEF13FF8D
:03095800D8F122B1
:10095B00E86010ECA2E713FCED13FDEE13FEEF13B2
:04096B00FFD8F0229F
:10096F00E8600FEFC333FFEE33FEED33FDEC33FCE6
:03097F00D8F1228A
:10098200E493FC740193FD740293FE740393FF22BB
:0C099200ECF0A3EDF0A3EEF0A3EFF022D8
:0C099E00A42582F582E5F03583F5832264
:0609AA008A838982E473D8
:10273900021542E493A3F8E493A34003F68001F25F
:1027490008DFF48029E493A3F85407240CC8C333A1
:10275900C4540F4420C8834004F456800146F6DF70
:10276900E4800B01020408102040809017ECE47EFD
:10277900019360BCA3FF543F30E509541FFEE49365
:10278900A360010ECF54C025E060A840B8E493A32C
:10279900FAE493A3F8E493A3C8C582C8CAC583CA57
:1027A900F0A3C8C582C8CAC583CADFE9DEE780BE0F
:0119330000B3
:00000001FF
