:10008F000232000010343F065B4F666D7D077F6FB5
:10009F00777C395E797108080001020304050607B1
:1000AF001A10777C395E79713D76301E75381537A9
:1000BF003F736B336D313E3E2A76665B082A065BD3
:0600CF007638405B0600DC
:0B011300EF1FAC0670011E4C70F622BE
:1000D6007596FFE4F5957594FFF593E4F532F533DF
:1000E600E4F580AF3374082FF8E6F5A0742A2FF8EC
:1000F600E6F5807F587E021201130533E533700260
:0D0106000532C39408E532940040D580CE48
:03000000020003F8
:0C000300787FE4F6D8FD75814302004AC6
:10000F000200D6E493A3F8E493A34003F68001F231
:10001F0008DFF48029E493A3F85407240CC8C333F2
:10002F00C4540F4420C8834004F456800146F6DFC1
:10003F00E4800B010204081020408090008FE47EC2
:10004F00019360BCA3FF543F30E509541FFEE493B6
:10005F00A360010ECF54C025E060A840B8E493A37D
:10006F00FAE493A3F8E493A3C8C582C8CAC583CAA8
:10007F00F0A3C8C582C8CAC583CADFE9DEE780BE60
:0100D500002A
:00000001FF
